{
  "_format": "hh-sol-artifact-1",
  "contractName": "RapidProtocol",
  "sourceName": "contracts/RapidProtocol.sol",
  "abi": [
    {
      "inputs": [
        {
          "internalType": "string",
          "name": "name",
          "type": "string"
        },
        {
          "internalType": "string",
          "name": "symbol",
          "type": "string"
        }
      ],
      "stateMutability": "nonpayable",
      "type": "constructor"
    },
    {
      "anonymous": false,
      "inputs": [
        {
          "indexed": false,
          "internalType": "uint256",
          "name": "amount",
          "type": "uint256"
        },
        {
          "indexed": false,
          "internalType": "address",
          "name": "to",
          "type": "address"
        },
        {
          "indexed": false,
          "internalType": "bytes32",
          "name": "fiatSymbol",
          "type": "bytes32"
        },
        {
          "indexed": false,
          "internalType": "bytes32",
          "name": "lpSymbol",
          "type": "bytes32"
        }
      ],
      "name": "AddLiquidity",
      "type": "event"
    },
    {
      "anonymous": false,
      "inputs": [
        {
          "indexed": true,
          "internalType": "address",
          "name": "owner",
          "type": "address"
        },
        {
          "indexed": true,
          "internalType": "address",
          "name": "spender",
          "type": "address"
        },
        {
          "indexed": false,
          "internalType": "uint256",
          "name": "value",
          "type": "uint256"
        }
      ],
      "name": "Approval",
      "type": "event"
    },
    {
      "anonymous": false,
      "inputs": [
        {
          "indexed": true,
          "internalType": "address",
          "name": "from",
          "type": "address"
        },
        {
          "indexed": true,
          "internalType": "address",
          "name": "to",
          "type": "address"
        },
        {
          "indexed": false,
          "internalType": "uint256",
          "name": "value",
          "type": "uint256"
        }
      ],
      "name": "Transfer",
      "type": "event"
    },
    {
      "anonymous": false,
      "inputs": [
        {
          "indexed": false,
          "internalType": "uint256",
          "name": "amount",
          "type": "uint256"
        },
        {
          "indexed": false,
          "internalType": "address",
          "name": "to",
          "type": "address"
        },
        {
          "indexed": false,
          "internalType": "bytes32",
          "name": "destinationFiatSymbol",
          "type": "bytes32"
        }
      ],
      "name": "TransferFiat",
      "type": "event"
    },
    {
      "anonymous": false,
      "inputs": [
        {
          "indexed": false,
          "internalType": "uint256",
          "name": "amount",
          "type": "uint256"
        },
        {
          "indexed": false,
          "internalType": "address",
          "name": "to",
          "type": "address"
        },
        {
          "indexed": false,
          "internalType": "bytes32",
          "name": "fiatSymbol",
          "type": "bytes32"
        }
      ],
      "name": "WithdrawLiquidity",
      "type": "event"
    },
    {
      "inputs": [],
      "name": "CHANNEL_ADDRESS",
      "outputs": [
        {
          "internalType": "address",
          "name": "",
          "type": "address"
        }
      ],
      "stateMutability": "view",
      "type": "function"
    },
    {
      "inputs": [],
      "name": "EPNS_COMM_ADDRESS",
      "outputs": [
        {
          "internalType": "address",
          "name": "",
          "type": "address"
        }
      ],
      "stateMutability": "view",
      "type": "function"
    },
    {
      "inputs": [
        {
          "internalType": "bytes32",
          "name": "symbol",
          "type": "bytes32"
        },
        {
          "internalType": "address",
          "name": "tokenAddress",
          "type": "address"
        }
      ],
      "name": "addFiatToken",
      "outputs": [],
      "stateMutability": "nonpayable",
      "type": "function"
    },
    {
      "inputs": [
        {
          "internalType": "bytes32",
          "name": "symbol",
          "type": "bytes32"
        },
        {
          "internalType": "address",
          "name": "tokenAddress",
          "type": "address"
        }
      ],
      "name": "addLPToken",
      "outputs": [],
      "stateMutability": "nonpayable",
      "type": "function"
    },
    {
      "inputs": [
        {
          "internalType": "uint256",
          "name": "amount",
          "type": "uint256"
        },
        {
          "internalType": "address",
          "name": "to",
          "type": "address"
        },
        {
          "internalType": "bytes32",
          "name": "fiatSymbol",
          "type": "bytes32"
        },
        {
          "internalType": "bytes32",
          "name": "lpSymbol",
          "type": "bytes32"
        },
        {
          "internalType": "uint256",
          "name": "ratio",
          "type": "uint256"
        }
      ],
      "name": "addLiquidity",
      "outputs": [],
      "stateMutability": "nonpayable",
      "type": "function"
    },
    {
      "inputs": [],
      "name": "admin",
      "outputs": [
        {
          "internalType": "address",
          "name": "",
          "type": "address"
        }
      ],
      "stateMutability": "view",
      "type": "function"
    },
    {
      "inputs": [
        {
          "internalType": "address",
          "name": "owner",
          "type": "address"
        },
        {
          "internalType": "address",
          "name": "spender",
          "type": "address"
        }
      ],
      "name": "allowance",
      "outputs": [
        {
          "internalType": "uint256",
          "name": "",
          "type": "uint256"
        }
      ],
      "stateMutability": "view",
      "type": "function"
    },
    {
      "inputs": [
        {
          "internalType": "address",
          "name": "spender",
          "type": "address"
        },
        {
          "internalType": "uint256",
          "name": "amount",
          "type": "uint256"
        }
      ],
      "name": "approve",
      "outputs": [
        {
          "internalType": "bool",
          "name": "",
          "type": "bool"
        }
      ],
      "stateMutability": "nonpayable",
      "type": "function"
    },
    {
      "inputs": [
        {
          "internalType": "address",
          "name": "account",
          "type": "address"
        }
      ],
      "name": "balanceOf",
      "outputs": [
        {
          "internalType": "uint256",
          "name": "",
          "type": "uint256"
        }
      ],
      "stateMutability": "view",
      "type": "function"
    },
    {
      "inputs": [
        {
          "internalType": "uint256",
          "name": "destinationAmount",
          "type": "uint256"
        },
        {
          "internalType": "bytes32",
          "name": "destinationSymbol",
          "type": "bytes32"
        }
      ],
      "name": "calculateFee",
      "outputs": [
        {
          "internalType": "uint256",
          "name": "totalFee",
          "type": "uint256"
        }
      ],
      "stateMutability": "view",
      "type": "function"
    },
    {
      "inputs": [
        {
          "internalType": "uint256",
          "name": "sourceAmount",
          "type": "uint256"
        },
        {
          "internalType": "bytes32",
          "name": "sourceSymbol",
          "type": "bytes32"
        },
        {
          "internalType": "uint256",
          "name": "destinationAmount",
          "type": "uint256"
        },
        {
          "internalType": "bytes32",
          "name": "destinationSymbol",
          "type": "bytes32"
        }
      ],
      "name": "calculateFeeAndCashback",
      "outputs": [
        {
          "internalType": "uint256",
          "name": "totalFee",
          "type": "uint256"
        },
        {
          "internalType": "uint256",
          "name": "cashback",
          "type": "uint256"
        }
      ],
      "stateMutability": "view",
      "type": "function"
    },
    {
      "inputs": [
        {
          "internalType": "uint256",
          "name": "sourceAmount",
          "type": "uint256"
        },
        {
          "internalType": "uint256",
          "name": "destinationAmount",
          "type": "uint256"
        },
        {
          "internalType": "bytes32",
          "name": "destinationSymbol",
          "type": "bytes32"
        }
      ],
      "name": "calculateFeeInAmount",
      "outputs": [
        {
          "internalType": "uint256",
          "name": "totalFeeAmount",
          "type": "uint256"
        }
      ],
      "stateMutability": "view",
      "type": "function"
    },
    {
      "inputs": [
        {
          "internalType": "uint256",
          "name": "sourceAmount",
          "type": "uint256"
        },
        {
          "internalType": "bytes32",
          "name": "sourceSymbol",
          "type": "bytes32"
        }
      ],
      "name": "cashbackIPFees",
      "outputs": [
        {
          "internalType": "uint256",
          "name": "cashback",
          "type": "uint256"
        }
      ],
      "stateMutability": "view",
      "type": "function"
    },
    {
      "inputs": [],
      "name": "decimals",
      "outputs": [
        {
          "internalType": "uint8",
          "name": "",
          "type": "uint8"
        }
      ],
      "stateMutability": "view",
      "type": "function"
    },
    {
      "inputs": [
        {
          "internalType": "address",
          "name": "spender",
          "type": "address"
        },
        {
          "internalType": "uint256",
          "name": "subtractedValue",
          "type": "uint256"
        }
      ],
      "name": "decreaseAllowance",
      "outputs": [
        {
          "internalType": "bool",
          "name": "",
          "type": "bool"
        }
      ],
      "stateMutability": "nonpayable",
      "type": "function"
    },
    {
      "inputs": [
        {
          "internalType": "uint256",
          "name": "",
          "type": "uint256"
        }
      ],
      "name": "fiatTokenList",
      "outputs": [
        {
          "internalType": "bytes32",
          "name": "",
          "type": "bytes32"
        }
      ],
      "stateMutability": "view",
      "type": "function"
    },
    {
      "inputs": [
        {
          "internalType": "bytes32",
          "name": "",
          "type": "bytes32"
        }
      ],
      "name": "fiatTokens",
      "outputs": [
        {
          "internalType": "bytes32",
          "name": "symbol",
          "type": "bytes32"
        },
        {
          "internalType": "address",
          "name": "tokenAddress",
          "type": "address"
        }
      ],
      "stateMutability": "view",
      "type": "function"
    },
    {
      "inputs": [
        {
          "internalType": "bytes32",
          "name": "fiatSymbol",
          "type": "bytes32"
        }
      ],
      "name": "getEquilibriumFee",
      "outputs": [
        {
          "internalType": "uint256",
          "name": "fee",
          "type": "uint256"
        }
      ],
      "stateMutability": "view",
      "type": "function"
    },
    {
      "inputs": [],
      "name": "getFiatTokens",
      "outputs": [
        {
          "components": [
            {
              "internalType": "bytes32",
              "name": "symbol",
              "type": "bytes32"
            },
            {
              "internalType": "address",
              "name": "tokenAddress",
              "type": "address"
            }
          ],
          "internalType": "struct RapidProtocol.Token[]",
          "name": "",
          "type": "tuple[]"
        }
      ],
      "stateMutability": "view",
      "type": "function"
    },
    {
      "inputs": [
        {
          "internalType": "bytes32",
          "name": "symbol",
          "type": "bytes32"
        }
      ],
      "name": "getIPFee",
      "outputs": [
        {
          "internalType": "uint256",
          "name": "val",
          "type": "uint256"
        }
      ],
      "stateMutability": "view",
      "type": "function"
    },
    {
      "inputs": [
        {
          "internalType": "bytes32",
          "name": "symbol",
          "type": "bytes32"
        }
      ],
      "name": "getLPFee",
      "outputs": [
        {
          "internalType": "uint256",
          "name": "val",
          "type": "uint256"
        }
      ],
      "stateMutability": "view",
      "type": "function"
    },
    {
      "inputs": [],
      "name": "getLPTokens",
      "outputs": [
        {
          "components": [
            {
              "internalType": "bytes32",
              "name": "symbol",
              "type": "bytes32"
            },
            {
              "internalType": "address",
              "name": "tokenAddress",
              "type": "address"
            }
          ],
          "internalType": "struct RapidProtocol.Token[]",
          "name": "",
          "type": "tuple[]"
        }
      ],
      "stateMutability": "view",
      "type": "function"
    },
    {
      "inputs": [
        {
          "internalType": "address",
          "name": "user",
          "type": "address"
        },
        {
          "internalType": "bytes32",
          "name": "symbol",
          "type": "bytes32"
        }
      ],
      "name": "getLiquidity",
      "outputs": [
        {
          "internalType": "uint256",
          "name": "count",
          "type": "uint256"
        }
      ],
      "stateMutability": "view",
      "type": "function"
    },
    {
      "inputs": [
        {
          "internalType": "address",
          "name": "to",
          "type": "address"
        },
        {
          "internalType": "bytes32",
          "name": "fiatSymbol",
          "type": "bytes32"
        }
      ],
      "name": "getLiquidityFeeAccruced",
      "outputs": [
        {
          "internalType": "uint256",
          "name": "feeEarned",
          "type": "uint256"
        },
        {
          "internalType": "uint256",
          "name": "shareEarned",
          "type": "uint256"
        }
      ],
      "stateMutability": "view",
      "type": "function"
    },
    {
      "inputs": [
        {
          "internalType": "bytes32",
          "name": "toSymbol",
          "type": "bytes32"
        }
      ],
      "name": "getSuppliedLiquidity",
      "outputs": [
        {
          "internalType": "uint256",
          "name": "count",
          "type": "uint256"
        }
      ],
      "stateMutability": "view",
      "type": "function"
    },
    {
      "inputs": [
        {
          "internalType": "address",
          "name": "spender",
          "type": "address"
        },
        {
          "internalType": "uint256",
          "name": "addedValue",
          "type": "uint256"
        }
      ],
      "name": "increaseAllowance",
      "outputs": [
        {
          "internalType": "bool",
          "name": "",
          "type": "bool"
        }
      ],
      "stateMutability": "nonpayable",
      "type": "function"
    },
    {
      "inputs": [
        {
          "internalType": "bytes32",
          "name": "",
          "type": "bytes32"
        }
      ],
      "name": "ipFeePool",
      "outputs": [
        {
          "internalType": "uint256",
          "name": "",
          "type": "uint256"
        }
      ],
      "stateMutability": "view",
      "type": "function"
    },
    {
      "inputs": [
        {
          "internalType": "bytes32",
          "name": "",
          "type": "bytes32"
        }
      ],
      "name": "liquidityFactor",
      "outputs": [
        {
          "internalType": "uint256",
          "name": "",
          "type": "uint256"
        }
      ],
      "stateMutability": "view",
      "type": "function"
    },
    {
      "inputs": [
        {
          "internalType": "address",
          "name": "",
          "type": "address"
        },
        {
          "internalType": "bytes32",
          "name": "",
          "type": "bytes32"
        }
      ],
      "name": "liquidityProvider",
      "outputs": [
        {
          "internalType": "uint256",
          "name": "",
          "type": "uint256"
        }
      ],
      "stateMutability": "view",
      "type": "function"
    },
    {
      "inputs": [
        {
          "internalType": "address",
          "name": "",
          "type": "address"
        },
        {
          "internalType": "bytes32",
          "name": "",
          "type": "bytes32"
        }
      ],
      "name": "lpFee2Withdraw",
      "outputs": [
        {
          "internalType": "uint256",
          "name": "",
          "type": "uint256"
        }
      ],
      "stateMutability": "view",
      "type": "function"
    },
    {
      "inputs": [
        {
          "internalType": "bytes32",
          "name": "",
          "type": "bytes32"
        }
      ],
      "name": "lpFeePool",
      "outputs": [
        {
          "internalType": "uint256",
          "name": "",
          "type": "uint256"
        }
      ],
      "stateMutability": "view",
      "type": "function"
    },
    {
      "inputs": [
        {
          "internalType": "uint256",
          "name": "",
          "type": "uint256"
        }
      ],
      "name": "lpTokenList",
      "outputs": [
        {
          "internalType": "bytes32",
          "name": "",
          "type": "bytes32"
        }
      ],
      "stateMutability": "view",
      "type": "function"
    },
    {
      "inputs": [
        {
          "internalType": "bytes32",
          "name": "",
          "type": "bytes32"
        }
      ],
      "name": "lpTokens",
      "outputs": [
        {
          "internalType": "bytes32",
          "name": "symbol",
          "type": "bytes32"
        },
        {
          "internalType": "address",
          "name": "tokenAddress",
          "type": "address"
        }
      ],
      "stateMutability": "view",
      "type": "function"
    },
    {
      "inputs": [],
      "name": "name",
      "outputs": [
        {
          "internalType": "string",
          "name": "",
          "type": "string"
        }
      ],
      "stateMutability": "view",
      "type": "function"
    },
    {
      "inputs": [
        {
          "internalType": "address",
          "name": "to",
          "type": "address"
        },
        {
          "internalType": "string",
          "name": "title",
          "type": "string"
        },
        {
          "internalType": "string",
          "name": "message",
          "type": "string"
        }
      ],
      "name": "notificationFromSeller",
      "outputs": [
        {
          "internalType": "bool",
          "name": "success",
          "type": "bool"
        }
      ],
      "stateMutability": "nonpayable",
      "type": "function"
    },
    {
      "inputs": [
        {
          "internalType": "address",
          "name": "to",
          "type": "address"
        },
        {
          "internalType": "uint256",
          "name": "amount",
          "type": "uint256"
        },
        {
          "internalType": "bytes32",
          "name": "fiatSymbol",
          "type": "bytes32"
        }
      ],
      "name": "notificationToBuyer",
      "outputs": [
        {
          "internalType": "bool",
          "name": "success",
          "type": "bool"
        }
      ],
      "stateMutability": "nonpayable",
      "type": "function"
    },
    {
      "inputs": [
        {
          "internalType": "uint256",
          "name": "bd",
          "type": "uint256"
        }
      ],
      "name": "setBaseDivisor",
      "outputs": [],
      "stateMutability": "nonpayable",
      "type": "function"
    },
    {
      "inputs": [
        {
          "internalType": "bytes32",
          "name": "fiatSymbol",
          "type": "bytes32"
        },
        {
          "internalType": "uint256",
          "name": "fee",
          "type": "uint256"
        }
      ],
      "name": "setEquilibriumFee",
      "outputs": [],
      "stateMutability": "nonpayable",
      "type": "function"
    },
    {
      "inputs": [
        {
          "internalType": "bytes32",
          "name": "fiatSymbol",
          "type": "bytes32"
        },
        {
          "internalType": "uint256",
          "name": "factor",
          "type": "uint256"
        }
      ],
      "name": "setLiquidityFactor",
      "outputs": [],
      "stateMutability": "nonpayable",
      "type": "function"
    },
    {
      "inputs": [
        {
          "internalType": "bytes32",
          "name": "",
          "type": "bytes32"
        }
      ],
      "name": "suppliedLiquidity",
      "outputs": [
        {
          "internalType": "uint256",
          "name": "",
          "type": "uint256"
        }
      ],
      "stateMutability": "view",
      "type": "function"
    },
    {
      "inputs": [],
      "name": "symbol",
      "outputs": [
        {
          "internalType": "string",
          "name": "",
          "type": "string"
        }
      ],
      "stateMutability": "view",
      "type": "function"
    },
    {
      "inputs": [],
      "name": "token",
      "outputs": [
        {
          "internalType": "contract ERC20",
          "name": "",
          "type": "address"
        }
      ],
      "stateMutability": "view",
      "type": "function"
    },
    {
      "inputs": [],
      "name": "totalSupply",
      "outputs": [
        {
          "internalType": "uint256",
          "name": "",
          "type": "uint256"
        }
      ],
      "stateMutability": "view",
      "type": "function"
    },
    {
      "inputs": [
        {
          "internalType": "address",
          "name": "recipient",
          "type": "address"
        },
        {
          "internalType": "uint256",
          "name": "amount",
          "type": "uint256"
        }
      ],
      "name": "transfer",
      "outputs": [
        {
          "internalType": "bool",
          "name": "",
          "type": "bool"
        }
      ],
      "stateMutability": "nonpayable",
      "type": "function"
    },
    {
      "inputs": [
        {
          "internalType": "address",
          "name": "to",
          "type": "address"
        },
        {
          "internalType": "uint256",
          "name": "destinationAmount",
          "type": "uint256"
        },
        {
          "internalType": "bytes32",
          "name": "destinationFiatSymbol",
          "type": "bytes32"
        },
        {
          "internalType": "uint256",
          "name": "sourceAmount",
          "type": "uint256"
        },
        {
          "internalType": "bytes32",
          "name": "sourceFiatSymbol",
          "type": "bytes32"
        }
      ],
      "name": "transferFiat",
      "outputs": [],
      "stateMutability": "nonpayable",
      "type": "function"
    },
    {
      "inputs": [
        {
          "internalType": "address",
          "name": "sender",
          "type": "address"
        },
        {
          "internalType": "address",
          "name": "recipient",
          "type": "address"
        },
        {
          "internalType": "uint256",
          "name": "amount",
          "type": "uint256"
        }
      ],
      "name": "transferFrom",
      "outputs": [
        {
          "internalType": "bool",
          "name": "",
          "type": "bool"
        }
      ],
      "stateMutability": "nonpayable",
      "type": "function"
    },
    {
      "inputs": [
        {
          "internalType": "uint256",
          "name": "amount",
          "type": "uint256"
        },
        {
          "internalType": "address",
          "name": "to",
          "type": "address"
        },
        {
          "internalType": "bytes32",
          "name": "fiatSymbol",
          "type": "bytes32"
        },
        {
          "internalType": "bytes32",
          "name": "lpSymbol",
          "type": "bytes32"
        }
      ],
      "name": "withdrawLiquidity",
      "outputs": [],
      "stateMutability": "nonpayable",
      "type": "function"
    }
  ],
  "bytecode": "0x608060405273b3971bcef2d791bc4027bbfedfb47319a4aaaaaa600560006101000a81548173ffffffffffffffffffffffffffffffffffffffff021916908373ffffffffffffffffffffffffffffffffffffffff16021790555073a353884673b0971e47e5520a5502e379b237600d600660006101000a81548173ffffffffffffffffffffffffffffffffffffffff021916908373ffffffffffffffffffffffffffffffffffffffff160217905550620f4240601055612710601155670de0b6b3a7640000601255348015620000d457600080fd5b5060405162006149380380620061498339818101604052810190620000fa91906200029b565b818181600390805190602001906200011492919062000179565b5080600490805190602001906200012d92919062000179565b50505033600960006101000a81548173ffffffffffffffffffffffffffffffffffffffff021916908373ffffffffffffffffffffffffffffffffffffffff16021790555050506200047e565b8280546200018790620003a3565b90600052602060002090601f016020900481019282620001ab5760008555620001f7565b82601f10620001c657805160ff1916838001178555620001f7565b82800160010185558215620001f7579182015b82811115620001f6578251825591602001919060010190620001d9565b5b5090506200020691906200020a565b5090565b5b80821115620002255760008160009055506001016200020b565b5090565b6000620002406200023a8462000337565b6200030e565b9050828152602081018484840111156200025957600080fd5b620002668482856200036d565b509392505050565b600082601f8301126200028057600080fd5b81516200029284826020860162000229565b91505092915050565b60008060408385031215620002af57600080fd5b600083015167ffffffffffffffff811115620002ca57600080fd5b620002d8858286016200026e565b925050602083015167ffffffffffffffff811115620002f657600080fd5b62000304858286016200026e565b9150509250929050565b60006200031a6200032d565b9050620003288282620003d9565b919050565b6000604051905090565b600067ffffffffffffffff8211156200035557620003546200043e565b5b62000360826200046d565b9050602081019050919050565b60005b838110156200038d57808201518184015260208101905062000370565b838111156200039d576000848401525b50505050565b60006002820490506001821680620003bc57607f821691505b60208210811415620003d357620003d26200040f565b5b50919050565b620003e4826200046d565b810181811067ffffffffffffffff821117156200040657620004056200043e565b5b80604052505050565b7f4e487b7100000000000000000000000000000000000000000000000000000000600052602260045260246000fd5b7f4e487b7100000000000000000000000000000000000000000000000000000000600052604160045260246000fd5b6000601f19601f8301169050919050565b615cbb806200048e6000396000f3fe608060405234801561001057600080fd5b50600436106102955760003560e01c806370a0823111610167578063a457c2d7116100ce578063eca3b53011610087578063eca3b5301461092f578063f339c92014610960578063f851a44014610990578063fb479686146109ae578063fc0c546a146109cc578063fee30ffa146109ea57610295565b8063a457c2d714610821578063a9059cbb14610851578063c2ec6c9a14610881578063cf605fcd146108b2578063dd62ed3e146108e3578063e2802b881461091357610295565b80637dd5f6fd116101205780637dd5f6fd1461072757806389027737146107435780638b9fe06b1461077357806392d356ce146107a357806395d89b41146107d3578063979c4631146107f157610295565b806370a082311461061b578063767b62541461064b57806377dcf5cc1461067b578063798446ec146106ab57806379f4574d146106db5780637b0057401461070b57610295565b806330ba50041161020b57806348a3b4a4116101c457806348a3b4a4146105335780635030506c1461055157806358800c48146105815780635d17c77c146105b15780636b74ae01146105cf578063706bc02d146105eb57610295565b806330ba500414610438578063313ce5671461045457806339509351146104725780633a652b90146104a2578063402d037e146104d2578063430dca501461050257610295565b8063142b8b8e1161025d578063142b8b8e1461036657806318160ddd14610382578063238117c0146103a057806323b872dd146103d057806325a78e88146104005780632d28e9291461041c57610295565b80630459e5aa1461029a57806306fdde03146102ca57806307ac6473146102e8578063095ea7b3146103185780631224abfb14610348575b600080fd5b6102b460048036038101906102af9190614518565b610a1a565b6040516102c19190614fcc565b60405180910390f35b6102d2610aea565b6040516102df9190614d8a565b60405180910390f35b61030260048036038101906102fd91906142ac565b610b7c565b60405161030f9190614fcc565b60405180910390f35b610332600480360381019061032d9190614181565b610b94565b60405161033f9190614d10565b60405180910390f35b610350610bb2565b60405161035d9190614cee565b60405180910390f35b610380600480360381019061037b9190614402565b610da5565b005b61038a611273565b6040516103979190614fcc565b60405180910390f35b6103ba60048036038101906103b591906141bd565b61127d565b6040516103c79190614d10565b60405180910390f35b6103ea60048036038101906103e59190614077565b611398565b6040516103f79190614d10565b60405180910390f35b61041a6004803603810190610415919061439f565b611490565b005b61043660048036038101906104319190614311565b61193a565b005b610452600480360381019061044d919061434d565b6119e6565b005b61045c611a80565b604051610469919061508c565b60405180910390f35b61048c60048036038101906104879190614181565b611a89565b6040516104999190614d10565b60405180910390f35b6104bc60048036038101906104b79190614479565b611b35565b6040516104c99190614fcc565b60405180910390f35b6104ec60048036038101906104e791906142ac565b611eaa565b6040516104f99190614fcc565b60405180910390f35b61051c600480360381019061051791906142ac565b611ec2565b60405161052a929190614d46565b60405180910390f35b61053b611f06565b6040516105489190614c0c565b60405180910390f35b61056b600480360381019061056691906140c6565b611f2c565b6040516105789190614fcc565b60405180910390f35b61059b600480360381019061059691906142ac565b611f51565b6040516105a89190614fcc565b60405180910390f35b6105b9611f94565b6040516105c69190614c0c565b60405180910390f35b6105e960048036038101906105e49190614311565b611fba565b005b610605600480360381019061060091906140c6565b612066565b6040516106129190614fcc565b60405180910390f35b61063560048036038101906106309190614012565b6120c1565b6040516106429190614fcc565b60405180910390f35b61066560048036038101906106609190614479565b612109565b6040516106729190614fcc565b60405180910390f35b610695600480360381019061069091906142ac565b6123a2565b6040516106a29190614fcc565b60405180910390f35b6106c560048036038101906106c091906142ac565b6123bf565b6040516106d29190614fcc565b60405180910390f35b6106f560048036038101906106f091906142ac565b6123d7565b6040516107029190614fcc565b60405180910390f35b6107256004803603810190610720919061420c565b6123ef565b005b610741600480360381019061073c91906142d5565b612755565b005b61075d600480360381019061075891906140c6565b6128a4565b60405161076a9190614fcc565b60405180910390f35b61078d60048036038101906107889190614102565b6128c9565b60405161079a9190614d10565b60405180910390f35b6107bd60048036038101906107b891906142ac565b6129aa565b6040516107ca9190614fcc565b60405180910390f35b6107db6129c7565b6040516107e89190614d8a565b60405180910390f35b61080b6004803603810190610806919061434d565b612a59565b6040516108189190614d2b565b60405180910390f35b61083b60048036038101906108369190614181565b612a7d565b6040516108489190614d10565b60405180910390f35b61086b60048036038101906108669190614181565b612b68565b6040516108789190614d10565b60405180910390f35b61089b600480360381019061089691906144b5565b612b86565b6040516108a9929190615063565b60405180910390f35b6108cc60048036038101906108c791906142ac565b612c46565b6040516108da929190614d46565b60405180910390f35b6108fd60048036038101906108f8919061403b565b612c8a565b60405161090a9190614fcc565b60405180910390f35b61092d600480360381019061092891906142d5565b612d11565b005b610949600480360381019061094491906140c6565b612e60565b604051610957929190615063565b60405180910390f35b61097a6004803603810190610975919061434d565b613081565b6040516109879190614d2b565b60405180910390f35b6109986130a5565b6040516109a59190614c0c565b60405180910390f35b6109b66130cb565b6040516109c39190614cee565b60405180910390f35b6109d46132be565b6040516109e19190614d6f565b60405180910390f35b610a0460048036038101906109ff91906142ac565b6132e4565b604051610a119190614fcc565b60405180910390f35b6000600960009054906101000a900473ffffffffffffffffffffffffffffffffffffffff1673ffffffffffffffffffffffffffffffffffffffff163373ffffffffffffffffffffffffffffffffffffffff1614610aac576040517f08c379a0000000000000000000000000000000000000000000000000000000008152600401610aa390614e6c565b60405180910390fd5b6000610ab88484611b35565b90506127108582612710610acc9190615179565b610ad69190615371565b610ae091906151cf565b9150509392505050565b606060038054610af9906154ee565b80601f0160208091040260200160405190810160405280929190818152602001828054610b25906154ee565b8015610b725780601f10610b4757610100808354040283529160200191610b72565b820191906000526020600020905b815481529060010190602001808311610b5557829003601f168201915b5050505050905090565b60146020528060005260406000206000915090505481565b6000610ba8610ba1613301565b8484613309565b6001905092915050565b60606000600d8054905067ffffffffffffffff811115610bfb577f4e487b7100000000000000000000000000000000000000000000000000000000600052604160045260246000fd5b604051908082528060200260200182016040528015610c3457816020015b610c21613f0e565b815260200190600190039081610c195790505b50905060005b600c80549050811015610d9d576040518060400160405280600b6000600d8581548110610c90577f4e487b7100000000000000000000000000000000000000000000000000000000600052603260045260246000fd5b90600052602060002001548152602001908152602001600020600001548152602001600b6000600d8581548110610cf0577f4e487b7100000000000000000000000000000000000000000000000000000000600052603260045260246000fd5b9060005260206000200154815260200190815260200160002060010160009054906101000a900473ffffffffffffffffffffffffffffffffffffffff1673ffffffffffffffffffffffffffffffffffffffff16815250828281518110610d7f577f4e487b7100000000000000000000000000000000000000000000000000000000600052603260045260246000fd5b60200260200101819052508080610d9590615551565b915050610c3a565b508091505090565b82600073ffffffffffffffffffffffffffffffffffffffff16600a600083815260200190815260200160002060010160009054906101000a900473ffffffffffffffffffffffffffffffffffffffff1673ffffffffffffffffffffffffffffffffffffffff161415610e4c576040517f08c379a0000000000000000000000000000000000000000000000000000000008152600401610e4390614fac565b60405180910390fd5b82600073ffffffffffffffffffffffffffffffffffffffff16600b600083815260200190815260200160002060010160009054906101000a900473ffffffffffffffffffffffffffffffffffffffff1673ffffffffffffffffffffffffffffffffffffffff161415610ef3576040517f08c379a0000000000000000000000000000000000000000000000000000000008152600401610eea90614e2c565b60405180910390fd5b6000600a600087815260200190815260200160002060010160009054906101000a900473ffffffffffffffffffffffffffffffffffffffff1673ffffffffffffffffffffffffffffffffffffffff1663dd62ed3e88306040518363ffffffff1660e01b8152600401610f66929190614c27565b60206040518083038186803b158015610f7e57600080fd5b505afa158015610f92573d6000803e3d6000fd5b505050506040513d601f19601f82011682018060405250810190610fb69190614376565b905087811015610ffb576040517f08c379a0000000000000000000000000000000000000000000000000000000008152600401610ff290614ecc565b60405180910390fd5b600a600087815260200190815260200160002060010160009054906101000a900473ffffffffffffffffffffffffffffffffffffffff1673ffffffffffffffffffffffffffffffffffffffff166323b872dd8830878c61105b9190615371565b6040518463ffffffff1660e01b815260040161107993929190614c8e565b602060405180830381600087803b15801561109357600080fd5b505af11580156110a7573d6000803e3d6000fd5b505050506040513d601f19601f820116820180604052508101906110cb9190614283565b50600b600086815260200190815260200160002060010160009054906101000a900473ffffffffffffffffffffffffffffffffffffffff1673ffffffffffffffffffffffffffffffffffffffff1663a9059cbb88868b61112b9190615371565b6040518363ffffffff1660e01b8152600401611148929190614cc5565b602060405180830381600087803b15801561116257600080fd5b505af1158015611176573d6000803e3d6000fd5b505050506040513d601f19601f8201168201806040525081019061119a9190614283565b50876013600088815260200190815260200160002060008282546111be9190615179565b9250508190555087601660008973ffffffffffffffffffffffffffffffffffffffff1673ffffffffffffffffffffffffffffffffffffffff168152602001908152602001600020600088815260200190815260200160002060008282546112259190615179565b925050819055507f7057e4110944b1fc1e9acefd0b0abea5a15e4a8795fb9663e8bfce5e304b328188888888604051611261949392919061501e565b60405180910390a15050505050505050565b6000600254905090565b6000600560009054906101000a900473ffffffffffffffffffffffffffffffffffffffff1673ffffffffffffffffffffffffffffffffffffffff1663ba3d69d7600660009054906101000a900473ffffffffffffffffffffffffffffffffffffffff16866112fd670de0b6b3a7640000886112f891906151cf565b6134d4565b8660405160200161130e9190614a86565b60405160208183030381529060405260405160200161132e929190614b90565b6040516020818303038152906040526040518463ffffffff1660e01b815260040161135b93929190614c50565b600060405180830381600087803b15801561137557600080fd5b505af1158015611389573d6000803e3d6000fd5b50505050600190509392505050565b60006113a5848484613681565b6000600160008673ffffffffffffffffffffffffffffffffffffffff1673ffffffffffffffffffffffffffffffffffffffff16815260200190815260200160002060006113f0613301565b73ffffffffffffffffffffffffffffffffffffffff1673ffffffffffffffffffffffffffffffffffffffff16815260200190815260200160002054905082811015611470576040517f08c379a000000000000000000000000000000000000000000000000000000000815260040161146790614eec565b60405180910390fd5b6114848561147c613301565b858403613309565b60019150509392505050565b81600073ffffffffffffffffffffffffffffffffffffffff16600a600083815260200190815260200160002060010160009054906101000a900473ffffffffffffffffffffffffffffffffffffffff1673ffffffffffffffffffffffffffffffffffffffff161415611537576040517f08c379a000000000000000000000000000000000000000000000000000000000815260040161152e90614fac565b60405180910390fd5b6000600b600084815260200190815260200160002060010160009054906101000a900473ffffffffffffffffffffffffffffffffffffffff1673ffffffffffffffffffffffffffffffffffffffff1663dd62ed3e86306040518363ffffffff1660e01b81526004016115aa929190614c27565b60206040518083038186803b1580156115c257600080fd5b505afa1580156115d6573d6000803e3d6000fd5b505050506040513d601f19601f820116820180604052508101906115fa9190614376565b90508581101561163f576040517f08c379a000000000000000000000000000000000000000000000000000000000815260040161163690614f4c565b60405180910390fd5b600b600084815260200190815260200160002060010160009054906101000a900473ffffffffffffffffffffffffffffffffffffffff1673ffffffffffffffffffffffffffffffffffffffff166323b872dd8630896040518463ffffffff1660e01b81526004016116b293929190614c8e565b602060405180830381600087803b1580156116cc57600080fd5b505af11580156116e0573d6000803e3d6000fd5b505050506040513d601f19601f820116820180604052508101906117049190614283565b5085601660008773ffffffffffffffffffffffffffffffffffffffff1673ffffffffffffffffffffffffffffffffffffffff1681526020019081526020016000206000868152602001908152602001600020541015611798576040517f08c379a000000000000000000000000000000000000000000000000000000000815260040161178f90614e8c565b60405180910390fd5b600a600085815260200190815260200160002060010160009054906101000a900473ffffffffffffffffffffffffffffffffffffffff1673ffffffffffffffffffffffffffffffffffffffff1663a9059cbb86886040518363ffffffff1660e01b8152600401611809929190614cc5565b602060405180830381600087803b15801561182357600080fd5b505af1158015611837573d6000803e3d6000fd5b505050506040513d601f19601f8201168201806040525081019061185b9190614283565b506118668585613902565b8560136000868152602001908152602001600020600082825461188991906153cb565b9250508190555085601660008773ffffffffffffffffffffffffffffffffffffffff1673ffffffffffffffffffffffffffffffffffffffff168152602001908152602001600020600086815260200190815260200160002060008282546118f091906153cb565b925050819055507f246236c6eaed201562b17153fd5d070b8b6fc49ccd3459a6c7282146317fb95286868660405161192a93929190614fe7565b60405180910390a1505050505050565b600960009054906101000a900473ffffffffffffffffffffffffffffffffffffffff1673ffffffffffffffffffffffffffffffffffffffff163373ffffffffffffffffffffffffffffffffffffffff16146119ca576040517f08c379a00000000000000000000000000000000000000000000000000000000081526004016119c190614e6c565b60405180910390fd5b80600f6000848152602001908152602001600020819055505050565b600960009054906101000a900473ffffffffffffffffffffffffffffffffffffffff1673ffffffffffffffffffffffffffffffffffffffff163373ffffffffffffffffffffffffffffffffffffffff1614611a76576040517f08c379a0000000000000000000000000000000000000000000000000000000008152600401611a6d90614e6c565b60405180910390fd5b8060108190555050565b60006012905090565b6000611b2b611a96613301565b848460016000611aa4613301565b73ffffffffffffffffffffffffffffffffffffffff1673ffffffffffffffffffffffffffffffffffffffff16815260200190815260200160002060008873ffffffffffffffffffffffffffffffffffffffff1673ffffffffffffffffffffffffffffffffffffffff16815260200190815260200160002054611b269190615179565b613309565b6001905092915050565b6000600960009054906101000a900473ffffffffffffffffffffffffffffffffffffffff1673ffffffffffffffffffffffffffffffffffffffff163373ffffffffffffffffffffffffffffffffffffffff1614611bc7576040517f08c379a0000000000000000000000000000000000000000000000000000000008152600401611bbe90614e6c565b60405180910390fd5b600073ffffffffffffffffffffffffffffffffffffffff16600a600084815260200190815260200160002060010160009054906101000a900473ffffffffffffffffffffffffffffffffffffffff1673ffffffffffffffffffffffffffffffffffffffff161415611c6d576040517f08c379a0000000000000000000000000000000000000000000000000000000008152600401611c6490614f6c565b60405180910390fd5b6000806014600e6000868152602001908152602001600020541015611c955760149050611cac565b600e60008581526020019081526020016000205490505b84600a600086815260200190815260200160002060010160009054906101000a900473ffffffffffffffffffffffffffffffffffffffff1673ffffffffffffffffffffffffffffffffffffffff166370a08231306040518263ffffffff1660e01b8152600401611d1c9190614c0c565b60206040518083038186803b158015611d3457600080fd5b505afa158015611d48573d6000803e3d6000fd5b505050506040513d601f19601f82011682018060405250810190611d6c9190614376565b611d7691906153cb565b915060136000858152602001908152602001600020548210611d9c578092505050611ea4565b60006002600f6000878152602001908152602001600020541015611dc35760029050611dda565b600f60008681526020019081526020016000205490505b6000601360008781526020019081526020016000205460105485601360008a815260200190815260200160002054611e1291906153cb565b611e1c9190615371565b611e2691906151cf565b90506000600283611e3791906153cb565b6103e8611e449190615253565b601054611e519190615371565b836010546103e885611e639190615371565b611e6d91906151cf565b6103e8611e7a9190615179565b611e849190615253565b85611e8f9190615371565b611e9991906151cf565b905080955050505050505b92915050565b60136020528060005260406000206000915090505481565b600b6020528060005260406000206000915090508060000154908060010160009054906101000a900473ffffffffffffffffffffffffffffffffffffffff16905082565b600560009054906101000a900473ffffffffffffffffffffffffffffffffffffffff1681565b6016602052816000526040600020602052806000526040600020600091509150505481565b60006014600e6000848152602001908152602001600020541015611f785760149050611f8f565b600e60008381526020019081526020016000205490505b919050565b600660009054906101000a900473ffffffffffffffffffffffffffffffffffffffff1681565b600960009054906101000a900473ffffffffffffffffffffffffffffffffffffffff1673ffffffffffffffffffffffffffffffffffffffff163373ffffffffffffffffffffffffffffffffffffffff161461204a576040517f08c379a000000000000000000000000000000000000000000000000000000000815260040161204190614e6c565b60405180910390fd5b80600e6000848152602001908152602001600020819055505050565b6000601660008473ffffffffffffffffffffffffffffffffffffffff1673ffffffffffffffffffffffffffffffffffffffff168152602001908152602001600020600083815260200190815260200160002054905092915050565b60008060008373ffffffffffffffffffffffffffffffffffffffff1673ffffffffffffffffffffffffffffffffffffffff168152602001908152602001600020549050919050565b6000600960009054906101000a900473ffffffffffffffffffffffffffffffffffffffff1673ffffffffffffffffffffffffffffffffffffffff163373ffffffffffffffffffffffffffffffffffffffff161461219b576040517f08c379a000000000000000000000000000000000000000000000000000000000815260040161219290614e6c565b60405180910390fd5b60008060008073ffffffffffffffffffffffffffffffffffffffff16600a600087815260200190815260200160002060010160009054906101000a900473ffffffffffffffffffffffffffffffffffffffff1673ffffffffffffffffffffffffffffffffffffffff161415612245576040517f08c379a000000000000000000000000000000000000000000000000000000000815260040161223c90614f6c565b60405180910390fd5b600a600086815260200190815260200160002060010160009054906101000a900473ffffffffffffffffffffffffffffffffffffffff1673ffffffffffffffffffffffffffffffffffffffff166370a08231306040518263ffffffff1660e01b81526004016122b49190614c0c565b60206040518083038186803b1580156122cc57600080fd5b505afa1580156122e0573d6000803e3d6000fd5b505050506040513d601f19601f820116820180604052508101906123049190614376565b925082601360008781526020019081526020016000205411156123955782601360008781526020019081526020016000205461234091906153cb565b915081861115612368576015600086815260200190815260200160002054935050505061239c565b816015600087815260200190815260200160002054876123889190615371565b61239291906151cf565b90505b8093505050505b92915050565b600060136000838152602001908152602001600020549050919050565b60156020528060005260406000206000915090505481565b600f6020528060005260406000206000915090505481565b82600073ffffffffffffffffffffffffffffffffffffffff16600a600083815260200190815260200160002060010160009054906101000a900473ffffffffffffffffffffffffffffffffffffffff1673ffffffffffffffffffffffffffffffffffffffff161415612496576040517f08c379a000000000000000000000000000000000000000000000000000000000815260040161248d90614fac565b60405180910390fd5b600960009054906101000a900473ffffffffffffffffffffffffffffffffffffffff1673ffffffffffffffffffffffffffffffffffffffff163373ffffffffffffffffffffffffffffffffffffffff1614612526576040517f08c379a000000000000000000000000000000000000000000000000000000000815260040161251d90614e6c565b60405180910390fd5b60006014600e600087815260200190815260200160002054101561254d5760149050612564565b600e60008681526020019081526020016000205490505b60006125708585612109565b9050600061257e8888611b35565b90506000838261258e91906153cb565b9050826015600088815260200190815260200160002060008282546125b391906153cb565b9250508190555061271089856125c99190615371565b6125d391906151cf565b601460008a815260200190815260200160002060008282546125f59190615179565b92505081905550612710898261260b9190615371565b61261591906151cf565b601560008a815260200190815260200160002060008282546126379190615179565b925050819055506126498a8a8a613acd565b50600a600089815260200190815260200160002060010160009054906101000a900473ffffffffffffffffffffffffffffffffffffffff1673ffffffffffffffffffffffffffffffffffffffff1663a9059cbb8b8b6040518363ffffffff1660e01b81526004016126bb929190614cc5565b602060405180830381600087803b1580156126d557600080fd5b505af11580156126e9573d6000803e3d6000fd5b505050506040513d601f19601f8201168201806040525081019061270d9190614283565b507f10d816247ce26817ec32a37ad18e09ddbe49fa88a1ed5c4fe05432123f55f112898b8a60405161274193929190614fe7565b60405180910390a150505050505050505050565b600960009054906101000a900473ffffffffffffffffffffffffffffffffffffffff1673ffffffffffffffffffffffffffffffffffffffff163373ffffffffffffffffffffffffffffffffffffffff16146127e5576040517f08c379a00000000000000000000000000000000000000000000000000000000081526004016127dc90614e6c565b60405180910390fd5b60405180604001604052808381526020018273ffffffffffffffffffffffffffffffffffffffff16815250600a60008481526020019081526020016000206000820151816000015560208201518160010160006101000a81548173ffffffffffffffffffffffffffffffffffffffff021916908373ffffffffffffffffffffffffffffffffffffffff160217905550905050600c8290806001815401808255809150506001900390600052602060002001600090919091909150555050565b6017602052816000526040600020602052806000526040600020600091509150505481565b6000600560009054906101000a900473ffffffffffffffffffffffffffffffffffffffff1673ffffffffffffffffffffffffffffffffffffffff1663ba3d69d7600660009054906101000a900473ffffffffffffffffffffffffffffffffffffffff16868686604051602001612940929190614aa1565b6040516020818303038152906040526040518463ffffffff1660e01b815260040161296d93929190614c50565b600060405180830381600087803b15801561298757600080fd5b505af115801561299b573d6000803e3d6000fd5b50505050600190509392505050565b600060156000838152602001908152602001600020549050919050565b6060600480546129d6906154ee565b80601f0160208091040260200160405190810160405280929190818152602001828054612a02906154ee565b8015612a4f5780601f10612a2457610100808354040283529160200191612a4f565b820191906000526020600020905b815481529060010190602001808311612a3257829003601f168201915b5050505050905090565b600d8181548110612a6957600080fd5b906000526020600020016000915090505481565b60008060016000612a8c613301565b73ffffffffffffffffffffffffffffffffffffffff1673ffffffffffffffffffffffffffffffffffffffff16815260200190815260200160002060008573ffffffffffffffffffffffffffffffffffffffff1673ffffffffffffffffffffffffffffffffffffffff16815260200190815260200160002054905082811015612b49576040517f08c379a0000000000000000000000000000000000000000000000000000000008152600401612b4090614f8c565b60405180910390fd5b612b5d612b54613301565b85858403613309565b600191505092915050565b6000612b7c612b75613301565b8484613681565b6001905092915050565b600080600960009054906101000a900473ffffffffffffffffffffffffffffffffffffffff1673ffffffffffffffffffffffffffffffffffffffff163373ffffffffffffffffffffffffffffffffffffffff1614612c19576040517f08c379a0000000000000000000000000000000000000000000000000000000008152600401612c1090614e6c565b60405180910390fd5b6000612c258787612109565b90506000612c338686611b35565b9050808293509350505094509492505050565b600a6020528060005260406000206000915090508060000154908060010160009054906101000a900473ffffffffffffffffffffffffffffffffffffffff16905082565b6000600160008473ffffffffffffffffffffffffffffffffffffffff1673ffffffffffffffffffffffffffffffffffffffff16815260200190815260200160002060008373ffffffffffffffffffffffffffffffffffffffff1673ffffffffffffffffffffffffffffffffffffffff16815260200190815260200160002054905092915050565b600960009054906101000a900473ffffffffffffffffffffffffffffffffffffffff1673ffffffffffffffffffffffffffffffffffffffff163373ffffffffffffffffffffffffffffffffffffffff1614612da1576040517f08c379a0000000000000000000000000000000000000000000000000000000008152600401612d9890614e6c565b60405180910390fd5b60405180604001604052808381526020018273ffffffffffffffffffffffffffffffffffffffff16815250600b60008481526020019081526020016000206000820151816000015560208201518160010160006101000a81548173ffffffffffffffffffffffffffffffffffffffff021916908373ffffffffffffffffffffffffffffffffffffffff160217905550905050600d8290806001815401808255809150506001900390600052602060002001600090919091909150555050565b60008082600073ffffffffffffffffffffffffffffffffffffffff16600a600083815260200190815260200160002060010160009054906101000a900473ffffffffffffffffffffffffffffffffffffffff1673ffffffffffffffffffffffffffffffffffffffff161415612f0a576040517f08c379a0000000000000000000000000000000000000000000000000000000008152600401612f0190614fac565b60405180910390fd5b6000601360008681526020019081526020016000205411612f60576040517f08c379a0000000000000000000000000000000000000000000000000000000008152600401612f5790614eac565b60405180910390fd5b600060136000868152602001908152602001600020546014600087815260200190815260200160002054601660008973ffffffffffffffffffffffffffffffffffffffff1673ffffffffffffffffffffffffffffffffffffffff168152602001908152602001600020600088815260200190815260200160002054612fe59190615371565b612fef91906151cf565b905060006013600087815260200190815260200160002054601254601660008a73ffffffffffffffffffffffffffffffffffffffff1673ffffffffffffffffffffffffffffffffffffffff1681526020019081526020016000206000898152602001908152602001600020546130659190615371565b61306f91906151cf565b90508181945094505050509250929050565b600c818154811061309157600080fd5b906000526020600020016000915090505481565b600960009054906101000a900473ffffffffffffffffffffffffffffffffffffffff1681565b60606000600c8054905067ffffffffffffffff811115613114577f4e487b7100000000000000000000000000000000000000000000000000000000600052604160045260246000fd5b60405190808252806020026020018201604052801561314d57816020015b61313a613f0e565b8152602001906001900390816131325790505b50905060005b600c805490508110156132b6576040518060400160405280600a6000600c85815481106131a9577f4e487b7100000000000000000000000000000000000000000000000000000000600052603260045260246000fd5b90600052602060002001548152602001908152602001600020600001548152602001600a6000600c8581548110613209577f4e487b7100000000000000000000000000000000000000000000000000000000600052603260045260246000fd5b9060005260206000200154815260200190815260200160002060010160009054906101000a900473ffffffffffffffffffffffffffffffffffffffff1673ffffffffffffffffffffffffffffffffffffffff16815250828281518110613298577f4e487b7100000000000000000000000000000000000000000000000000000000600052603260045260246000fd5b602002602001018190525080806132ae90615551565b915050613153565b508091505090565b600860009054906101000a900473ffffffffffffffffffffffffffffffffffffffff1681565b600060146000838152602001908152602001600020549050919050565b600033905090565b600073ffffffffffffffffffffffffffffffffffffffff168373ffffffffffffffffffffffffffffffffffffffff161415613379576040517f08c379a000000000000000000000000000000000000000000000000000000000815260040161337090614f2c565b60405180910390fd5b600073ffffffffffffffffffffffffffffffffffffffff168273ffffffffffffffffffffffffffffffffffffffff1614156133e9576040517f08c379a00000000000000000000000000000000000000000000000000000000081526004016133e090614dec565b60405180910390fd5b80600160008573ffffffffffffffffffffffffffffffffffffffff1673ffffffffffffffffffffffffffffffffffffffff16815260200190815260200160002060008473ffffffffffffffffffffffffffffffffffffffff1673ffffffffffffffffffffffffffffffffffffffff168152602001908152602001600020819055508173ffffffffffffffffffffffffffffffffffffffff168373ffffffffffffffffffffffffffffffffffffffff167f8c5be1e5ebec7d5bd14f71427d1e84f3dd0314c0f7b2291e5b200ac8c7c3b925836040516134c79190614fcc565b60405180910390a3505050565b6060600082141561351c576040518060400160405280600181526020017f3000000000000000000000000000000000000000000000000000000000000000815250905061367c565b600082905060005b6000821461354e57808061353790615551565b915050600a8261354791906151cf565b9150613524565b60008167ffffffffffffffff811115613590577f4e487b7100000000000000000000000000000000000000000000000000000000600052604160045260246000fd5b6040519080825280601f01601f1916602001820160405280156135c25781602001600182028036833780820191505090505b5090505b60008514613675576001826135db91906153cb565b9150600a856135ea91906155a4565b60306135f69190615179565b60f81b818381518110613632577f4e487b7100000000000000000000000000000000000000000000000000000000600052603260045260246000fd5b60200101907effffffffffffffffffffffffffffffffffffffffffffffffffffffffffffff1916908160001a905350600a8561366e91906151cf565b94506135c6565b8093505050505b919050565b600073ffffffffffffffffffffffffffffffffffffffff168373ffffffffffffffffffffffffffffffffffffffff1614156136f1576040517f08c379a00000000000000000000000000000000000000000000000000000000081526004016136e890614f0c565b60405180910390fd5b600073ffffffffffffffffffffffffffffffffffffffff168273ffffffffffffffffffffffffffffffffffffffff161415613761576040517f08c379a000000000000000000000000000000000000000000000000000000000815260040161375890614dcc565b60405180910390fd5b61376c838383613c0a565b60008060008573ffffffffffffffffffffffffffffffffffffffff1673ffffffffffffffffffffffffffffffffffffffff168152602001908152602001600020549050818110156137f2576040517f08c379a00000000000000000000000000000000000000000000000000000000081526004016137e990614e4c565b60405180910390fd5b8181036000808673ffffffffffffffffffffffffffffffffffffffff1673ffffffffffffffffffffffffffffffffffffffff16815260200190815260200160002081905550816000808573ffffffffffffffffffffffffffffffffffffffff1673ffffffffffffffffffffffffffffffffffffffff16815260200190815260200160002060008282546138859190615179565b925050819055508273ffffffffffffffffffffffffffffffffffffffff168473ffffffffffffffffffffffffffffffffffffffff167fddf252ad1be2c89b69c2b068fc378daa952ba7f163c4a11628f55a4df523b3ef846040516138e99190614fcc565b60405180910390a36138fc848484613c0f565b50505050565b80600073ffffffffffffffffffffffffffffffffffffffff16600a600083815260200190815260200160002060010160009054906101000a900473ffffffffffffffffffffffffffffffffffffffff1673ffffffffffffffffffffffffffffffffffffffff1614156139a9576040517f08c379a00000000000000000000000000000000000000000000000000000000081526004016139a090614fac565b60405180910390fd5b6000806139b68585612e60565b80925081935050506000821015613a02576040517f08c379a00000000000000000000000000000000000000000000000000000000081526004016139f990614e0c565b60405180910390fd5b600a600085815260200190815260200160002060010160009054906101000a900473ffffffffffffffffffffffffffffffffffffffff1673ffffffffffffffffffffffffffffffffffffffff1663a9059cbb86846040518363ffffffff1660e01b8152600401613a73929190614cc5565b602060405180830381600087803b158015613a8d57600080fd5b505af1158015613aa1573d6000803e3d6000fd5b505050506040513d601f19601f82011682018060405250810190613ac59190614283565b505050505050565b6000600560009054906101000a900473ffffffffffffffffffffffffffffffffffffffff1673ffffffffffffffffffffffffffffffffffffffff1663ba3d69d7600660009054906101000a900473ffffffffffffffffffffffffffffffffffffffff1686613b4d670de0b6b3a764000088613b4891906151cf565b6134d4565b86604051602001613b5e9190614a86565b604051602081830303815290604052613b8e8a73ffffffffffffffffffffffffffffffffffffffff166014613c14565b604051602001613ba093929190614afc565b6040516020818303038152906040526040518463ffffffff1660e01b8152600401613bcd93929190614c50565b600060405180830381600087803b158015613be757600080fd5b505af1158015613bfb573d6000803e3d6000fd5b50505050600190509392505050565b505050565b505050565b606060006002836002613c279190615371565b613c319190615179565b67ffffffffffffffff811115613c70577f4e487b7100000000000000000000000000000000000000000000000000000000600052604160045260246000fd5b6040519080825280601f01601f191660200182016040528015613ca25781602001600182028036833780820191505090505b5090507f300000000000000000000000000000000000000000000000000000000000000081600081518110613d00577f4e487b7100000000000000000000000000000000000000000000000000000000600052603260045260246000fd5b60200101907effffffffffffffffffffffffffffffffffffffffffffffffffffffffffffff1916908160001a9053507f780000000000000000000000000000000000000000000000000000000000000081600181518110613d8a577f4e487b7100000000000000000000000000000000000000000000000000000000600052603260045260246000fd5b60200101907effffffffffffffffffffffffffffffffffffffffffffffffffffffffffffff1916908160001a90535060006001846002613dca9190615371565b613dd49190615179565b90505b6001811115613ec0577f3031323334353637383961626364656600000000000000000000000000000000600f861660108110613e3c577f4e487b7100000000000000000000000000000000000000000000000000000000600052603260045260246000fd5b1a60f81b828281518110613e79577f4e487b7100000000000000000000000000000000000000000000000000000000600052603260045260246000fd5b60200101907effffffffffffffffffffffffffffffffffffffffffffffffffffffffffffff1916908160001a905350600485901c945080613eb9906154c4565b9050613dd7565b5060008414613f04576040517f08c379a0000000000000000000000000000000000000000000000000000000008152600401613efb90614dac565b60405180910390fd5b8091505092915050565b604051806040016040528060008019168152602001600073ffffffffffffffffffffffffffffffffffffffff1681525090565b6000613f54613f4f846150cc565b6150a7565b905082815260208101848484011115613f6c57600080fd5b613f77848285615482565b509392505050565b600081359050613f8e81615c29565b92915050565b600081519050613fa381615c40565b92915050565b600081359050613fb881615c57565b92915050565b600082601f830112613fcf57600080fd5b8135613fdf848260208601613f41565b91505092915050565b600081359050613ff781615c6e565b92915050565b60008151905061400c81615c6e565b92915050565b60006020828403121561402457600080fd5b600061403284828501613f7f565b91505092915050565b6000806040838503121561404e57600080fd5b600061405c85828601613f7f565b925050602061406d85828601613f7f565b9150509250929050565b60008060006060848603121561408c57600080fd5b600061409a86828701613f7f565b93505060206140ab86828701613f7f565b92505060406140bc86828701613fe8565b9150509250925092565b600080604083850312156140d957600080fd5b60006140e785828601613f7f565b92505060206140f885828601613fa9565b9150509250929050565b60008060006060848603121561411757600080fd5b600061412586828701613f7f565b935050602084013567ffffffffffffffff81111561414257600080fd5b61414e86828701613fbe565b925050604084013567ffffffffffffffff81111561416b57600080fd5b61417786828701613fbe565b9150509250925092565b6000806040838503121561419457600080fd5b60006141a285828601613f7f565b92505060206141b385828601613fe8565b9150509250929050565b6000806000606084860312156141d257600080fd5b60006141e086828701613f7f565b93505060206141f186828701613fe8565b925050604061420286828701613fa9565b9150509250925092565b600080600080600060a0868803121561422457600080fd5b600061423288828901613f7f565b955050602061424388828901613fe8565b945050604061425488828901613fa9565b935050606061426588828901613fe8565b925050608061427688828901613fa9565b9150509295509295909350565b60006020828403121561429557600080fd5b60006142a384828501613f94565b91505092915050565b6000602082840312156142be57600080fd5b60006142cc84828501613fa9565b91505092915050565b600080604083850312156142e857600080fd5b60006142f685828601613fa9565b925050602061430785828601613f7f565b9150509250929050565b6000806040838503121561432457600080fd5b600061433285828601613fa9565b925050602061434385828601613fe8565b9150509250929050565b60006020828403121561435f57600080fd5b600061436d84828501613fe8565b91505092915050565b60006020828403121561438857600080fd5b600061439684828501613ffd565b91505092915050565b600080600080608085870312156143b557600080fd5b60006143c387828801613fe8565b94505060206143d487828801613f7f565b93505060406143e587828801613fa9565b92505060606143f687828801613fa9565b91505092959194509250565b600080600080600060a0868803121561441a57600080fd5b600061442888828901613fe8565b955050602061443988828901613f7f565b945050604061444a88828901613fa9565b935050606061445b88828901613fa9565b925050608061446c88828901613fe8565b9150509295509295909350565b6000806040838503121561448c57600080fd5b600061449a85828601613fe8565b92505060206144ab85828601613fa9565b9150509250929050565b600080600080608085870312156144cb57600080fd5b60006144d987828801613fe8565b94505060206144ea87828801613fa9565b93505060406144fb87828801613fe8565b925050606061450c87828801613fa9565b91505092959194509250565b60008060006060848603121561452d57600080fd5b600061453b86828701613fe8565b935050602061454c86828701613fe8565b925050604061455d86828701613fa9565b9150509250925092565b60006145738383614a39565b60408301905092915050565b614588816153ff565b82525050565b614597816153ff565b82525050565b60006145a88261510d565b6145b2818561513b565b93506145bd836150fd565b8060005b838110156145ee5781516145d58882614567565b97506145e08361512e565b9250506001810190506145c1565b5085935050505092915050565b61460481615411565b82525050565b6146138161541d565b82525050565b6146228161541d565b82525050565b6146396146348261541d565b61559a565b82525050565b600061464a82615118565b614654818561514c565b9350614664818560208601615491565b61466d81615691565b840191505092915050565b6146818161545e565b82525050565b600061469282615123565b61469c818561515d565b93506146ac818560208601615491565b6146b581615691565b840191505092915050565b60006146cb82615123565b6146d5818561516e565b93506146e5818560208601615491565b80840191505092915050565b60006146fe60018361516e565b9150614709826156af565b600182019050919050565b600061472160208361515d565b915061472c826156d8565b602082019050919050565b600061474460238361515d565b915061474f82615701565b604082019050919050565b600061476760198361516e565b915061477282615750565b601982019050919050565b600061478a60228361515d565b915061479582615779565b604082019050919050565b60006147ad60148361516e565b91506147b8826157c8565b601482019050919050565b60006147d060348361515d565b91506147db826157f1565b604082019050919050565b60006147f360018361516e565b91506147fe82615840565b600182019050919050565b600061481660178361515d565b915061482182615869565b602082019050919050565b600061483960268361515d565b915061484482615892565b604082019050919050565b600061485c600a8361515d565b9150614867826158e1565b602082019050919050565b600061487f60028361516e565b915061488a8261590a565b600282019050919050565b60006148a260128361516e565b91506148ad82615933565b601282019050919050565b60006148c5603b8361515d565b91506148d08261595c565b604082019050919050565b60006148e860018361516e565b91506148f3826159ab565b600182019050919050565b600061490b601a8361515d565b9150614916826159d4565b602082019050919050565b600061492e60278361515d565b9150614939826159fd565b604082019050919050565b600061495160288361515d565b915061495c82615a4c565b604082019050919050565b600061497460258361515d565b915061497f82615a9b565b604082019050919050565b600061499760248361515d565b91506149a282615aea565b604082019050919050565b60006149ba60318361515d565b91506149c582615b39565b604082019050919050565b60006149dd60148361515d565b91506149e882615b88565b602082019050919050565b6000614a0060258361515d565b9150614a0b82615bb1565b604082019050919050565b6000614a2360198361515d565b9150614a2e82615c00565b602082019050919050565b604082016000820151614a4f600085018261460a565b506020820151614a62602085018261457f565b50505050565b614a7181615447565b82525050565b614a8081615451565b82525050565b6000614a928284614628565b60208201915081905092915050565b6000614aac826146f1565b9150614ab7826148db565b9150614ac2826147e6565b9150614acd826148db565b9150614ad982856146c0565b9150614ae4826148db565b9150614af082846146c0565b91508190509392505050565b6000614b07826146f1565b9150614b12826148db565b9150614b1d826147e6565b9150614b28826148db565b9150614b33826147a0565b9150614b3e826148db565b9150614b4a82866146c0565b9150614b5582614872565b9150614b6182856146c0565b9150614b6c82614872565b9150614b778261475a565b9150614b8382846146c0565b9150819050949350505050565b6000614b9b826146f1565b9150614ba6826148db565b9150614bb1826147e6565b9150614bbc826148db565b9150614bc7826147a0565b9150614bd2826148db565b9150614bde82856146c0565b9150614be982614872565b9150614bf582846146c0565b9150614c0082614895565b91508190509392505050565b6000602082019050614c21600083018461458e565b92915050565b6000604082019050614c3c600083018561458e565b614c49602083018461458e565b9392505050565b6000606082019050614c65600083018661458e565b614c72602083018561458e565b8181036040830152614c84818461463f565b9050949350505050565b6000606082019050614ca3600083018661458e565b614cb0602083018561458e565b614cbd6040830184614a68565b949350505050565b6000604082019050614cda600083018561458e565b614ce76020830184614a68565b9392505050565b60006020820190508181036000830152614d08818461459d565b905092915050565b6000602082019050614d2560008301846145fb565b92915050565b6000602082019050614d406000830184614619565b92915050565b6000604082019050614d5b6000830185614619565b614d68602083018461458e565b9392505050565b6000602082019050614d846000830184614678565b92915050565b60006020820190508181036000830152614da48184614687565b905092915050565b60006020820190508181036000830152614dc581614714565b9050919050565b60006020820190508181036000830152614de581614737565b9050919050565b60006020820190508181036000830152614e058161477d565b9050919050565b60006020820190508181036000830152614e25816147c3565b9050919050565b60006020820190508181036000830152614e4581614809565b9050919050565b60006020820190508181036000830152614e658161482c565b9050919050565b60006020820190508181036000830152614e858161484f565b9050919050565b60006020820190508181036000830152614ea5816148b8565b9050919050565b60006020820190508181036000830152614ec5816148fe565b9050919050565b60006020820190508181036000830152614ee581614921565b9050919050565b60006020820190508181036000830152614f0581614944565b9050919050565b60006020820190508181036000830152614f2581614967565b9050919050565b60006020820190508181036000830152614f458161498a565b9050919050565b60006020820190508181036000830152614f65816149ad565b9050919050565b60006020820190508181036000830152614f85816149d0565b9050919050565b60006020820190508181036000830152614fa5816149f3565b9050919050565b60006020820190508181036000830152614fc581614a16565b9050919050565b6000602082019050614fe16000830184614a68565b92915050565b6000606082019050614ffc6000830186614a68565b615009602083018561458e565b6150166040830184614619565b949350505050565b60006080820190506150336000830187614a68565b615040602083018661458e565b61504d6040830185614619565b61505a6060830184614619565b95945050505050565b60006040820190506150786000830185614a68565b6150856020830184614a68565b9392505050565b60006020820190506150a16000830184614a77565b92915050565b60006150b16150c2565b90506150bd8282615520565b919050565b6000604051905090565b600067ffffffffffffffff8211156150e7576150e6615662565b5b6150f082615691565b9050602081019050919050565b6000819050602082019050919050565b600081519050919050565b600081519050919050565b600081519050919050565b6000602082019050919050565b600082825260208201905092915050565b600082825260208201905092915050565b600082825260208201905092915050565b600081905092915050565b600061518482615447565b915061518f83615447565b9250827fffffffffffffffffffffffffffffffffffffffffffffffffffffffffffffffff038211156151c4576151c36155d5565b5b828201905092915050565b60006151da82615447565b91506151e583615447565b9250826151f5576151f4615604565b5b828204905092915050565b6000808291508390505b600185111561524a57808604811115615226576152256155d5565b5b60018516156152355780820291505b8081029050615243856156a2565b945061520a565b94509492505050565b600061525e82615447565b915061526983615447565b92506152967fffffffffffffffffffffffffffffffffffffffffffffffffffffffffffffffff848461529e565b905092915050565b6000826152ae576001905061536a565b816152bc576000905061536a565b81600181146152d257600281146152dc5761530b565b600191505061536a565b60ff8411156152ee576152ed6155d5565b5b8360020a915084821115615305576153046155d5565b5b5061536a565b5060208310610133831016604e8410600b84101617156153405782820a90508381111561533b5761533a6155d5565b5b61536a565b61534d8484846001615200565b92509050818404811115615364576153636155d5565b5b81810290505b9392505050565b600061537c82615447565b915061538783615447565b9250817fffffffffffffffffffffffffffffffffffffffffffffffffffffffffffffffff04831182151516156153c0576153bf6155d5565b5b828202905092915050565b60006153d682615447565b91506153e183615447565b9250828210156153f4576153f36155d5565b5b828203905092915050565b600061540a82615427565b9050919050565b60008115159050919050565b6000819050919050565b600073ffffffffffffffffffffffffffffffffffffffff82169050919050565b6000819050919050565b600060ff82169050919050565b600061546982615470565b9050919050565b600061547b82615427565b9050919050565b82818337600083830152505050565b60005b838110156154af578082015181840152602081019050615494565b838111156154be576000848401525b50505050565b60006154cf82615447565b915060008214156154e3576154e26155d5565b5b600182039050919050565b6000600282049050600182168061550657607f821691505b6020821081141561551a57615519615633565b5b50919050565b61552982615691565b810181811067ffffffffffffffff8211171561554857615547615662565b5b80604052505050565b600061555c82615447565b91507fffffffffffffffffffffffffffffffffffffffffffffffffffffffffffffffff82141561558f5761558e6155d5565b5b600182019050919050565b6000819050919050565b60006155af82615447565b91506155ba83615447565b9250826155ca576155c9615604565b5b828206905092915050565b7f4e487b7100000000000000000000000000000000000000000000000000000000600052601160045260246000fd5b7f4e487b7100000000000000000000000000000000000000000000000000000000600052601260045260246000fd5b7f4e487b7100000000000000000000000000000000000000000000000000000000600052602260045260246000fd5b7f4e487b7100000000000000000000000000000000000000000000000000000000600052604160045260246000fd5b6000601f19601f8301169050919050565b60008160011c9050919050565b7f3000000000000000000000000000000000000000000000000000000000000000600082015250565b7f537472696e67733a20686578206c656e67746820696e73756666696369656e74600082015250565b7f45524332303a207472616e7366657220746f20746865207a65726f206164647260008201527f6573730000000000000000000000000000000000000000000000000000000000602082015250565b7f637265646974656420746f20796f75722077616c6c65743a2000000000000000600082015250565b7f45524332303a20617070726f766520746f20746865207a65726f20616464726560008201527f7373000000000000000000000000000000000000000000000000000000000000602082015250565b7f5061796d656e7420436f6e6669726d6174696f6e000000000000000000000000600082015250565b7f72657761726420616d6f756e7420697320746f6f206c6f7720746f207769746860008201527f647261772061742074686973206d6f6d656d6e74000000000000000000000000602082015250565b7f3300000000000000000000000000000000000000000000000000000000000000600082015250565b7f4c5020746f6b656e20646f6573206e6f74206578697374000000000000000000600082015250565b7f45524332303a207472616e7366657220616d6f756e742065786365656473206260008201527f616c616e63650000000000000000000000000000000000000000000000000000602082015250565b7f6f6e6c792061646d696e00000000000000000000000000000000000000000000600082015250565b7f2020000000000000000000000000000000000000000000000000000000000000600082015250565b7f20686173206265656e2072656365697665640000000000000000000000000000600082015250565b7f5769746864726177616c20616d6f756e7420726571756573746564206973206d60008201527f6f7265207468616e20737570706c696564206c69717569646974790000000000602082015250565b7f2b00000000000000000000000000000000000000000000000000000000000000600082015250565b7f737570706c696564206c6971756964697479206973207a65726f000000000000600082015250565b7f616d6f756e742069732067726561746572207468616e20616c6c6f77616e636560008201527f20616d6f756e7400000000000000000000000000000000000000000000000000602082015250565b7f45524332303a207472616e7366657220616d6f756e742065786365656473206160008201527f6c6c6f77616e6365000000000000000000000000000000000000000000000000602082015250565b7f45524332303a207472616e736665722066726f6d20746865207a65726f20616460008201527f6472657373000000000000000000000000000000000000000000000000000000602082015250565b7f45524332303a20617070726f76652066726f6d20746865207a65726f2061646460008201527f7265737300000000000000000000000000000000000000000000000000000000602082015250565b7f77697468647261776c20616d6f756e742069732067726561746572207468616e60008201527f20616c6c6f77616e636520616d6f756e74000000000000000000000000000000602082015250565b7f746f6b656e20646f6573206e6f74206578697374000000000000000000000000600082015250565b7f45524332303a2064656372656173656420616c6c6f77616e63652062656c6f7760008201527f207a65726f000000000000000000000000000000000000000000000000000000602082015250565b7f6669617420746f6b656e20646f6573206e6f7420657869737400000000000000600082015250565b615c32816153ff565b8114615c3d57600080fd5b50565b615c4981615411565b8114615c5457600080fd5b50565b615c608161541d565b8114615c6b57600080fd5b50565b615c7781615447565b8114615c8257600080fd5b5056fea264697066735822122035c8ce894931efd349b7975375574fe13b8593698d004eb2dd3cb701ff0ac7f464736f6c63430008040033",
  "linkReferences": {},
  "deployedLinkReferences": {}
}