{
  "_format": "hh-sol-artifact-1",
  "contractName": "RapidProtocol",
  "sourceName": "contracts/RapidProtocol.sol",
  "abi": [
    {
      "inputs": [
        {
          "internalType": "string",
          "name": "name",
          "type": "string"
        },
        {
          "internalType": "string",
          "name": "symbol",
          "type": "string"
        }
      ],
      "stateMutability": "nonpayable",
      "type": "constructor"
    },
    {
      "anonymous": false,
      "inputs": [
        {
          "indexed": false,
          "internalType": "uint256",
          "name": "amount",
          "type": "uint256"
        },
        {
          "indexed": false,
          "internalType": "address",
          "name": "to",
          "type": "address"
        },
        {
          "indexed": false,
          "internalType": "bytes32",
          "name": "fiatSymbol",
          "type": "bytes32"
        },
        {
          "indexed": false,
          "internalType": "bytes32",
          "name": "lpSymbol",
          "type": "bytes32"
        }
      ],
      "name": "AddLiquidity",
      "type": "event"
    },
    {
      "anonymous": false,
      "inputs": [
        {
          "indexed": true,
          "internalType": "address",
          "name": "owner",
          "type": "address"
        },
        {
          "indexed": true,
          "internalType": "address",
          "name": "spender",
          "type": "address"
        },
        {
          "indexed": false,
          "internalType": "uint256",
          "name": "value",
          "type": "uint256"
        }
      ],
      "name": "Approval",
      "type": "event"
    },
    {
      "anonymous": false,
      "inputs": [
        {
          "indexed": true,
          "internalType": "address",
          "name": "from",
          "type": "address"
        },
        {
          "indexed": true,
          "internalType": "address",
          "name": "to",
          "type": "address"
        },
        {
          "indexed": false,
          "internalType": "uint256",
          "name": "value",
          "type": "uint256"
        }
      ],
      "name": "Transfer",
      "type": "event"
    },
    {
      "anonymous": false,
      "inputs": [
        {
          "indexed": false,
          "internalType": "uint256",
          "name": "amount",
          "type": "uint256"
        },
        {
          "indexed": false,
          "internalType": "address",
          "name": "to",
          "type": "address"
        },
        {
          "indexed": false,
          "internalType": "bytes32",
          "name": "destinationFiatSymbol",
          "type": "bytes32"
        }
      ],
      "name": "TransferFiat",
      "type": "event"
    },
    {
      "anonymous": false,
      "inputs": [
        {
          "indexed": false,
          "internalType": "uint256",
          "name": "amount",
          "type": "uint256"
        },
        {
          "indexed": false,
          "internalType": "address",
          "name": "to",
          "type": "address"
        },
        {
          "indexed": false,
          "internalType": "bytes32",
          "name": "fiatSymbol",
          "type": "bytes32"
        }
      ],
      "name": "WithdrawLiquidity",
      "type": "event"
    },
    {
      "inputs": [
        {
          "internalType": "bytes32",
          "name": "symbol",
          "type": "bytes32"
        },
        {
          "internalType": "address",
          "name": "tokenAddress",
          "type": "address"
        }
      ],
      "name": "addFiatToken",
      "outputs": [],
      "stateMutability": "nonpayable",
      "type": "function"
    },
    {
      "inputs": [
        {
          "internalType": "bytes32",
          "name": "symbol",
          "type": "bytes32"
        },
        {
          "internalType": "address",
          "name": "tokenAddress",
          "type": "address"
        }
      ],
      "name": "addLPToken",
      "outputs": [],
      "stateMutability": "nonpayable",
      "type": "function"
    },
    {
      "inputs": [
        {
          "internalType": "uint256",
          "name": "amount",
          "type": "uint256"
        },
        {
          "internalType": "address",
          "name": "to",
          "type": "address"
        },
        {
          "internalType": "bytes32",
          "name": "fiatSymbol",
          "type": "bytes32"
        },
        {
          "internalType": "bytes32",
          "name": "lpSymbol",
          "type": "bytes32"
        },
        {
          "internalType": "uint256",
          "name": "ratio",
          "type": "uint256"
        }
      ],
      "name": "addLiquidity",
      "outputs": [],
      "stateMutability": "nonpayable",
      "type": "function"
    },
    {
      "inputs": [],
      "name": "admin",
      "outputs": [
        {
          "internalType": "address",
          "name": "",
          "type": "address"
        }
      ],
      "stateMutability": "view",
      "type": "function"
    },
    {
      "inputs": [
        {
          "internalType": "address",
          "name": "owner",
          "type": "address"
        },
        {
          "internalType": "address",
          "name": "spender",
          "type": "address"
        }
      ],
      "name": "allowance",
      "outputs": [
        {
          "internalType": "uint256",
          "name": "",
          "type": "uint256"
        }
      ],
      "stateMutability": "view",
      "type": "function"
    },
    {
      "inputs": [
        {
          "internalType": "address",
          "name": "spender",
          "type": "address"
        },
        {
          "internalType": "uint256",
          "name": "amount",
          "type": "uint256"
        }
      ],
      "name": "approve",
      "outputs": [
        {
          "internalType": "bool",
          "name": "",
          "type": "bool"
        }
      ],
      "stateMutability": "nonpayable",
      "type": "function"
    },
    {
      "inputs": [
        {
          "internalType": "address",
          "name": "account",
          "type": "address"
        }
      ],
      "name": "balanceOf",
      "outputs": [
        {
          "internalType": "uint256",
          "name": "",
          "type": "uint256"
        }
      ],
      "stateMutability": "view",
      "type": "function"
    },
    {
      "inputs": [
        {
          "internalType": "uint256",
          "name": "destinationAmount",
          "type": "uint256"
        },
        {
          "internalType": "bytes32",
          "name": "destinationSymbol",
          "type": "bytes32"
        }
      ],
      "name": "calculateFee",
      "outputs": [
        {
          "internalType": "uint256",
          "name": "totalFee",
          "type": "uint256"
        }
      ],
      "stateMutability": "view",
      "type": "function"
    },
    {
      "inputs": [
        {
          "internalType": "uint256",
          "name": "sourceAmount",
          "type": "uint256"
        },
        {
          "internalType": "bytes32",
          "name": "sourceSymbol",
          "type": "bytes32"
        },
        {
          "internalType": "uint256",
          "name": "destinationAmount",
          "type": "uint256"
        },
        {
          "internalType": "bytes32",
          "name": "destinationSymbol",
          "type": "bytes32"
        }
      ],
      "name": "calculateFeeAndCashback",
      "outputs": [
        {
          "internalType": "uint256",
          "name": "totalFee",
          "type": "uint256"
        },
        {
          "internalType": "uint256",
          "name": "cashback",
          "type": "uint256"
        }
      ],
      "stateMutability": "view",
      "type": "function"
    },
    {
      "inputs": [
        {
          "internalType": "uint256",
          "name": "sourceAmount",
          "type": "uint256"
        },
        {
          "internalType": "uint256",
          "name": "destinationAmount",
          "type": "uint256"
        },
        {
          "internalType": "bytes32",
          "name": "destinationSymbol",
          "type": "bytes32"
        }
      ],
      "name": "calculateFeeInAmount",
      "outputs": [
        {
          "internalType": "uint256",
          "name": "totalFeeAmount",
          "type": "uint256"
        }
      ],
      "stateMutability": "view",
      "type": "function"
    },
    {
      "inputs": [
        {
          "internalType": "uint256",
          "name": "sourceAmount",
          "type": "uint256"
        },
        {
          "internalType": "bytes32",
          "name": "sourceSymbol",
          "type": "bytes32"
        }
      ],
      "name": "cashbackIPFees",
      "outputs": [
        {
          "internalType": "uint256",
          "name": "cashback",
          "type": "uint256"
        }
      ],
      "stateMutability": "view",
      "type": "function"
    },
    {
      "inputs": [],
      "name": "decimals",
      "outputs": [
        {
          "internalType": "uint8",
          "name": "",
          "type": "uint8"
        }
      ],
      "stateMutability": "view",
      "type": "function"
    },
    {
      "inputs": [
        {
          "internalType": "address",
          "name": "spender",
          "type": "address"
        },
        {
          "internalType": "uint256",
          "name": "subtractedValue",
          "type": "uint256"
        }
      ],
      "name": "decreaseAllowance",
      "outputs": [
        {
          "internalType": "bool",
          "name": "",
          "type": "bool"
        }
      ],
      "stateMutability": "nonpayable",
      "type": "function"
    },
    {
      "inputs": [
        {
          "internalType": "uint256",
          "name": "",
          "type": "uint256"
        }
      ],
      "name": "fiatTokenList",
      "outputs": [
        {
          "internalType": "bytes32",
          "name": "",
          "type": "bytes32"
        }
      ],
      "stateMutability": "view",
      "type": "function"
    },
    {
      "inputs": [
        {
          "internalType": "bytes32",
          "name": "",
          "type": "bytes32"
        }
      ],
      "name": "fiatTokens",
      "outputs": [
        {
          "internalType": "bytes32",
          "name": "symbol",
          "type": "bytes32"
        },
        {
          "internalType": "address",
          "name": "tokenAddress",
          "type": "address"
        }
      ],
      "stateMutability": "view",
      "type": "function"
    },
    {
      "inputs": [
        {
          "internalType": "bytes32",
          "name": "fiatSymbol",
          "type": "bytes32"
        }
      ],
      "name": "getEquilibriumFee",
      "outputs": [
        {
          "internalType": "uint256",
          "name": "fee",
          "type": "uint256"
        }
      ],
      "stateMutability": "view",
      "type": "function"
    },
    {
      "inputs": [],
      "name": "getFiatTokens",
      "outputs": [
        {
          "components": [
            {
              "internalType": "bytes32",
              "name": "symbol",
              "type": "bytes32"
            },
            {
              "internalType": "address",
              "name": "tokenAddress",
              "type": "address"
            }
          ],
          "internalType": "struct RapidProtocol.Token[]",
          "name": "",
          "type": "tuple[]"
        }
      ],
      "stateMutability": "view",
      "type": "function"
    },
    {
      "inputs": [
        {
          "internalType": "bytes32",
          "name": "symbol",
          "type": "bytes32"
        }
      ],
      "name": "getIPFee",
      "outputs": [
        {
          "internalType": "uint256",
          "name": "val",
          "type": "uint256"
        }
      ],
      "stateMutability": "view",
      "type": "function"
    },
    {
      "inputs": [
        {
          "internalType": "bytes32",
          "name": "symbol",
          "type": "bytes32"
        }
      ],
      "name": "getLPFee",
      "outputs": [
        {
          "internalType": "uint256",
          "name": "val",
          "type": "uint256"
        }
      ],
      "stateMutability": "view",
      "type": "function"
    },
    {
      "inputs": [],
      "name": "getLPTokens",
      "outputs": [
        {
          "components": [
            {
              "internalType": "bytes32",
              "name": "symbol",
              "type": "bytes32"
            },
            {
              "internalType": "address",
              "name": "tokenAddress",
              "type": "address"
            }
          ],
          "internalType": "struct RapidProtocol.Token[]",
          "name": "",
          "type": "tuple[]"
        }
      ],
      "stateMutability": "view",
      "type": "function"
    },
    {
      "inputs": [
        {
          "internalType": "address",
          "name": "user",
          "type": "address"
        },
        {
          "internalType": "bytes32",
          "name": "symbol",
          "type": "bytes32"
        }
      ],
      "name": "getLiquidity",
      "outputs": [
        {
          "internalType": "uint256",
          "name": "count",
          "type": "uint256"
        }
      ],
      "stateMutability": "view",
      "type": "function"
    },
    {
      "inputs": [
        {
          "internalType": "address",
          "name": "to",
          "type": "address"
        },
        {
          "internalType": "bytes32",
          "name": "fiatSymbol",
          "type": "bytes32"
        }
      ],
      "name": "getLiquidityFeeAccruced",
      "outputs": [
        {
          "internalType": "uint256",
          "name": "feeEarned",
          "type": "uint256"
        },
        {
          "internalType": "uint256",
          "name": "shareEarned",
          "type": "uint256"
        }
      ],
      "stateMutability": "view",
      "type": "function"
    },
    {
      "inputs": [
        {
          "internalType": "bytes32",
          "name": "toSymbol",
          "type": "bytes32"
        }
      ],
      "name": "getSuppliedLiquidity",
      "outputs": [
        {
          "internalType": "uint256",
          "name": "count",
          "type": "uint256"
        }
      ],
      "stateMutability": "view",
      "type": "function"
    },
    {
      "inputs": [
        {
          "internalType": "address",
          "name": "spender",
          "type": "address"
        },
        {
          "internalType": "uint256",
          "name": "addedValue",
          "type": "uint256"
        }
      ],
      "name": "increaseAllowance",
      "outputs": [
        {
          "internalType": "bool",
          "name": "",
          "type": "bool"
        }
      ],
      "stateMutability": "nonpayable",
      "type": "function"
    },
    {
      "inputs": [
        {
          "internalType": "bytes32",
          "name": "",
          "type": "bytes32"
        }
      ],
      "name": "ipFeePool",
      "outputs": [
        {
          "internalType": "uint256",
          "name": "",
          "type": "uint256"
        }
      ],
      "stateMutability": "view",
      "type": "function"
    },
    {
      "inputs": [
        {
          "internalType": "bytes32",
          "name": "",
          "type": "bytes32"
        }
      ],
      "name": "liquidityFactor",
      "outputs": [
        {
          "internalType": "uint256",
          "name": "",
          "type": "uint256"
        }
      ],
      "stateMutability": "view",
      "type": "function"
    },
    {
      "inputs": [
        {
          "internalType": "address",
          "name": "",
          "type": "address"
        },
        {
          "internalType": "bytes32",
          "name": "",
          "type": "bytes32"
        }
      ],
      "name": "liquidityProvider",
      "outputs": [
        {
          "internalType": "uint256",
          "name": "",
          "type": "uint256"
        }
      ],
      "stateMutability": "view",
      "type": "function"
    },
    {
      "inputs": [
        {
          "internalType": "address",
          "name": "",
          "type": "address"
        },
        {
          "internalType": "bytes32",
          "name": "",
          "type": "bytes32"
        }
      ],
      "name": "lpFee2Withdraw",
      "outputs": [
        {
          "internalType": "uint256",
          "name": "",
          "type": "uint256"
        }
      ],
      "stateMutability": "view",
      "type": "function"
    },
    {
      "inputs": [
        {
          "internalType": "bytes32",
          "name": "",
          "type": "bytes32"
        }
      ],
      "name": "lpFeePool",
      "outputs": [
        {
          "internalType": "uint256",
          "name": "",
          "type": "uint256"
        }
      ],
      "stateMutability": "view",
      "type": "function"
    },
    {
      "inputs": [
        {
          "internalType": "uint256",
          "name": "",
          "type": "uint256"
        }
      ],
      "name": "lpTokenList",
      "outputs": [
        {
          "internalType": "bytes32",
          "name": "",
          "type": "bytes32"
        }
      ],
      "stateMutability": "view",
      "type": "function"
    },
    {
      "inputs": [
        {
          "internalType": "bytes32",
          "name": "",
          "type": "bytes32"
        }
      ],
      "name": "lpTokens",
      "outputs": [
        {
          "internalType": "bytes32",
          "name": "symbol",
          "type": "bytes32"
        },
        {
          "internalType": "address",
          "name": "tokenAddress",
          "type": "address"
        }
      ],
      "stateMutability": "view",
      "type": "function"
    },
    {
      "inputs": [],
      "name": "name",
      "outputs": [
        {
          "internalType": "string",
          "name": "",
          "type": "string"
        }
      ],
      "stateMutability": "view",
      "type": "function"
    },
    {
      "inputs": [
        {
          "internalType": "uint256",
          "name": "bd",
          "type": "uint256"
        }
      ],
      "name": "setBaseDivisor",
      "outputs": [],
      "stateMutability": "nonpayable",
      "type": "function"
    },
    {
      "inputs": [
        {
          "internalType": "bytes32",
          "name": "fiatSymbol",
          "type": "bytes32"
        },
        {
          "internalType": "uint256",
          "name": "fee",
          "type": "uint256"
        }
      ],
      "name": "setEquilibriumFee",
      "outputs": [],
      "stateMutability": "nonpayable",
      "type": "function"
    },
    {
      "inputs": [
        {
          "internalType": "bytes32",
          "name": "fiatSymbol",
          "type": "bytes32"
        },
        {
          "internalType": "uint256",
          "name": "factor",
          "type": "uint256"
        }
      ],
      "name": "setLiquidityFactor",
      "outputs": [],
      "stateMutability": "nonpayable",
      "type": "function"
    },
    {
      "inputs": [
        {
          "internalType": "bytes32",
          "name": "",
          "type": "bytes32"
        }
      ],
      "name": "suppliedLiquidity",
      "outputs": [
        {
          "internalType": "uint256",
          "name": "",
          "type": "uint256"
        }
      ],
      "stateMutability": "view",
      "type": "function"
    },
    {
      "inputs": [],
      "name": "symbol",
      "outputs": [
        {
          "internalType": "string",
          "name": "",
          "type": "string"
        }
      ],
      "stateMutability": "view",
      "type": "function"
    },
    {
      "inputs": [],
      "name": "token",
      "outputs": [
        {
          "internalType": "contract ERC20",
          "name": "",
          "type": "address"
        }
      ],
      "stateMutability": "view",
      "type": "function"
    },
    {
      "inputs": [],
      "name": "totalSupply",
      "outputs": [
        {
          "internalType": "uint256",
          "name": "",
          "type": "uint256"
        }
      ],
      "stateMutability": "view",
      "type": "function"
    },
    {
      "inputs": [
        {
          "internalType": "address",
          "name": "recipient",
          "type": "address"
        },
        {
          "internalType": "uint256",
          "name": "amount",
          "type": "uint256"
        }
      ],
      "name": "transfer",
      "outputs": [
        {
          "internalType": "bool",
          "name": "",
          "type": "bool"
        }
      ],
      "stateMutability": "nonpayable",
      "type": "function"
    },
    {
      "inputs": [
        {
          "internalType": "address",
          "name": "to",
          "type": "address"
        },
        {
          "internalType": "uint256",
          "name": "destinationAmount",
          "type": "uint256"
        },
        {
          "internalType": "bytes32",
          "name": "destinationFiatSymbol",
          "type": "bytes32"
        },
        {
          "internalType": "uint256",
          "name": "sourceAmount",
          "type": "uint256"
        },
        {
          "internalType": "bytes32",
          "name": "sourceFiatSymbol",
          "type": "bytes32"
        }
      ],
      "name": "transferFiat",
      "outputs": [],
      "stateMutability": "nonpayable",
      "type": "function"
    },
    {
      "inputs": [
        {
          "internalType": "address",
          "name": "sender",
          "type": "address"
        },
        {
          "internalType": "address",
          "name": "recipient",
          "type": "address"
        },
        {
          "internalType": "uint256",
          "name": "amount",
          "type": "uint256"
        }
      ],
      "name": "transferFrom",
      "outputs": [
        {
          "internalType": "bool",
          "name": "",
          "type": "bool"
        }
      ],
      "stateMutability": "nonpayable",
      "type": "function"
    },
    {
      "inputs": [
        {
          "internalType": "uint256",
          "name": "amount",
          "type": "uint256"
        },
        {
          "internalType": "address",
          "name": "to",
          "type": "address"
        },
        {
          "internalType": "bytes32",
          "name": "fiatSymbol",
          "type": "bytes32"
        },
        {
          "internalType": "bytes32",
          "name": "lpSymbol",
          "type": "bytes32"
        }
      ],
      "name": "withdrawLiquidity",
      "outputs": [],
      "stateMutability": "nonpayable",
      "type": "function"
    },
    {
      "inputs": [
        {
          "internalType": "uint256",
          "name": "amount",
          "type": "uint256"
        },
        {
          "internalType": "address",
          "name": "to",
          "type": "address"
        },
        {
          "internalType": "bytes32",
          "name": "toSymbol",
          "type": "bytes32"
        }
      ],
      "name": "withdrawRequest",
      "outputs": [],
      "stateMutability": "nonpayable",
      "type": "function"
    },
    {
      "inputs": [
        {
          "internalType": "uint256",
          "name": "",
          "type": "uint256"
        }
      ],
      "name": "withdrawRequests",
      "outputs": [
        {
          "internalType": "uint256",
          "name": "amount",
          "type": "uint256"
        },
        {
          "internalType": "address",
          "name": "to",
          "type": "address"
        },
        {
          "internalType": "bytes32",
          "name": "tokenSymbol",
          "type": "bytes32"
        },
        {
          "internalType": "uint256",
          "name": "timestamp",
          "type": "uint256"
        }
      ],
      "stateMutability": "view",
      "type": "function"
    }
  ],
  "bytecode": "0x6080604052620f4240600f55612710601055670de0b6b3a76400006011553480156200002a57600080fd5b506040516200539f3803806200539f8339818101604052810190620000509190620001f1565b818181600390805190602001906200006a929190620000cf565b50806004908051906020019062000083929190620000cf565b50505033600860006101000a81548173ffffffffffffffffffffffffffffffffffffffff021916908373ffffffffffffffffffffffffffffffffffffffff1602179055505050620003d4565b828054620000dd90620002f9565b90600052602060002090601f0160209004810192826200010157600085556200014d565b82601f106200011c57805160ff19168380011785556200014d565b828001600101855582156200014d579182015b828111156200014c5782518255916020019190600101906200012f565b5b5090506200015c919062000160565b5090565b5b808211156200017b57600081600090555060010162000161565b5090565b60006200019662000190846200028d565b62000264565b905082815260208101848484011115620001af57600080fd5b620001bc848285620002c3565b509392505050565b600082601f830112620001d657600080fd5b8151620001e88482602086016200017f565b91505092915050565b600080604083850312156200020557600080fd5b600083015167ffffffffffffffff8111156200022057600080fd5b6200022e85828601620001c4565b925050602083015167ffffffffffffffff8111156200024c57600080fd5b6200025a85828601620001c4565b9150509250929050565b60006200027062000283565b90506200027e82826200032f565b919050565b6000604051905090565b600067ffffffffffffffff821115620002ab57620002aa62000394565b5b620002b682620003c3565b9050602081019050919050565b60005b83811015620002e3578082015181840152602081019050620002c6565b83811115620002f3576000848401525b50505050565b600060028204905060018216806200031257607f821691505b6020821081141562000329576200032862000365565b5b50919050565b6200033a82620003c3565b810181811067ffffffffffffffff821117156200035c576200035b62000394565b5b80604052505050565b7f4e487b7100000000000000000000000000000000000000000000000000000000600052602260045260246000fd5b7f4e487b7100000000000000000000000000000000000000000000000000000000600052604160045260246000fd5b6000601f19601f8301169050919050565b614fbb80620003e46000396000f3fe608060405234801561001057600080fd5b506004361061027f5760003560e01c8063767b62541161015c578063a457c2d7116100ce578063eca3b53011610087578063eca3b530146108cc578063f339c920146108fd578063f851a4401461092d578063fb4796861461094b578063fc0c546a14610969578063fee30ffa146109875761027f565b8063a457c2d7146107be578063a9059cbb146107ee578063c2ec6c9a1461081e578063cf605fcd1461084f578063dd62ed3e14610880578063e2802b88146108b05761027f565b80637dd5f6fd116101205780637dd5f6fd146106c157806389027737146106dd57806392d356ce1461070d57806395d89b411461073d578063979c46311461075b578063992a7dfb1461078b5761027f565b8063767b6254146105e557806377dcf5cc14610615578063798446ec1461064557806379f4574d146106755780637b005740146106a55761027f565b8063313ce567116101f55780635030506c116101b95780635030506c146104ed57806358800c481461051d5780635a71ad4c1461054d5780636b74ae0114610569578063706bc02d1461058557806370a08231146105b55761027f565b8063313ce5671461040e578063395093511461042c5780633a652b901461045c578063402d037e1461048c578063430dca50146104bc5761027f565b8063142b8b8e11610247578063142b8b8e1461035057806318160ddd1461036c57806323b872dd1461038a57806325a78e88146103ba5780632d28e929146103d657806330ba5004146103f25761027f565b80630459e5aa1461028457806306fdde03146102b457806307ac6473146102d2578063095ea7b3146103025780631224abfb14610332575b600080fd5b61029e60048036038101906102999190613de9565b6109b7565b6040516102ab9190614520565b60405180910390f35b6102bc610a87565b6040516102c991906142fe565b60405180910390f35b6102ec60048036038101906102e79190613b2e565b610b19565b6040516102f99190614520565b60405180910390f35b61031c60048036038101906103179190613a52565b610b31565b6040516103299190614284565b60405180910390f35b61033a610b4f565b6040516103479190614262565b60405180910390f35b61036a60048036038101906103659190613cd3565b610d42565b005b610374611210565b6040516103819190614520565b60405180910390f35b6103a4600480360381019061039f91906139c7565b61121a565b6040516103b19190614284565b60405180910390f35b6103d460048036038101906103cf9190613c70565b611312565b005b6103f060048036038101906103eb9190613b93565b6117bc565b005b61040c60048036038101906104079190613bcf565b611868565b005b610416611902565b6040516104239190614625565b60405180910390f35b61044660048036038101906104419190613a52565b61190b565b6040516104539190614284565b60405180910390f35b61047660048036038101906104719190613d4a565b6119b7565b6040516104839190614520565b60405180910390f35b6104a660048036038101906104a19190613b2e565b611d2c565b6040516104b39190614520565b60405180910390f35b6104d660048036038101906104d19190613b2e565b611d44565b6040516104e49291906142ba565b60405180910390f35b61050760048036038101906105029190613a16565b611d88565b6040516105149190614520565b60405180910390f35b61053760048036038101906105329190613b2e565b611dad565b6040516105449190614520565b60405180910390f35b61056760048036038101906105629190613c21565b611df0565b005b610583600480360381019061057e9190613b93565b611ff3565b005b61059f600480360381019061059a9190613a16565b61209f565b6040516105ac9190614520565b60405180910390f35b6105cf60048036038101906105ca9190613962565b6120fa565b6040516105dc9190614520565b60405180910390f35b6105ff60048036038101906105fa9190613d4a565b612142565b60405161060c9190614520565b60405180910390f35b61062f600480360381019061062a9190613b2e565b6123db565b60405161063c9190614520565b60405180910390f35b61065f600480360381019061065a9190613b2e565b6123f8565b60405161066c9190614520565b60405180910390f35b61068f600480360381019061068a9190613b2e565b612410565b60405161069c9190614520565b60405180910390f35b6106bf60048036038101906106ba9190613a8e565b612428565b005b6106db60048036038101906106d69190613b57565b612782565b005b6106f760048036038101906106f29190613a16565b6128d1565b6040516107049190614520565b60405180910390f35b61072760048036038101906107229190613b2e565b6128f6565b6040516107349190614520565b60405180910390f35b610745612913565b60405161075291906142fe565b60405180910390f35b61077560048036038101906107709190613bcf565b6129a5565b604051610782919061429f565b60405180910390f35b6107a560048036038101906107a09190613bcf565b6129c9565b6040516107b594939291906145b7565b60405180910390f35b6107d860048036038101906107d39190613a52565b612a19565b6040516107e59190614284565b60405180910390f35b61080860048036038101906108039190613a52565b612b04565b6040516108159190614284565b60405180910390f35b61083860048036038101906108339190613d86565b612b22565b6040516108469291906145fc565b60405180910390f35b61086960048036038101906108649190613b2e565b612be2565b6040516108779291906142ba565b60405180910390f35b61089a6004803603810190610895919061398b565b612c26565b6040516108a79190614520565b60405180910390f35b6108ca60048036038101906108c59190613b57565b612cad565b005b6108e660048036038101906108e19190613a16565b612dfc565b6040516108f49291906145fc565b60405180910390f35b61091760048036038101906109129190613bcf565b61301d565b604051610924919061429f565b60405180910390f35b610935613041565b60405161094291906141be565b60405180910390f35b610953613067565b6040516109609190614262565b60405180910390f35b61097161325a565b60405161097e91906142e3565b60405180910390f35b6109a1600480360381019061099c9190613b2e565b613280565b6040516109ae9190614520565b60405180910390f35b6000600860009054906101000a900473ffffffffffffffffffffffffffffffffffffffff1673ffffffffffffffffffffffffffffffffffffffff163373ffffffffffffffffffffffffffffffffffffffff1614610a49576040517f08c379a0000000000000000000000000000000000000000000000000000000008152600401610a40906143c0565b60405180910390fd5b6000610a5584846119b7565b90506127108582612710610a699190614695565b610a73919061488d565b610a7d91906146eb565b9150509392505050565b606060038054610a96906149d1565b80601f0160208091040260200160405190810160405280929190818152602001828054610ac2906149d1565b8015610b0f5780601f10610ae457610100808354040283529160200191610b0f565b820191906000526020600020905b815481529060010190602001808311610af257829003601f168201915b5050505050905090565b60136020528060005260406000206000915090505481565b6000610b45610b3e61329d565b84846132a5565b6001905092915050565b60606000600c8054905067ffffffffffffffff811115610b98577f4e487b7100000000000000000000000000000000000000000000000000000000600052604160045260246000fd5b604051908082528060200260200182016040528015610bd157816020015b610bbe6138c6565b815260200190600190039081610bb65790505b50905060005b600b80549050811015610d3a576040518060400160405280600a6000600c8581548110610c2d577f4e487b7100000000000000000000000000000000000000000000000000000000600052603260045260246000fd5b90600052602060002001548152602001908152602001600020600001548152602001600a6000600c8581548110610c8d577f4e487b7100000000000000000000000000000000000000000000000000000000600052603260045260246000fd5b9060005260206000200154815260200190815260200160002060010160009054906101000a900473ffffffffffffffffffffffffffffffffffffffff1673ffffffffffffffffffffffffffffffffffffffff16815250828281518110610d1c577f4e487b7100000000000000000000000000000000000000000000000000000000600052603260045260246000fd5b60200260200101819052508080610d3290614a03565b915050610bd7565b508091505090565b82600073ffffffffffffffffffffffffffffffffffffffff166009600083815260200190815260200160002060010160009054906101000a900473ffffffffffffffffffffffffffffffffffffffff1673ffffffffffffffffffffffffffffffffffffffff161415610de9576040517f08c379a0000000000000000000000000000000000000000000000000000000008152600401610de090614500565b60405180910390fd5b82600073ffffffffffffffffffffffffffffffffffffffff16600a600083815260200190815260200160002060010160009054906101000a900473ffffffffffffffffffffffffffffffffffffffff1673ffffffffffffffffffffffffffffffffffffffff161415610e90576040517f08c379a0000000000000000000000000000000000000000000000000000000008152600401610e8790614380565b60405180910390fd5b60006009600087815260200190815260200160002060010160009054906101000a900473ffffffffffffffffffffffffffffffffffffffff1673ffffffffffffffffffffffffffffffffffffffff1663dd62ed3e88306040518363ffffffff1660e01b8152600401610f039291906141d9565b60206040518083038186803b158015610f1b57600080fd5b505afa158015610f2f573d6000803e3d6000fd5b505050506040513d601f19601f82011682018060405250810190610f539190613bf8565b905087811015610f98576040517f08c379a0000000000000000000000000000000000000000000000000000000008152600401610f8f90614420565b60405180910390fd5b6009600087815260200190815260200160002060010160009054906101000a900473ffffffffffffffffffffffffffffffffffffffff1673ffffffffffffffffffffffffffffffffffffffff166323b872dd8830878c610ff8919061488d565b6040518463ffffffff1660e01b815260040161101693929190614202565b602060405180830381600087803b15801561103057600080fd5b505af1158015611044573d6000803e3d6000fd5b505050506040513d601f19601f820116820180604052508101906110689190613b05565b50600a600086815260200190815260200160002060010160009054906101000a900473ffffffffffffffffffffffffffffffffffffffff1673ffffffffffffffffffffffffffffffffffffffff1663a9059cbb88868b6110c8919061488d565b6040518363ffffffff1660e01b81526004016110e5929190614239565b602060405180830381600087803b1580156110ff57600080fd5b505af1158015611113573d6000803e3d6000fd5b505050506040513d601f19601f820116820180604052508101906111379190613b05565b508760126000888152602001908152602001600020600082825461115b9190614695565b9250508190555087601560008973ffffffffffffffffffffffffffffffffffffffff1673ffffffffffffffffffffffffffffffffffffffff168152602001908152602001600020600088815260200190815260200160002060008282546111c29190614695565b925050819055507f7057e4110944b1fc1e9acefd0b0abea5a15e4a8795fb9663e8bfce5e304b3281888888886040516111fe9493929190614572565b60405180910390a15050505050505050565b6000600254905090565b6000611227848484613470565b6000600160008673ffffffffffffffffffffffffffffffffffffffff1673ffffffffffffffffffffffffffffffffffffffff168152602001908152602001600020600061127261329d565b73ffffffffffffffffffffffffffffffffffffffff1673ffffffffffffffffffffffffffffffffffffffff168152602001908152602001600020549050828110156112f2576040517f08c379a00000000000000000000000000000000000000000000000000000000081526004016112e990614440565b60405180910390fd5b611306856112fe61329d565b8584036132a5565b60019150509392505050565b81600073ffffffffffffffffffffffffffffffffffffffff166009600083815260200190815260200160002060010160009054906101000a900473ffffffffffffffffffffffffffffffffffffffff1673ffffffffffffffffffffffffffffffffffffffff1614156113b9576040517f08c379a00000000000000000000000000000000000000000000000000000000081526004016113b090614500565b60405180910390fd5b6000600a600084815260200190815260200160002060010160009054906101000a900473ffffffffffffffffffffffffffffffffffffffff1673ffffffffffffffffffffffffffffffffffffffff1663dd62ed3e86306040518363ffffffff1660e01b815260040161142c9291906141d9565b60206040518083038186803b15801561144457600080fd5b505afa158015611458573d6000803e3d6000fd5b505050506040513d601f19601f8201168201806040525081019061147c9190613bf8565b9050858110156114c1576040517f08c379a00000000000000000000000000000000000000000000000000000000081526004016114b8906144a0565b60405180910390fd5b600a600084815260200190815260200160002060010160009054906101000a900473ffffffffffffffffffffffffffffffffffffffff1673ffffffffffffffffffffffffffffffffffffffff166323b872dd8630896040518463ffffffff1660e01b815260040161153493929190614202565b602060405180830381600087803b15801561154e57600080fd5b505af1158015611562573d6000803e3d6000fd5b505050506040513d601f19601f820116820180604052508101906115869190613b05565b5085601560008773ffffffffffffffffffffffffffffffffffffffff1673ffffffffffffffffffffffffffffffffffffffff168152602001908152602001600020600086815260200190815260200160002054101561161a576040517f08c379a0000000000000000000000000000000000000000000000000000000008152600401611611906143e0565b60405180910390fd5b6009600085815260200190815260200160002060010160009054906101000a900473ffffffffffffffffffffffffffffffffffffffff1673ffffffffffffffffffffffffffffffffffffffff1663a9059cbb86886040518363ffffffff1660e01b815260040161168b929190614239565b602060405180830381600087803b1580156116a557600080fd5b505af11580156116b9573d6000803e3d6000fd5b505050506040513d601f19601f820116820180604052508101906116dd9190613b05565b506116e885856136f1565b8560126000868152602001908152602001600020600082825461170b91906148e7565b9250508190555085601560008773ffffffffffffffffffffffffffffffffffffffff1673ffffffffffffffffffffffffffffffffffffffff1681526020019081526020016000206000868152602001908152602001600020600082825461177291906148e7565b925050819055507f246236c6eaed201562b17153fd5d070b8b6fc49ccd3459a6c7282146317fb9528686866040516117ac9392919061453b565b60405180910390a1505050505050565b600860009054906101000a900473ffffffffffffffffffffffffffffffffffffffff1673ffffffffffffffffffffffffffffffffffffffff163373ffffffffffffffffffffffffffffffffffffffff161461184c576040517f08c379a0000000000000000000000000000000000000000000000000000000008152600401611843906143c0565b60405180910390fd5b80600e6000848152602001908152602001600020819055505050565b600860009054906101000a900473ffffffffffffffffffffffffffffffffffffffff1673ffffffffffffffffffffffffffffffffffffffff163373ffffffffffffffffffffffffffffffffffffffff16146118f8576040517f08c379a00000000000000000000000000000000000000000000000000000000081526004016118ef906143c0565b60405180910390fd5b80600f8190555050565b60006012905090565b60006119ad61191861329d565b84846001600061192661329d565b73ffffffffffffffffffffffffffffffffffffffff1673ffffffffffffffffffffffffffffffffffffffff16815260200190815260200160002060008873ffffffffffffffffffffffffffffffffffffffff1673ffffffffffffffffffffffffffffffffffffffff168152602001908152602001600020546119a89190614695565b6132a5565b6001905092915050565b6000600860009054906101000a900473ffffffffffffffffffffffffffffffffffffffff1673ffffffffffffffffffffffffffffffffffffffff163373ffffffffffffffffffffffffffffffffffffffff1614611a49576040517f08c379a0000000000000000000000000000000000000000000000000000000008152600401611a40906143c0565b60405180910390fd5b600073ffffffffffffffffffffffffffffffffffffffff166009600084815260200190815260200160002060010160009054906101000a900473ffffffffffffffffffffffffffffffffffffffff1673ffffffffffffffffffffffffffffffffffffffff161415611aef576040517f08c379a0000000000000000000000000000000000000000000000000000000008152600401611ae6906144c0565b60405180910390fd5b6000806014600d6000868152602001908152602001600020541015611b175760149050611b2e565b600d60008581526020019081526020016000205490505b846009600086815260200190815260200160002060010160009054906101000a900473ffffffffffffffffffffffffffffffffffffffff1673ffffffffffffffffffffffffffffffffffffffff166370a08231306040518263ffffffff1660e01b8152600401611b9e91906141be565b60206040518083038186803b158015611bb657600080fd5b505afa158015611bca573d6000803e3d6000fd5b505050506040513d601f19601f82011682018060405250810190611bee9190613bf8565b611bf891906148e7565b915060126000858152602001908152602001600020548210611c1e578092505050611d26565b60006002600e6000878152602001908152602001600020541015611c455760029050611c5c565b600e60008681526020019081526020016000205490505b60006012600087815260200190815260200160002054600f5485601260008a815260200190815260200160002054611c9491906148e7565b611c9e919061488d565b611ca891906146eb565b90506000600283611cb991906148e7565b6103e8611cc6919061476f565b600f54611cd3919061488d565b83600f546103e885611ce5919061488d565b611cef91906146eb565b6103e8611cfc9190614695565b611d06919061476f565b85611d11919061488d565b611d1b91906146eb565b905080955050505050505b92915050565b60126020528060005260406000206000915090505481565b600a6020528060005260406000206000915090508060000154908060010160009054906101000a900473ffffffffffffffffffffffffffffffffffffffff16905082565b6015602052816000526040600020602052806000526040600020600091509150505481565b60006014600d6000848152602001908152602001600020541015611dd45760149050611deb565b600d60008381526020019081526020016000205490505b919050565b80600073ffffffffffffffffffffffffffffffffffffffff16600a600083815260200190815260200160002060010160009054906101000a900473ffffffffffffffffffffffffffffffffffffffff1673ffffffffffffffffffffffffffffffffffffffff161415611e97576040517f08c379a0000000000000000000000000000000000000000000000000000000008152600401611e8e90614380565b60405180910390fd5b600860009054906101000a900473ffffffffffffffffffffffffffffffffffffffff1673ffffffffffffffffffffffffffffffffffffffff163373ffffffffffffffffffffffffffffffffffffffff1614611f27576040517f08c379a0000000000000000000000000000000000000000000000000000000008152600401611f1e906143c0565b60405180910390fd5b60066000815480929190611f3a90614a03565b9190505550426005600060065481526020019081526020016000206003018190555083600560006006548152602001908152602001600020600001819055508260056000600654815260200190815260200160002060010160006101000a81548173ffffffffffffffffffffffffffffffffffffffff021916908373ffffffffffffffffffffffffffffffffffffffff160217905550816005600060065481526020019081526020016000206002018190555050505050565b600860009054906101000a900473ffffffffffffffffffffffffffffffffffffffff1673ffffffffffffffffffffffffffffffffffffffff163373ffffffffffffffffffffffffffffffffffffffff1614612083576040517f08c379a000000000000000000000000000000000000000000000000000000000815260040161207a906143c0565b60405180910390fd5b80600d6000848152602001908152602001600020819055505050565b6000601560008473ffffffffffffffffffffffffffffffffffffffff1673ffffffffffffffffffffffffffffffffffffffff168152602001908152602001600020600083815260200190815260200160002054905092915050565b60008060008373ffffffffffffffffffffffffffffffffffffffff1673ffffffffffffffffffffffffffffffffffffffff168152602001908152602001600020549050919050565b6000600860009054906101000a900473ffffffffffffffffffffffffffffffffffffffff1673ffffffffffffffffffffffffffffffffffffffff163373ffffffffffffffffffffffffffffffffffffffff16146121d4576040517f08c379a00000000000000000000000000000000000000000000000000000000081526004016121cb906143c0565b60405180910390fd5b60008060008073ffffffffffffffffffffffffffffffffffffffff166009600087815260200190815260200160002060010160009054906101000a900473ffffffffffffffffffffffffffffffffffffffff1673ffffffffffffffffffffffffffffffffffffffff16141561227e576040517f08c379a0000000000000000000000000000000000000000000000000000000008152600401612275906144c0565b60405180910390fd5b6009600086815260200190815260200160002060010160009054906101000a900473ffffffffffffffffffffffffffffffffffffffff1673ffffffffffffffffffffffffffffffffffffffff166370a08231306040518263ffffffff1660e01b81526004016122ed91906141be565b60206040518083038186803b15801561230557600080fd5b505afa158015612319573d6000803e3d6000fd5b505050506040513d601f19601f8201168201806040525081019061233d9190613bf8565b925082601260008781526020019081526020016000205411156123ce5782601260008781526020019081526020016000205461237991906148e7565b9150818611156123a157601460008681526020019081526020016000205493505050506123d5565b816014600087815260200190815260200160002054876123c1919061488d565b6123cb91906146eb565b90505b8093505050505b92915050565b600060126000838152602001908152602001600020549050919050565b60146020528060005260406000206000915090505481565b600e6020528060005260406000206000915090505481565b82600073ffffffffffffffffffffffffffffffffffffffff166009600083815260200190815260200160002060010160009054906101000a900473ffffffffffffffffffffffffffffffffffffffff1673ffffffffffffffffffffffffffffffffffffffff1614156124cf576040517f08c379a00000000000000000000000000000000000000000000000000000000081526004016124c690614500565b60405180910390fd5b600860009054906101000a900473ffffffffffffffffffffffffffffffffffffffff1673ffffffffffffffffffffffffffffffffffffffff163373ffffffffffffffffffffffffffffffffffffffff161461255f576040517f08c379a0000000000000000000000000000000000000000000000000000000008152600401612556906143c0565b60405180910390fd5b60006014600d6000878152602001908152602001600020541015612586576014905061259d565b600d60008681526020019081526020016000205490505b60006125a98585612142565b905060006125b788886119b7565b9050600083826125c791906148e7565b9050826014600088815260200190815260200160002060008282546125ec91906148e7565b925050819055506127108985612602919061488d565b61260c91906146eb565b601360008a8152602001908152602001600020600082825461262e9190614695565b925050819055506127108982612644919061488d565b61264e91906146eb565b601460008a815260200190815260200160002060008282546126709190614695565b925050819055506009600089815260200190815260200160002060010160009054906101000a900473ffffffffffffffffffffffffffffffffffffffff1673ffffffffffffffffffffffffffffffffffffffff1663a9059cbb8b8b6040518363ffffffff1660e01b81526004016126e8929190614239565b602060405180830381600087803b15801561270257600080fd5b505af1158015612716573d6000803e3d6000fd5b505050506040513d601f19601f8201168201806040525081019061273a9190613b05565b507f10d816247ce26817ec32a37ad18e09ddbe49fa88a1ed5c4fe05432123f55f112898b8a60405161276e9392919061453b565b60405180910390a150505050505050505050565b600860009054906101000a900473ffffffffffffffffffffffffffffffffffffffff1673ffffffffffffffffffffffffffffffffffffffff163373ffffffffffffffffffffffffffffffffffffffff1614612812576040517f08c379a0000000000000000000000000000000000000000000000000000000008152600401612809906143c0565b60405180910390fd5b60405180604001604052808381526020018273ffffffffffffffffffffffffffffffffffffffff16815250600960008481526020019081526020016000206000820151816000015560208201518160010160006101000a81548173ffffffffffffffffffffffffffffffffffffffff021916908373ffffffffffffffffffffffffffffffffffffffff160217905550905050600b8290806001815401808255809150506001900390600052602060002001600090919091909150555050565b6016602052816000526040600020602052806000526040600020600091509150505481565b600060146000838152602001908152602001600020549050919050565b606060048054612922906149d1565b80601f016020809104026020016040519081016040528092919081815260200182805461294e906149d1565b801561299b5780601f106129705761010080835404028352916020019161299b565b820191906000526020600020905b81548152906001019060200180831161297e57829003601f168201915b5050505050905090565b600c81815481106129b557600080fd5b906000526020600020016000915090505481565b60056020528060005260406000206000915090508060000154908060010160009054906101000a900473ffffffffffffffffffffffffffffffffffffffff16908060020154908060030154905084565b60008060016000612a2861329d565b73ffffffffffffffffffffffffffffffffffffffff1673ffffffffffffffffffffffffffffffffffffffff16815260200190815260200160002060008573ffffffffffffffffffffffffffffffffffffffff1673ffffffffffffffffffffffffffffffffffffffff16815260200190815260200160002054905082811015612ae5576040517f08c379a0000000000000000000000000000000000000000000000000000000008152600401612adc906144e0565b60405180910390fd5b612af9612af061329d565b858584036132a5565b600191505092915050565b6000612b18612b1161329d565b8484613470565b6001905092915050565b600080600860009054906101000a900473ffffffffffffffffffffffffffffffffffffffff1673ffffffffffffffffffffffffffffffffffffffff163373ffffffffffffffffffffffffffffffffffffffff1614612bb5576040517f08c379a0000000000000000000000000000000000000000000000000000000008152600401612bac906143c0565b60405180910390fd5b6000612bc18787612142565b90506000612bcf86866119b7565b9050808293509350505094509492505050565b60096020528060005260406000206000915090508060000154908060010160009054906101000a900473ffffffffffffffffffffffffffffffffffffffff16905082565b6000600160008473ffffffffffffffffffffffffffffffffffffffff1673ffffffffffffffffffffffffffffffffffffffff16815260200190815260200160002060008373ffffffffffffffffffffffffffffffffffffffff1673ffffffffffffffffffffffffffffffffffffffff16815260200190815260200160002054905092915050565b600860009054906101000a900473ffffffffffffffffffffffffffffffffffffffff1673ffffffffffffffffffffffffffffffffffffffff163373ffffffffffffffffffffffffffffffffffffffff1614612d3d576040517f08c379a0000000000000000000000000000000000000000000000000000000008152600401612d34906143c0565b60405180910390fd5b60405180604001604052808381526020018273ffffffffffffffffffffffffffffffffffffffff16815250600a60008481526020019081526020016000206000820151816000015560208201518160010160006101000a81548173ffffffffffffffffffffffffffffffffffffffff021916908373ffffffffffffffffffffffffffffffffffffffff160217905550905050600c8290806001815401808255809150506001900390600052602060002001600090919091909150555050565b60008082600073ffffffffffffffffffffffffffffffffffffffff166009600083815260200190815260200160002060010160009054906101000a900473ffffffffffffffffffffffffffffffffffffffff1673ffffffffffffffffffffffffffffffffffffffff161415612ea6576040517f08c379a0000000000000000000000000000000000000000000000000000000008152600401612e9d90614500565b60405180910390fd5b6000601260008681526020019081526020016000205411612efc576040517f08c379a0000000000000000000000000000000000000000000000000000000008152600401612ef390614400565b60405180910390fd5b600060126000868152602001908152602001600020546013600087815260200190815260200160002054601560008973ffffffffffffffffffffffffffffffffffffffff1673ffffffffffffffffffffffffffffffffffffffff168152602001908152602001600020600088815260200190815260200160002054612f81919061488d565b612f8b91906146eb565b905060006012600087815260200190815260200160002054601154601560008a73ffffffffffffffffffffffffffffffffffffffff1673ffffffffffffffffffffffffffffffffffffffff168152602001908152602001600020600089815260200190815260200160002054613001919061488d565b61300b91906146eb565b90508181945094505050509250929050565b600b818154811061302d57600080fd5b906000526020600020016000915090505481565b600860009054906101000a900473ffffffffffffffffffffffffffffffffffffffff1681565b60606000600b8054905067ffffffffffffffff8111156130b0577f4e487b7100000000000000000000000000000000000000000000000000000000600052604160045260246000fd5b6040519080825280602002602001820160405280156130e957816020015b6130d66138c6565b8152602001906001900390816130ce5790505b50905060005b600b8054905081101561325257604051806040016040528060096000600b8581548110613145577f4e487b7100000000000000000000000000000000000000000000000000000000600052603260045260246000fd5b9060005260206000200154815260200190815260200160002060000154815260200160096000600b85815481106131a5577f4e487b7100000000000000000000000000000000000000000000000000000000600052603260045260246000fd5b9060005260206000200154815260200190815260200160002060010160009054906101000a900473ffffffffffffffffffffffffffffffffffffffff1673ffffffffffffffffffffffffffffffffffffffff16815250828281518110613234577f4e487b7100000000000000000000000000000000000000000000000000000000600052603260045260246000fd5b6020026020010181905250808061324a90614a03565b9150506130ef565b508091505090565b600760009054906101000a900473ffffffffffffffffffffffffffffffffffffffff1681565b600060136000838152602001908152602001600020549050919050565b600033905090565b600073ffffffffffffffffffffffffffffffffffffffff168373ffffffffffffffffffffffffffffffffffffffff161415613315576040517f08c379a000000000000000000000000000000000000000000000000000000000815260040161330c90614480565b60405180910390fd5b600073ffffffffffffffffffffffffffffffffffffffff168273ffffffffffffffffffffffffffffffffffffffff161415613385576040517f08c379a000000000000000000000000000000000000000000000000000000000815260040161337c90614340565b60405180910390fd5b80600160008573ffffffffffffffffffffffffffffffffffffffff1673ffffffffffffffffffffffffffffffffffffffff16815260200190815260200160002060008473ffffffffffffffffffffffffffffffffffffffff1673ffffffffffffffffffffffffffffffffffffffff168152602001908152602001600020819055508173ffffffffffffffffffffffffffffffffffffffff168373ffffffffffffffffffffffffffffffffffffffff167f8c5be1e5ebec7d5bd14f71427d1e84f3dd0314c0f7b2291e5b200ac8c7c3b925836040516134639190614520565b60405180910390a3505050565b600073ffffffffffffffffffffffffffffffffffffffff168373ffffffffffffffffffffffffffffffffffffffff1614156134e0576040517f08c379a00000000000000000000000000000000000000000000000000000000081526004016134d790614460565b60405180910390fd5b600073ffffffffffffffffffffffffffffffffffffffff168273ffffffffffffffffffffffffffffffffffffffff161415613550576040517f08c379a000000000000000000000000000000000000000000000000000000000815260040161354790614320565b60405180910390fd5b61355b8383836138bc565b60008060008573ffffffffffffffffffffffffffffffffffffffff1673ffffffffffffffffffffffffffffffffffffffff168152602001908152602001600020549050818110156135e1576040517f08c379a00000000000000000000000000000000000000000000000000000000081526004016135d8906143a0565b60405180910390fd5b8181036000808673ffffffffffffffffffffffffffffffffffffffff1673ffffffffffffffffffffffffffffffffffffffff16815260200190815260200160002081905550816000808573ffffffffffffffffffffffffffffffffffffffff1673ffffffffffffffffffffffffffffffffffffffff16815260200190815260200160002060008282546136749190614695565b925050819055508273ffffffffffffffffffffffffffffffffffffffff168473ffffffffffffffffffffffffffffffffffffffff167fddf252ad1be2c89b69c2b068fc378daa952ba7f163c4a11628f55a4df523b3ef846040516136d89190614520565b60405180910390a36136eb8484846138c1565b50505050565b80600073ffffffffffffffffffffffffffffffffffffffff166009600083815260200190815260200160002060010160009054906101000a900473ffffffffffffffffffffffffffffffffffffffff1673ffffffffffffffffffffffffffffffffffffffff161415613798576040517f08c379a000000000000000000000000000000000000000000000000000000000815260040161378f90614500565b60405180910390fd5b6000806137a58585612dfc565b809250819350505060008210156137f1576040517f08c379a00000000000000000000000000000000000000000000000000000000081526004016137e890614360565b60405180910390fd5b6009600085815260200190815260200160002060010160009054906101000a900473ffffffffffffffffffffffffffffffffffffffff1673ffffffffffffffffffffffffffffffffffffffff1663a9059cbb86846040518363ffffffff1660e01b8152600401613862929190614239565b602060405180830381600087803b15801561387c57600080fd5b505af1158015613890573d6000803e3d6000fd5b505050506040513d601f19601f820116820180604052508101906138b49190613b05565b505050505050565b505050565b505050565b604051806040016040528060008019168152602001600073ffffffffffffffffffffffffffffffffffffffff1681525090565b60008135905061390881614f29565b92915050565b60008151905061391d81614f40565b92915050565b60008135905061393281614f57565b92915050565b60008135905061394781614f6e565b92915050565b60008151905061395c81614f6e565b92915050565b60006020828403121561397457600080fd5b6000613982848285016138f9565b91505092915050565b6000806040838503121561399e57600080fd5b60006139ac858286016138f9565b92505060206139bd858286016138f9565b9150509250929050565b6000806000606084860312156139dc57600080fd5b60006139ea868287016138f9565b93505060206139fb868287016138f9565b9250506040613a0c86828701613938565b9150509250925092565b60008060408385031215613a2957600080fd5b6000613a37858286016138f9565b9250506020613a4885828601613923565b9150509250929050565b60008060408385031215613a6557600080fd5b6000613a73858286016138f9565b9250506020613a8485828601613938565b9150509250929050565b600080600080600060a08688031215613aa657600080fd5b6000613ab4888289016138f9565b9550506020613ac588828901613938565b9450506040613ad688828901613923565b9350506060613ae788828901613938565b9250506080613af888828901613923565b9150509295509295909350565b600060208284031215613b1757600080fd5b6000613b258482850161390e565b91505092915050565b600060208284031215613b4057600080fd5b6000613b4e84828501613923565b91505092915050565b60008060408385031215613b6a57600080fd5b6000613b7885828601613923565b9250506020613b89858286016138f9565b9150509250929050565b60008060408385031215613ba657600080fd5b6000613bb485828601613923565b9250506020613bc585828601613938565b9150509250929050565b600060208284031215613be157600080fd5b6000613bef84828501613938565b91505092915050565b600060208284031215613c0a57600080fd5b6000613c188482850161394d565b91505092915050565b600080600060608486031215613c3657600080fd5b6000613c4486828701613938565b9350506020613c55868287016138f9565b9250506040613c6686828701613923565b9150509250925092565b60008060008060808587031215613c8657600080fd5b6000613c9487828801613938565b9450506020613ca5878288016138f9565b9350506040613cb687828801613923565b9250506060613cc787828801613923565b91505092959194509250565b600080600080600060a08688031215613ceb57600080fd5b6000613cf988828901613938565b9550506020613d0a888289016138f9565b9450506040613d1b88828901613923565b9350506060613d2c88828901613923565b9250506080613d3d88828901613938565b9150509295509295909350565b60008060408385031215613d5d57600080fd5b6000613d6b85828601613938565b9250506020613d7c85828601613923565b9150509250929050565b60008060008060808587031215613d9c57600080fd5b6000613daa87828801613938565b9450506020613dbb87828801613923565b9350506040613dcc87828801613938565b9250506060613ddd87828801613923565b91505092959194509250565b600080600060608486031215613dfe57600080fd5b6000613e0c86828701613938565b9350506020613e1d86828701613938565b9250506040613e2e86828701613923565b9150509250925092565b6000613e448383614171565b60408301905092915050565b613e598161491b565b82525050565b613e688161491b565b82525050565b6000613e7982614650565b613e838185614673565b9350613e8e83614640565b8060005b83811015613ebf578151613ea68882613e38565b9750613eb183614666565b925050600181019050613e92565b5085935050505092915050565b613ed58161492d565b82525050565b613ee481614939565b82525050565b613ef381614939565b82525050565b613f028161497a565b82525050565b6000613f138261465b565b613f1d8185614684565b9350613f2d81856020860161499e565b613f3681614ad9565b840191505092915050565b6000613f4e602383614684565b9150613f5982614af7565b604082019050919050565b6000613f71602283614684565b9150613f7c82614b46565b604082019050919050565b6000613f94603483614684565b9150613f9f82614b95565b604082019050919050565b6000613fb7601783614684565b9150613fc282614be4565b602082019050919050565b6000613fda602683614684565b9150613fe582614c0d565b604082019050919050565b6000613ffd600a83614684565b915061400882614c5c565b602082019050919050565b6000614020603b83614684565b915061402b82614c85565b604082019050919050565b6000614043601a83614684565b915061404e82614cd4565b602082019050919050565b6000614066602783614684565b915061407182614cfd565b604082019050919050565b6000614089602883614684565b915061409482614d4c565b604082019050919050565b60006140ac602583614684565b91506140b782614d9b565b604082019050919050565b60006140cf602483614684565b91506140da82614dea565b604082019050919050565b60006140f2603183614684565b91506140fd82614e39565b604082019050919050565b6000614115601483614684565b915061412082614e88565b602082019050919050565b6000614138602583614684565b915061414382614eb1565b604082019050919050565b600061415b601983614684565b915061416682614f00565b602082019050919050565b6040820160008201516141876000850182613edb565b50602082015161419a6020850182613e50565b50505050565b6141a981614963565b82525050565b6141b88161496d565b82525050565b60006020820190506141d36000830184613e5f565b92915050565b60006040820190506141ee6000830185613e5f565b6141fb6020830184613e5f565b9392505050565b60006060820190506142176000830186613e5f565b6142246020830185613e5f565b61423160408301846141a0565b949350505050565b600060408201905061424e6000830185613e5f565b61425b60208301846141a0565b9392505050565b6000602082019050818103600083015261427c8184613e6e565b905092915050565b60006020820190506142996000830184613ecc565b92915050565b60006020820190506142b46000830184613eea565b92915050565b60006040820190506142cf6000830185613eea565b6142dc6020830184613e5f565b9392505050565b60006020820190506142f86000830184613ef9565b92915050565b600060208201905081810360008301526143188184613f08565b905092915050565b6000602082019050818103600083015261433981613f41565b9050919050565b6000602082019050818103600083015261435981613f64565b9050919050565b6000602082019050818103600083015261437981613f87565b9050919050565b6000602082019050818103600083015261439981613faa565b9050919050565b600060208201905081810360008301526143b981613fcd565b9050919050565b600060208201905081810360008301526143d981613ff0565b9050919050565b600060208201905081810360008301526143f981614013565b9050919050565b6000602082019050818103600083015261441981614036565b9050919050565b6000602082019050818103600083015261443981614059565b9050919050565b600060208201905081810360008301526144598161407c565b9050919050565b600060208201905081810360008301526144798161409f565b9050919050565b60006020820190508181036000830152614499816140c2565b9050919050565b600060208201905081810360008301526144b9816140e5565b9050919050565b600060208201905081810360008301526144d981614108565b9050919050565b600060208201905081810360008301526144f98161412b565b9050919050565b600060208201905081810360008301526145198161414e565b9050919050565b600060208201905061453560008301846141a0565b92915050565b600060608201905061455060008301866141a0565b61455d6020830185613e5f565b61456a6040830184613eea565b949350505050565b600060808201905061458760008301876141a0565b6145946020830186613e5f565b6145a16040830185613eea565b6145ae6060830184613eea565b95945050505050565b60006080820190506145cc60008301876141a0565b6145d96020830186613e5f565b6145e66040830185613eea565b6145f360608301846141a0565b95945050505050565b600060408201905061461160008301856141a0565b61461e60208301846141a0565b9392505050565b600060208201905061463a60008301846141af565b92915050565b6000819050602082019050919050565b600081519050919050565b600081519050919050565b6000602082019050919050565b600082825260208201905092915050565b600082825260208201905092915050565b60006146a082614963565b91506146ab83614963565b9250827fffffffffffffffffffffffffffffffffffffffffffffffffffffffffffffffff038211156146e0576146df614a4c565b5b828201905092915050565b60006146f682614963565b915061470183614963565b92508261471157614710614a7b565b5b828204905092915050565b6000808291508390505b60018511156147665780860481111561474257614741614a4c565b5b60018516156147515780820291505b808102905061475f85614aea565b9450614726565b94509492505050565b600061477a82614963565b915061478583614963565b92506147b27fffffffffffffffffffffffffffffffffffffffffffffffffffffffffffffffff84846147ba565b905092915050565b6000826147ca5760019050614886565b816147d85760009050614886565b81600181146147ee57600281146147f857614827565b6001915050614886565b60ff84111561480a57614809614a4c565b5b8360020a91508482111561482157614820614a4c565b5b50614886565b5060208310610133831016604e8410600b841016171561485c5782820a90508381111561485757614856614a4c565b5b614886565b614869848484600161471c565b925090508184048111156148805761487f614a4c565b5b81810290505b9392505050565b600061489882614963565b91506148a383614963565b9250817fffffffffffffffffffffffffffffffffffffffffffffffffffffffffffffffff04831182151516156148dc576148db614a4c565b5b828202905092915050565b60006148f282614963565b91506148fd83614963565b9250828210156149105761490f614a4c565b5b828203905092915050565b600061492682614943565b9050919050565b60008115159050919050565b6000819050919050565b600073ffffffffffffffffffffffffffffffffffffffff82169050919050565b6000819050919050565b600060ff82169050919050565b60006149858261498c565b9050919050565b600061499782614943565b9050919050565b60005b838110156149bc5780820151818401526020810190506149a1565b838111156149cb576000848401525b50505050565b600060028204905060018216806149e957607f821691505b602082108114156149fd576149fc614aaa565b5b50919050565b6000614a0e82614963565b91507fffffffffffffffffffffffffffffffffffffffffffffffffffffffffffffffff821415614a4157614a40614a4c565b5b600182019050919050565b7f4e487b7100000000000000000000000000000000000000000000000000000000600052601160045260246000fd5b7f4e487b7100000000000000000000000000000000000000000000000000000000600052601260045260246000fd5b7f4e487b7100000000000000000000000000000000000000000000000000000000600052602260045260246000fd5b6000601f19601f8301169050919050565b60008160011c9050919050565b7f45524332303a207472616e7366657220746f20746865207a65726f206164647260008201527f6573730000000000000000000000000000000000000000000000000000000000602082015250565b7f45524332303a20617070726f766520746f20746865207a65726f20616464726560008201527f7373000000000000000000000000000000000000000000000000000000000000602082015250565b7f72657761726420616d6f756e7420697320746f6f206c6f7720746f207769746860008201527f647261772061742074686973206d6f6d656d6e74000000000000000000000000602082015250565b7f4c5020746f6b656e20646f6573206e6f74206578697374000000000000000000600082015250565b7f45524332303a207472616e7366657220616d6f756e742065786365656473206260008201527f616c616e63650000000000000000000000000000000000000000000000000000602082015250565b7f6f6e6c792061646d696e00000000000000000000000000000000000000000000600082015250565b7f5769746864726177616c20616d6f756e7420726571756573746564206973206d60008201527f6f7265207468616e20737570706c696564206c69717569646974790000000000602082015250565b7f737570706c696564206c6971756964697479206973207a65726f000000000000600082015250565b7f616d6f756e742069732067726561746572207468616e20616c6c6f77616e636560008201527f20616d6f756e7400000000000000000000000000000000000000000000000000602082015250565b7f45524332303a207472616e7366657220616d6f756e742065786365656473206160008201527f6c6c6f77616e6365000000000000000000000000000000000000000000000000602082015250565b7f45524332303a207472616e736665722066726f6d20746865207a65726f20616460008201527f6472657373000000000000000000000000000000000000000000000000000000602082015250565b7f45524332303a20617070726f76652066726f6d20746865207a65726f2061646460008201527f7265737300000000000000000000000000000000000000000000000000000000602082015250565b7f77697468647261776c20616d6f756e742069732067726561746572207468616e60008201527f20616c6c6f77616e636520616d6f756e74000000000000000000000000000000602082015250565b7f746f6b656e20646f6573206e6f74206578697374000000000000000000000000600082015250565b7f45524332303a2064656372656173656420616c6c6f77616e63652062656c6f7760008201527f207a65726f000000000000000000000000000000000000000000000000000000602082015250565b7f6669617420746f6b656e20646f6573206e6f7420657869737400000000000000600082015250565b614f328161491b565b8114614f3d57600080fd5b50565b614f498161492d565b8114614f5457600080fd5b50565b614f6081614939565b8114614f6b57600080fd5b50565b614f7781614963565b8114614f8257600080fd5b5056fea2646970667358221220159eaa2edd67a7e6c5e9b17a031e4bd8c0bcfb7c3f2c882d4b50d7b1bc18e8fe64736f6c63430008040033",
  "linkReferences": {},
  "deployedLinkReferences": {}
}