{
  "_format": "hh-sol-artifact-1",
  "contractName": "RapidProtocol",
  "sourceName": "contracts/RapidProtocol.sol",
  "abi": [
    {
      "inputs": [
        {
          "internalType": "string",
          "name": "name",
          "type": "string"
        },
        {
          "internalType": "string",
          "name": "symbol",
          "type": "string"
        },
        {
          "internalType": "address",
          "name": "INR2USDfeedAddress",
          "type": "address"
        },
        {
          "internalType": "address",
          "name": "EURO2USDfeedAddress",
          "type": "address"
        }
      ],
      "stateMutability": "nonpayable",
      "type": "constructor"
    },
    {
      "anonymous": false,
      "inputs": [
        {
          "indexed": false,
          "internalType": "uint256",
          "name": "amount",
          "type": "uint256"
        },
        {
          "indexed": false,
          "internalType": "address",
          "name": "to",
          "type": "address"
        },
        {
          "indexed": false,
          "internalType": "bytes32",
          "name": "fiatSymbol",
          "type": "bytes32"
        },
        {
          "indexed": false,
          "internalType": "bytes32",
          "name": "lpSymbol",
          "type": "bytes32"
        }
      ],
      "name": "AddLiquidity",
      "type": "event"
    },
    {
      "anonymous": false,
      "inputs": [
        {
          "indexed": true,
          "internalType": "address",
          "name": "owner",
          "type": "address"
        },
        {
          "indexed": true,
          "internalType": "address",
          "name": "spender",
          "type": "address"
        },
        {
          "indexed": false,
          "internalType": "uint256",
          "name": "value",
          "type": "uint256"
        }
      ],
      "name": "Approval",
      "type": "event"
    },
    {
      "anonymous": false,
      "inputs": [
        {
          "indexed": true,
          "internalType": "address",
          "name": "from",
          "type": "address"
        },
        {
          "indexed": true,
          "internalType": "address",
          "name": "to",
          "type": "address"
        },
        {
          "indexed": false,
          "internalType": "uint256",
          "name": "value",
          "type": "uint256"
        }
      ],
      "name": "Transfer",
      "type": "event"
    },
    {
      "anonymous": false,
      "inputs": [
        {
          "indexed": false,
          "internalType": "uint256",
          "name": "amount",
          "type": "uint256"
        },
        {
          "indexed": false,
          "internalType": "address",
          "name": "to",
          "type": "address"
        },
        {
          "indexed": false,
          "internalType": "bytes32",
          "name": "destinationFiatSymbol",
          "type": "bytes32"
        }
      ],
      "name": "TransferFiat",
      "type": "event"
    },
    {
      "anonymous": false,
      "inputs": [
        {
          "indexed": false,
          "internalType": "uint256",
          "name": "amount",
          "type": "uint256"
        },
        {
          "indexed": false,
          "internalType": "address",
          "name": "to",
          "type": "address"
        },
        {
          "indexed": false,
          "internalType": "bytes32",
          "name": "fiatSymbol",
          "type": "bytes32"
        }
      ],
      "name": "WithdrawLiquidity",
      "type": "event"
    },
    {
      "inputs": [
        {
          "internalType": "bytes32",
          "name": "symbol",
          "type": "bytes32"
        },
        {
          "internalType": "address",
          "name": "tokenAddress",
          "type": "address"
        }
      ],
      "name": "addFiatToken",
      "outputs": [],
      "stateMutability": "nonpayable",
      "type": "function"
    },
    {
      "inputs": [
        {
          "internalType": "bytes32",
          "name": "symbol",
          "type": "bytes32"
        },
        {
          "internalType": "address",
          "name": "tokenAddress",
          "type": "address"
        }
      ],
      "name": "addLPToken",
      "outputs": [],
      "stateMutability": "nonpayable",
      "type": "function"
    },
    {
      "inputs": [
        {
          "internalType": "uint256",
          "name": "amount",
          "type": "uint256"
        },
        {
          "internalType": "address",
          "name": "to",
          "type": "address"
        },
        {
          "internalType": "bytes32",
          "name": "fiatSymbol",
          "type": "bytes32"
        },
        {
          "internalType": "bytes32",
          "name": "lpSymbol",
          "type": "bytes32"
        },
        {
          "internalType": "uint256",
          "name": "ratio",
          "type": "uint256"
        }
      ],
      "name": "addLiquidity",
      "outputs": [],
      "stateMutability": "nonpayable",
      "type": "function"
    },
    {
      "inputs": [],
      "name": "admin",
      "outputs": [
        {
          "internalType": "address",
          "name": "",
          "type": "address"
        }
      ],
      "stateMutability": "view",
      "type": "function"
    },
    {
      "inputs": [
        {
          "internalType": "address",
          "name": "owner",
          "type": "address"
        },
        {
          "internalType": "address",
          "name": "spender",
          "type": "address"
        }
      ],
      "name": "allowance",
      "outputs": [
        {
          "internalType": "uint256",
          "name": "",
          "type": "uint256"
        }
      ],
      "stateMutability": "view",
      "type": "function"
    },
    {
      "inputs": [
        {
          "internalType": "address",
          "name": "spender",
          "type": "address"
        },
        {
          "internalType": "uint256",
          "name": "amount",
          "type": "uint256"
        }
      ],
      "name": "approve",
      "outputs": [
        {
          "internalType": "bool",
          "name": "",
          "type": "bool"
        }
      ],
      "stateMutability": "nonpayable",
      "type": "function"
    },
    {
      "inputs": [
        {
          "internalType": "address",
          "name": "account",
          "type": "address"
        }
      ],
      "name": "balanceOf",
      "outputs": [
        {
          "internalType": "uint256",
          "name": "",
          "type": "uint256"
        }
      ],
      "stateMutability": "view",
      "type": "function"
    },
    {
      "inputs": [
        {
          "internalType": "uint256",
          "name": "destinationAmount",
          "type": "uint256"
        },
        {
          "internalType": "bytes32",
          "name": "destinationSymbol",
          "type": "bytes32"
        }
      ],
      "name": "calculateFee",
      "outputs": [
        {
          "internalType": "uint256",
          "name": "totalFee",
          "type": "uint256"
        }
      ],
      "stateMutability": "view",
      "type": "function"
    },
    {
      "inputs": [
        {
          "internalType": "uint256",
          "name": "sourceAmount",
          "type": "uint256"
        },
        {
          "internalType": "bytes32",
          "name": "sourceSymbol",
          "type": "bytes32"
        },
        {
          "internalType": "uint256",
          "name": "destinationAmount",
          "type": "uint256"
        },
        {
          "internalType": "bytes32",
          "name": "destinationSymbol",
          "type": "bytes32"
        }
      ],
      "name": "calculateFeeAndCashback",
      "outputs": [
        {
          "internalType": "uint256",
          "name": "totalFee",
          "type": "uint256"
        },
        {
          "internalType": "uint256",
          "name": "cashback",
          "type": "uint256"
        }
      ],
      "stateMutability": "view",
      "type": "function"
    },
    {
      "inputs": [
        {
          "internalType": "uint256",
          "name": "sourceAmount",
          "type": "uint256"
        },
        {
          "internalType": "uint256",
          "name": "destinationAmount",
          "type": "uint256"
        },
        {
          "internalType": "bytes32",
          "name": "destinationSymbol",
          "type": "bytes32"
        }
      ],
      "name": "calculateFeeInAmount",
      "outputs": [
        {
          "internalType": "uint256",
          "name": "totalFeeAmount",
          "type": "uint256"
        }
      ],
      "stateMutability": "view",
      "type": "function"
    },
    {
      "inputs": [
        {
          "internalType": "uint256",
          "name": "sourceAmount",
          "type": "uint256"
        },
        {
          "internalType": "bytes32",
          "name": "sourceSymbol",
          "type": "bytes32"
        }
      ],
      "name": "cashbackIPFees",
      "outputs": [
        {
          "internalType": "uint256",
          "name": "cashback",
          "type": "uint256"
        }
      ],
      "stateMutability": "view",
      "type": "function"
    },
    {
      "inputs": [],
      "name": "decimals",
      "outputs": [
        {
          "internalType": "uint8",
          "name": "",
          "type": "uint8"
        }
      ],
      "stateMutability": "view",
      "type": "function"
    },
    {
      "inputs": [
        {
          "internalType": "address",
          "name": "spender",
          "type": "address"
        },
        {
          "internalType": "uint256",
          "name": "subtractedValue",
          "type": "uint256"
        }
      ],
      "name": "decreaseAllowance",
      "outputs": [
        {
          "internalType": "bool",
          "name": "",
          "type": "bool"
        }
      ],
      "stateMutability": "nonpayable",
      "type": "function"
    },
    {
      "inputs": [
        {
          "internalType": "uint256",
          "name": "",
          "type": "uint256"
        }
      ],
      "name": "fiatTokenList",
      "outputs": [
        {
          "internalType": "bytes32",
          "name": "",
          "type": "bytes32"
        }
      ],
      "stateMutability": "view",
      "type": "function"
    },
    {
      "inputs": [
        {
          "internalType": "bytes32",
          "name": "",
          "type": "bytes32"
        }
      ],
      "name": "fiatTokens",
      "outputs": [
        {
          "internalType": "bytes32",
          "name": "symbol",
          "type": "bytes32"
        },
        {
          "internalType": "address",
          "name": "tokenAddress",
          "type": "address"
        }
      ],
      "stateMutability": "view",
      "type": "function"
    },
    {
      "inputs": [],
      "name": "getEURO2INRLatestPrice",
      "outputs": [
        {
          "internalType": "int256",
          "name": "",
          "type": "int256"
        },
        {
          "internalType": "uint256",
          "name": "",
          "type": "uint256"
        }
      ],
      "stateMutability": "view",
      "type": "function"
    },
    {
      "inputs": [],
      "name": "getEURO2USDLatestPrice",
      "outputs": [
        {
          "internalType": "int256",
          "name": "",
          "type": "int256"
        },
        {
          "internalType": "uint256",
          "name": "",
          "type": "uint256"
        }
      ],
      "stateMutability": "view",
      "type": "function"
    },
    {
      "inputs": [
        {
          "internalType": "bytes32",
          "name": "fiatSymbol",
          "type": "bytes32"
        }
      ],
      "name": "getEquilibriumFee",
      "outputs": [
        {
          "internalType": "uint256",
          "name": "fee",
          "type": "uint256"
        }
      ],
      "stateMutability": "view",
      "type": "function"
    },
    {
      "inputs": [],
      "name": "getFiatTokens",
      "outputs": [
        {
          "components": [
            {
              "internalType": "bytes32",
              "name": "symbol",
              "type": "bytes32"
            },
            {
              "internalType": "address",
              "name": "tokenAddress",
              "type": "address"
            }
          ],
          "internalType": "struct RapidProtocol.Token[]",
          "name": "",
          "type": "tuple[]"
        }
      ],
      "stateMutability": "view",
      "type": "function"
    },
    {
      "inputs": [],
      "name": "getINR2USDLatestPrice",
      "outputs": [
        {
          "internalType": "int256",
          "name": "",
          "type": "int256"
        },
        {
          "internalType": "uint256",
          "name": "",
          "type": "uint256"
        }
      ],
      "stateMutability": "view",
      "type": "function"
    },
    {
      "inputs": [
        {
          "internalType": "bytes32",
          "name": "symbol",
          "type": "bytes32"
        }
      ],
      "name": "getIPFee",
      "outputs": [
        {
          "internalType": "uint256",
          "name": "val",
          "type": "uint256"
        }
      ],
      "stateMutability": "view",
      "type": "function"
    },
    {
      "inputs": [
        {
          "internalType": "bytes32",
          "name": "symbol",
          "type": "bytes32"
        }
      ],
      "name": "getLPFee",
      "outputs": [
        {
          "internalType": "uint256",
          "name": "val",
          "type": "uint256"
        }
      ],
      "stateMutability": "view",
      "type": "function"
    },
    {
      "inputs": [],
      "name": "getLPTokens",
      "outputs": [
        {
          "components": [
            {
              "internalType": "bytes32",
              "name": "symbol",
              "type": "bytes32"
            },
            {
              "internalType": "address",
              "name": "tokenAddress",
              "type": "address"
            }
          ],
          "internalType": "struct RapidProtocol.Token[]",
          "name": "",
          "type": "tuple[]"
        }
      ],
      "stateMutability": "view",
      "type": "function"
    },
    {
      "inputs": [
        {
          "internalType": "address",
          "name": "user",
          "type": "address"
        },
        {
          "internalType": "bytes32",
          "name": "symbol",
          "type": "bytes32"
        }
      ],
      "name": "getLiquidity",
      "outputs": [
        {
          "internalType": "uint256",
          "name": "count",
          "type": "uint256"
        }
      ],
      "stateMutability": "view",
      "type": "function"
    },
    {
      "inputs": [
        {
          "internalType": "address",
          "name": "to",
          "type": "address"
        },
        {
          "internalType": "bytes32",
          "name": "fiatSymbol",
          "type": "bytes32"
        }
      ],
      "name": "getLiquidityFeeAccruced",
      "outputs": [
        {
          "internalType": "uint256",
          "name": "feeEarned",
          "type": "uint256"
        },
        {
          "internalType": "uint256",
          "name": "shareEarned",
          "type": "uint256"
        }
      ],
      "stateMutability": "view",
      "type": "function"
    },
    {
      "inputs": [
        {
          "internalType": "bytes32",
          "name": "toSymbol",
          "type": "bytes32"
        }
      ],
      "name": "getSuppliedLiquidity",
      "outputs": [
        {
          "internalType": "uint256",
          "name": "count",
          "type": "uint256"
        }
      ],
      "stateMutability": "view",
      "type": "function"
    },
    {
      "inputs": [
        {
          "internalType": "address",
          "name": "spender",
          "type": "address"
        },
        {
          "internalType": "uint256",
          "name": "addedValue",
          "type": "uint256"
        }
      ],
      "name": "increaseAllowance",
      "outputs": [
        {
          "internalType": "bool",
          "name": "",
          "type": "bool"
        }
      ],
      "stateMutability": "nonpayable",
      "type": "function"
    },
    {
      "inputs": [
        {
          "internalType": "bytes32",
          "name": "",
          "type": "bytes32"
        }
      ],
      "name": "ipFeePool",
      "outputs": [
        {
          "internalType": "uint256",
          "name": "",
          "type": "uint256"
        }
      ],
      "stateMutability": "view",
      "type": "function"
    },
    {
      "inputs": [
        {
          "internalType": "bytes32",
          "name": "",
          "type": "bytes32"
        }
      ],
      "name": "liquidityFactor",
      "outputs": [
        {
          "internalType": "uint256",
          "name": "",
          "type": "uint256"
        }
      ],
      "stateMutability": "view",
      "type": "function"
    },
    {
      "inputs": [
        {
          "internalType": "address",
          "name": "",
          "type": "address"
        },
        {
          "internalType": "bytes32",
          "name": "",
          "type": "bytes32"
        }
      ],
      "name": "liquidityProvider",
      "outputs": [
        {
          "internalType": "uint256",
          "name": "",
          "type": "uint256"
        }
      ],
      "stateMutability": "view",
      "type": "function"
    },
    {
      "inputs": [
        {
          "internalType": "address",
          "name": "",
          "type": "address"
        },
        {
          "internalType": "bytes32",
          "name": "",
          "type": "bytes32"
        }
      ],
      "name": "lpFee2Withdraw",
      "outputs": [
        {
          "internalType": "uint256",
          "name": "",
          "type": "uint256"
        }
      ],
      "stateMutability": "view",
      "type": "function"
    },
    {
      "inputs": [
        {
          "internalType": "bytes32",
          "name": "",
          "type": "bytes32"
        }
      ],
      "name": "lpFeePool",
      "outputs": [
        {
          "internalType": "uint256",
          "name": "",
          "type": "uint256"
        }
      ],
      "stateMutability": "view",
      "type": "function"
    },
    {
      "inputs": [
        {
          "internalType": "uint256",
          "name": "",
          "type": "uint256"
        }
      ],
      "name": "lpTokenList",
      "outputs": [
        {
          "internalType": "bytes32",
          "name": "",
          "type": "bytes32"
        }
      ],
      "stateMutability": "view",
      "type": "function"
    },
    {
      "inputs": [
        {
          "internalType": "bytes32",
          "name": "",
          "type": "bytes32"
        }
      ],
      "name": "lpTokens",
      "outputs": [
        {
          "internalType": "bytes32",
          "name": "symbol",
          "type": "bytes32"
        },
        {
          "internalType": "address",
          "name": "tokenAddress",
          "type": "address"
        }
      ],
      "stateMutability": "view",
      "type": "function"
    },
    {
      "inputs": [],
      "name": "name",
      "outputs": [
        {
          "internalType": "string",
          "name": "",
          "type": "string"
        }
      ],
      "stateMutability": "view",
      "type": "function"
    },
    {
      "inputs": [
        {
          "internalType": "uint256",
          "name": "bd",
          "type": "uint256"
        }
      ],
      "name": "setBaseDivisor",
      "outputs": [],
      "stateMutability": "nonpayable",
      "type": "function"
    },
    {
      "inputs": [
        {
          "internalType": "bytes32",
          "name": "fiatSymbol",
          "type": "bytes32"
        },
        {
          "internalType": "uint256",
          "name": "fee",
          "type": "uint256"
        }
      ],
      "name": "setEquilibriumFee",
      "outputs": [],
      "stateMutability": "nonpayable",
      "type": "function"
    },
    {
      "inputs": [
        {
          "internalType": "bytes32",
          "name": "fiatSymbol",
          "type": "bytes32"
        },
        {
          "internalType": "uint256",
          "name": "factor",
          "type": "uint256"
        }
      ],
      "name": "setLiquidityFactor",
      "outputs": [],
      "stateMutability": "nonpayable",
      "type": "function"
    },
    {
      "inputs": [
        {
          "internalType": "bytes32",
          "name": "",
          "type": "bytes32"
        }
      ],
      "name": "suppliedLiquidity",
      "outputs": [
        {
          "internalType": "uint256",
          "name": "",
          "type": "uint256"
        }
      ],
      "stateMutability": "view",
      "type": "function"
    },
    {
      "inputs": [],
      "name": "symbol",
      "outputs": [
        {
          "internalType": "string",
          "name": "",
          "type": "string"
        }
      ],
      "stateMutability": "view",
      "type": "function"
    },
    {
      "inputs": [],
      "name": "token",
      "outputs": [
        {
          "internalType": "contract ERC20",
          "name": "",
          "type": "address"
        }
      ],
      "stateMutability": "view",
      "type": "function"
    },
    {
      "inputs": [],
      "name": "totalSupply",
      "outputs": [
        {
          "internalType": "uint256",
          "name": "",
          "type": "uint256"
        }
      ],
      "stateMutability": "view",
      "type": "function"
    },
    {
      "inputs": [
        {
          "internalType": "address",
          "name": "recipient",
          "type": "address"
        },
        {
          "internalType": "uint256",
          "name": "amount",
          "type": "uint256"
        }
      ],
      "name": "transfer",
      "outputs": [
        {
          "internalType": "bool",
          "name": "",
          "type": "bool"
        }
      ],
      "stateMutability": "nonpayable",
      "type": "function"
    },
    {
      "inputs": [
        {
          "internalType": "address",
          "name": "to",
          "type": "address"
        },
        {
          "internalType": "uint256",
          "name": "destinationAmount",
          "type": "uint256"
        },
        {
          "internalType": "bytes32",
          "name": "destinationFiatSymbol",
          "type": "bytes32"
        },
        {
          "internalType": "uint256",
          "name": "sourceAmount",
          "type": "uint256"
        },
        {
          "internalType": "bytes32",
          "name": "sourceFiatSymbol",
          "type": "bytes32"
        }
      ],
      "name": "transferFiat",
      "outputs": [],
      "stateMutability": "nonpayable",
      "type": "function"
    },
    {
      "inputs": [
        {
          "internalType": "address",
          "name": "sender",
          "type": "address"
        },
        {
          "internalType": "address",
          "name": "recipient",
          "type": "address"
        },
        {
          "internalType": "uint256",
          "name": "amount",
          "type": "uint256"
        }
      ],
      "name": "transferFrom",
      "outputs": [
        {
          "internalType": "bool",
          "name": "",
          "type": "bool"
        }
      ],
      "stateMutability": "nonpayable",
      "type": "function"
    },
    {
      "inputs": [
        {
          "internalType": "uint256",
          "name": "amount",
          "type": "uint256"
        },
        {
          "internalType": "address",
          "name": "to",
          "type": "address"
        },
        {
          "internalType": "bytes32",
          "name": "fiatSymbol",
          "type": "bytes32"
        },
        {
          "internalType": "bytes32",
          "name": "lpSymbol",
          "type": "bytes32"
        }
      ],
      "name": "withdrawLiquidity",
      "outputs": [],
      "stateMutability": "nonpayable",
      "type": "function"
    }
  ],
  "bytecode": "0x6080604052620f4240601055612710601155670de0b6b3a76400006012553480156200002a57600080fd5b50604051620059d2380380620059d2833981810160405281019062000050919062000290565b8181858581600390805190602001906200006c92919062000157565b5080600490805190602001906200008592919062000157565b50505081600560006101000a81548173ffffffffffffffffffffffffffffffffffffffff021916908373ffffffffffffffffffffffffffffffffffffffff16021790555080600660006101000a81548173ffffffffffffffffffffffffffffffffffffffff021916908373ffffffffffffffffffffffffffffffffffffffff160217905550505033600960006101000a81548173ffffffffffffffffffffffffffffffffffffffff021916908373ffffffffffffffffffffffffffffffffffffffff16021790555050505050620004ec565b8280546200016590620003f7565b90600052602060002090601f016020900481019282620001895760008555620001d5565b82601f10620001a457805160ff1916838001178555620001d5565b82800160010185558215620001d5579182015b82811115620001d4578251825591602001919060010190620001b7565b5b509050620001e49190620001e8565b5090565b5b8082111562000203576000816000905550600101620001e9565b5090565b60006200021e620002188462000357565b6200032e565b9050828152602081018484840111156200023757600080fd5b62000244848285620003c1565b509392505050565b6000815190506200025d81620004d2565b92915050565b600082601f8301126200027557600080fd5b81516200028784826020860162000207565b91505092915050565b60008060008060808587031215620002a757600080fd5b600085015167ffffffffffffffff811115620002c257600080fd5b620002d08782880162000263565b945050602085015167ffffffffffffffff811115620002ee57600080fd5b620002fc8782880162000263565b93505060406200030f878288016200024c565b925050606062000322878288016200024c565b91505092959194509250565b60006200033a6200034d565b90506200034882826200042d565b919050565b6000604051905090565b600067ffffffffffffffff82111562000375576200037462000492565b5b6200038082620004c1565b9050602081019050919050565b60006200039a82620003a1565b9050919050565b600073ffffffffffffffffffffffffffffffffffffffff82169050919050565b60005b83811015620003e1578082015181840152602081019050620003c4565b83811115620003f1576000848401525b50505050565b600060028204905060018216806200041057607f821691505b6020821081141562000427576200042662000463565b5b50919050565b6200043882620004c1565b810181811067ffffffffffffffff821117156200045a576200045962000492565b5b80604052505050565b7f4e487b7100000000000000000000000000000000000000000000000000000000600052602260045260246000fd5b7f4e487b7100000000000000000000000000000000000000000000000000000000600052604160045260246000fd5b6000601f19601f8301169050919050565b620004dd816200038d565b8114620004e957600080fd5b50565b6154d680620004fc6000396000f3fe608060405234801561001057600080fd5b506004361061028a5760003560e01c806377dcf5cc1161015c578063c2ec6c9a116100ce578063eca3b53011610087578063eca3b530146108e5578063f339c92014610916578063f851a44014610946578063fb47968614610964578063fc0c546a14610982578063fee30ffa146109a05761028a565b8063c2ec6c9a146107f9578063cb46dc3e1461082a578063cf605fcd14610849578063d92546701461087a578063dd62ed3e14610899578063e2802b88146108c95761028a565b8063890277371161012057806389027737146106eb57806392d356ce1461071b57806395d89b411461074b578063979c463114610769578063a457c2d714610799578063a9059cbb146107c95761028a565b806377dcf5cc14610623578063798446ec1461065357806379f4574d146106835780637b005740146106b35780637dd5f6fd146106cf5761028a565b8063313ce5671161020057806358800c48116101b957806358800c481461052857806359ca25dd146105585780636b74ae0114610577578063706bc02d1461059357806370a08231146105c3578063767b6254146105f35761028a565b8063313ce5671461041957806339509351146104375780633a652b9014610467578063402d037e14610497578063430dca50146104c75780635030506c146104f85761028a565b8063142b8b8e11610252578063142b8b8e1461035b57806318160ddd1461037757806323b872dd1461039557806325a78e88146103c55780632d28e929146103e157806330ba5004146103fd5761028a565b80630459e5aa1461028f57806306fdde03146102bf57806307ac6473146102dd578063095ea7b31461030d5780631224abfb1461033d575b600080fd5b6102a960048036038101906102a4919061408b565b6109d0565b6040516102b6919061489a565b60405180910390f35b6102c7610aa0565b6040516102d49190614678565b60405180910390f35b6102f760048036038101906102f29190613e1f565b610b32565b604051610304919061489a565b60405180910390f35b61032760048036038101906103229190613d43565b610b4a565b60405161033491906145d5565b60405180910390f35b610345610b68565b60405161035291906145b3565b60405180910390f35b61037560048036038101906103709190613f75565b610d5b565b005b61037f611229565b60405161038c919061489a565b60405180910390f35b6103af60048036038101906103aa9190613cb8565b611233565b6040516103bc91906145d5565b60405180910390f35b6103df60048036038101906103da9190613f12565b61132b565b005b6103fb60048036038101906103f69190613e84565b6117d5565b005b61041760048036038101906104129190613ec0565b611881565b005b61042161191b565b60405161042e919061495a565b60405180910390f35b610451600480360381019061044c9190613d43565b611924565b60405161045e91906145d5565b60405180910390f35b610481600480360381019061047c9190613fec565b6119d0565b60405161048e919061489a565b60405180910390f35b6104b160048036038101906104ac9190613e1f565b611d45565b6040516104be919061489a565b60405180910390f35b6104e160048036038101906104dc9190613e1f565b611d5d565b6040516104ef92919061460b565b60405180910390f35b610512600480360381019061050d9190613d07565b611da1565b60405161051f919061489a565b60405180910390f35b610542600480360381019061053d9190613e1f565b611dc6565b60405161054f919061489a565b60405180910390f35b610560611e09565b60405161056e92919061464f565b60405180910390f35b610591600480360381019061058c9190613e84565b611f6a565b005b6105ad60048036038101906105a89190613d07565b612016565b6040516105ba919061489a565b60405180910390f35b6105dd60048036038101906105d89190613c53565b612071565b6040516105ea919061489a565b60405180910390f35b61060d60048036038101906106089190613fec565b6120b9565b60405161061a919061489a565b60405180910390f35b61063d60048036038101906106389190613e1f565b612352565b60405161064a919061489a565b60405180910390f35b61066d60048036038101906106689190613e1f565b61236f565b60405161067a919061489a565b60405180910390f35b61069d60048036038101906106989190613e1f565b612387565b6040516106aa919061489a565b60405180910390f35b6106cd60048036038101906106c89190613d7f565b61239f565b005b6106e960048036038101906106e49190613e48565b6126f9565b005b61070560048036038101906107009190613d07565b612848565b604051610712919061489a565b60405180910390f35b61073560048036038101906107309190613e1f565b61286d565b604051610742919061489a565b60405180910390f35b61075361288a565b6040516107609190614678565b60405180910390f35b610783600480360381019061077e9190613ec0565b61291c565b60405161079091906145f0565b60405180910390f35b6107b360048036038101906107ae9190613d43565b612940565b6040516107c091906145d5565b60405180910390f35b6107e360048036038101906107de9190613d43565b612a2b565b6040516107f091906145d5565b60405180910390f35b610813600480360381019061080e9190614028565b612a49565b604051610821929190614931565b60405180910390f35b610832612b09565b60405161084092919061464f565b60405180910390f35b610863600480360381019061085e9190613e1f565b612c6a565b60405161087192919061460b565b60405180910390f35b610882612cae565b60405161089092919061464f565b60405180910390f35b6108b360048036038101906108ae9190613c7c565b612ed8565b6040516108c0919061489a565b60405180910390f35b6108e360048036038101906108de9190613e48565b612f5f565b005b6108ff60048036038101906108fa9190613d07565b6130ae565b60405161090d929190614931565b60405180910390f35b610930600480360381019061092b9190613ec0565b6132cf565b60405161093d91906145f0565b60405180910390f35b61094e6132f3565b60405161095b919061450f565b60405180910390f35b61096c613319565b60405161097991906145b3565b60405180910390f35b61098a61350c565b6040516109979190614634565b60405180910390f35b6109ba60048036038101906109b59190613e1f565b613532565b6040516109c7919061489a565b60405180910390f35b6000600960009054906101000a900473ffffffffffffffffffffffffffffffffffffffff1673ffffffffffffffffffffffffffffffffffffffff163373ffffffffffffffffffffffffffffffffffffffff1614610a62576040517f08c379a0000000000000000000000000000000000000000000000000000000008152600401610a599061473a565b60405180910390fd5b6000610a6e84846119d0565b90506127108582612710610a8291906149ca565b610a8c9190614d43565b610a969190614a8a565b9150509392505050565b606060038054610aaf90614ea7565b80601f0160208091040260200160405190810160405280929190818152602001828054610adb90614ea7565b8015610b285780601f10610afd57610100808354040283529160200191610b28565b820191906000526020600020905b815481529060010190602001808311610b0b57829003601f168201915b5050505050905090565b60146020528060005260406000206000915090505481565b6000610b5e610b5761354f565b8484613557565b6001905092915050565b60606000600d8054905067ffffffffffffffff811115610bb1577f4e487b7100000000000000000000000000000000000000000000000000000000600052604160045260246000fd5b604051908082528060200260200182016040528015610bea57816020015b610bd7613b78565b815260200190600190039081610bcf5790505b50905060005b600c80549050811015610d53576040518060400160405280600b6000600d8581548110610c46577f4e487b7100000000000000000000000000000000000000000000000000000000600052603260045260246000fd5b90600052602060002001548152602001908152602001600020600001548152602001600b6000600d8581548110610ca6577f4e487b7100000000000000000000000000000000000000000000000000000000600052603260045260246000fd5b9060005260206000200154815260200190815260200160002060010160009054906101000a900473ffffffffffffffffffffffffffffffffffffffff1673ffffffffffffffffffffffffffffffffffffffff16815250828281518110610d35577f4e487b7100000000000000000000000000000000000000000000000000000000600052603260045260246000fd5b60200260200101819052508080610d4b90614ed9565b915050610bf0565b508091505090565b82600073ffffffffffffffffffffffffffffffffffffffff16600a600083815260200190815260200160002060010160009054906101000a900473ffffffffffffffffffffffffffffffffffffffff1673ffffffffffffffffffffffffffffffffffffffff161415610e02576040517f08c379a0000000000000000000000000000000000000000000000000000000008152600401610df99061487a565b60405180910390fd5b82600073ffffffffffffffffffffffffffffffffffffffff16600b600083815260200190815260200160002060010160009054906101000a900473ffffffffffffffffffffffffffffffffffffffff1673ffffffffffffffffffffffffffffffffffffffff161415610ea9576040517f08c379a0000000000000000000000000000000000000000000000000000000008152600401610ea0906146fa565b60405180910390fd5b6000600a600087815260200190815260200160002060010160009054906101000a900473ffffffffffffffffffffffffffffffffffffffff1673ffffffffffffffffffffffffffffffffffffffff1663dd62ed3e88306040518363ffffffff1660e01b8152600401610f1c92919061452a565b60206040518083038186803b158015610f3457600080fd5b505afa158015610f48573d6000803e3d6000fd5b505050506040513d601f19601f82011682018060405250810190610f6c9190613ee9565b905087811015610fb1576040517f08c379a0000000000000000000000000000000000000000000000000000000008152600401610fa89061479a565b60405180910390fd5b600a600087815260200190815260200160002060010160009054906101000a900473ffffffffffffffffffffffffffffffffffffffff1673ffffffffffffffffffffffffffffffffffffffff166323b872dd8830878c6110119190614d43565b6040518463ffffffff1660e01b815260040161102f93929190614553565b602060405180830381600087803b15801561104957600080fd5b505af115801561105d573d6000803e3d6000fd5b505050506040513d601f19601f820116820180604052508101906110819190613df6565b50600b600086815260200190815260200160002060010160009054906101000a900473ffffffffffffffffffffffffffffffffffffffff1673ffffffffffffffffffffffffffffffffffffffff1663a9059cbb88868b6110e19190614d43565b6040518363ffffffff1660e01b81526004016110fe92919061458a565b602060405180830381600087803b15801561111857600080fd5b505af115801561112c573d6000803e3d6000fd5b505050506040513d601f19601f820116820180604052508101906111509190613df6565b508760136000888152602001908152602001600020600082825461117491906149ca565b9250508190555087601660008973ffffffffffffffffffffffffffffffffffffffff1673ffffffffffffffffffffffffffffffffffffffff168152602001908152602001600020600088815260200190815260200160002060008282546111db91906149ca565b925050819055507f7057e4110944b1fc1e9acefd0b0abea5a15e4a8795fb9663e8bfce5e304b32818888888860405161121794939291906148ec565b60405180910390a15050505050505050565b6000600254905090565b6000611240848484613722565b6000600160008673ffffffffffffffffffffffffffffffffffffffff1673ffffffffffffffffffffffffffffffffffffffff168152602001908152602001600020600061128b61354f565b73ffffffffffffffffffffffffffffffffffffffff1673ffffffffffffffffffffffffffffffffffffffff1681526020019081526020016000205490508281101561130b576040517f08c379a0000000000000000000000000000000000000000000000000000000008152600401611302906147ba565b60405180910390fd5b61131f8561131761354f565b858403613557565b60019150509392505050565b81600073ffffffffffffffffffffffffffffffffffffffff16600a600083815260200190815260200160002060010160009054906101000a900473ffffffffffffffffffffffffffffffffffffffff1673ffffffffffffffffffffffffffffffffffffffff1614156113d2576040517f08c379a00000000000000000000000000000000000000000000000000000000081526004016113c99061487a565b60405180910390fd5b6000600b600084815260200190815260200160002060010160009054906101000a900473ffffffffffffffffffffffffffffffffffffffff1673ffffffffffffffffffffffffffffffffffffffff1663dd62ed3e86306040518363ffffffff1660e01b815260040161144592919061452a565b60206040518083038186803b15801561145d57600080fd5b505afa158015611471573d6000803e3d6000fd5b505050506040513d601f19601f820116820180604052508101906114959190613ee9565b9050858110156114da576040517f08c379a00000000000000000000000000000000000000000000000000000000081526004016114d19061481a565b60405180910390fd5b600b600084815260200190815260200160002060010160009054906101000a900473ffffffffffffffffffffffffffffffffffffffff1673ffffffffffffffffffffffffffffffffffffffff166323b872dd8630896040518463ffffffff1660e01b815260040161154d93929190614553565b602060405180830381600087803b15801561156757600080fd5b505af115801561157b573d6000803e3d6000fd5b505050506040513d601f19601f8201168201806040525081019061159f9190613df6565b5085601660008773ffffffffffffffffffffffffffffffffffffffff1673ffffffffffffffffffffffffffffffffffffffff1681526020019081526020016000206000868152602001908152602001600020541015611633576040517f08c379a000000000000000000000000000000000000000000000000000000000815260040161162a9061475a565b60405180910390fd5b600a600085815260200190815260200160002060010160009054906101000a900473ffffffffffffffffffffffffffffffffffffffff1673ffffffffffffffffffffffffffffffffffffffff1663a9059cbb86886040518363ffffffff1660e01b81526004016116a492919061458a565b602060405180830381600087803b1580156116be57600080fd5b505af11580156116d2573d6000803e3d6000fd5b505050506040513d601f19601f820116820180604052508101906116f69190613df6565b5061170185856139a3565b856013600086815260200190815260200160002060008282546117249190614d9d565b9250508190555085601660008773ffffffffffffffffffffffffffffffffffffffff1673ffffffffffffffffffffffffffffffffffffffff1681526020019081526020016000206000868152602001908152602001600020600082825461178b9190614d9d565b925050819055507f246236c6eaed201562b17153fd5d070b8b6fc49ccd3459a6c7282146317fb9528686866040516117c5939291906148b5565b60405180910390a1505050505050565b600960009054906101000a900473ffffffffffffffffffffffffffffffffffffffff1673ffffffffffffffffffffffffffffffffffffffff163373ffffffffffffffffffffffffffffffffffffffff1614611865576040517f08c379a000000000000000000000000000000000000000000000000000000000815260040161185c9061473a565b60405180910390fd5b80600f6000848152602001908152602001600020819055505050565b600960009054906101000a900473ffffffffffffffffffffffffffffffffffffffff1673ffffffffffffffffffffffffffffffffffffffff163373ffffffffffffffffffffffffffffffffffffffff1614611911576040517f08c379a00000000000000000000000000000000000000000000000000000000081526004016119089061473a565b60405180910390fd5b8060108190555050565b60006012905090565b60006119c661193161354f565b84846001600061193f61354f565b73ffffffffffffffffffffffffffffffffffffffff1673ffffffffffffffffffffffffffffffffffffffff16815260200190815260200160002060008873ffffffffffffffffffffffffffffffffffffffff1673ffffffffffffffffffffffffffffffffffffffff168152602001908152602001600020546119c191906149ca565b613557565b6001905092915050565b6000600960009054906101000a900473ffffffffffffffffffffffffffffffffffffffff1673ffffffffffffffffffffffffffffffffffffffff163373ffffffffffffffffffffffffffffffffffffffff1614611a62576040517f08c379a0000000000000000000000000000000000000000000000000000000008152600401611a599061473a565b60405180910390fd5b600073ffffffffffffffffffffffffffffffffffffffff16600a600084815260200190815260200160002060010160009054906101000a900473ffffffffffffffffffffffffffffffffffffffff1673ffffffffffffffffffffffffffffffffffffffff161415611b08576040517f08c379a0000000000000000000000000000000000000000000000000000000008152600401611aff9061483a565b60405180910390fd5b6000806014600e6000868152602001908152602001600020541015611b305760149050611b47565b600e60008581526020019081526020016000205490505b84600a600086815260200190815260200160002060010160009054906101000a900473ffffffffffffffffffffffffffffffffffffffff1673ffffffffffffffffffffffffffffffffffffffff166370a08231306040518263ffffffff1660e01b8152600401611bb7919061450f565b60206040518083038186803b158015611bcf57600080fd5b505afa158015611be3573d6000803e3d6000fd5b505050506040513d601f19601f82011682018060405250810190611c079190613ee9565b611c119190614d9d565b915060136000858152602001908152602001600020548210611c37578092505050611d3f565b60006002600f6000878152602001908152602001600020541015611c5e5760029050611c75565b600f60008681526020019081526020016000205490505b6000601360008781526020019081526020016000205460105485601360008a815260200190815260200160002054611cad9190614d9d565b611cb79190614d43565b611cc19190614a8a565b90506000600283611cd29190614d9d565b6103e8611cdf9190614b0e565b601054611cec9190614d43565b836010546103e885611cfe9190614d43565b611d089190614a8a565b6103e8611d1591906149ca565b611d1f9190614b0e565b85611d2a9190614d43565b611d349190614a8a565b905080955050505050505b92915050565b60136020528060005260406000206000915090505481565b600b6020528060005260406000206000915090508060000154908060010160009054906101000a900473ffffffffffffffffffffffffffffffffffffffff16905082565b6016602052816000526040600020602052806000526040600020600091509150505481565b60006014600e6000848152602001908152602001600020541015611ded5760149050611e04565b600e60008381526020019081526020016000205490505b919050565b6000806000600560009054906101000a900473ffffffffffffffffffffffffffffffffffffffff1673ffffffffffffffffffffffffffffffffffffffff1663feaf968c6040518163ffffffff1660e01b815260040160a06040518083038186803b158015611e7657600080fd5b505afa158015611e8a573d6000803e3d6000fd5b505050506040513d601f19601f82011682018060405250810190611eae91906140da565b5050509150506000600560009054906101000a900473ffffffffffffffffffffffffffffffffffffffff1673ffffffffffffffffffffffffffffffffffffffff1663313ce5676040518163ffffffff1660e01b815260040160206040518083038186803b158015611f1e57600080fd5b505afa158015611f32573d6000803e3d6000fd5b505050506040513d601f19601f82011682018060405250810190611f569190614151565b905081818060ff1690509350935050509091565b600960009054906101000a900473ffffffffffffffffffffffffffffffffffffffff1673ffffffffffffffffffffffffffffffffffffffff163373ffffffffffffffffffffffffffffffffffffffff1614611ffa576040517f08c379a0000000000000000000000000000000000000000000000000000000008152600401611ff19061473a565b60405180910390fd5b80600e6000848152602001908152602001600020819055505050565b6000601660008473ffffffffffffffffffffffffffffffffffffffff1673ffffffffffffffffffffffffffffffffffffffff168152602001908152602001600020600083815260200190815260200160002054905092915050565b60008060008373ffffffffffffffffffffffffffffffffffffffff1673ffffffffffffffffffffffffffffffffffffffff168152602001908152602001600020549050919050565b6000600960009054906101000a900473ffffffffffffffffffffffffffffffffffffffff1673ffffffffffffffffffffffffffffffffffffffff163373ffffffffffffffffffffffffffffffffffffffff161461214b576040517f08c379a00000000000000000000000000000000000000000000000000000000081526004016121429061473a565b60405180910390fd5b60008060008073ffffffffffffffffffffffffffffffffffffffff16600a600087815260200190815260200160002060010160009054906101000a900473ffffffffffffffffffffffffffffffffffffffff1673ffffffffffffffffffffffffffffffffffffffff1614156121f5576040517f08c379a00000000000000000000000000000000000000000000000000000000081526004016121ec9061483a565b60405180910390fd5b600a600086815260200190815260200160002060010160009054906101000a900473ffffffffffffffffffffffffffffffffffffffff1673ffffffffffffffffffffffffffffffffffffffff166370a08231306040518263ffffffff1660e01b8152600401612264919061450f565b60206040518083038186803b15801561227c57600080fd5b505afa158015612290573d6000803e3d6000fd5b505050506040513d601f19601f820116820180604052508101906122b49190613ee9565b92508260136000878152602001908152602001600020541115612345578260136000878152602001908152602001600020546122f09190614d9d565b915081861115612318576015600086815260200190815260200160002054935050505061234c565b816015600087815260200190815260200160002054876123389190614d43565b6123429190614a8a565b90505b8093505050505b92915050565b600060136000838152602001908152602001600020549050919050565b60156020528060005260406000206000915090505481565b600f6020528060005260406000206000915090505481565b82600073ffffffffffffffffffffffffffffffffffffffff16600a600083815260200190815260200160002060010160009054906101000a900473ffffffffffffffffffffffffffffffffffffffff1673ffffffffffffffffffffffffffffffffffffffff161415612446576040517f08c379a000000000000000000000000000000000000000000000000000000000815260040161243d9061487a565b60405180910390fd5b600960009054906101000a900473ffffffffffffffffffffffffffffffffffffffff1673ffffffffffffffffffffffffffffffffffffffff163373ffffffffffffffffffffffffffffffffffffffff16146124d6576040517f08c379a00000000000000000000000000000000000000000000000000000000081526004016124cd9061473a565b60405180910390fd5b60006014600e60008781526020019081526020016000205410156124fd5760149050612514565b600e60008681526020019081526020016000205490505b600061252085856120b9565b9050600061252e88886119d0565b90506000838261253e9190614d9d565b9050826015600088815260200190815260200160002060008282546125639190614d9d565b9250508190555061271089856125799190614d43565b6125839190614a8a565b601460008a815260200190815260200160002060008282546125a591906149ca565b9250508190555061271089826125bb9190614d43565b6125c59190614a8a565b601560008a815260200190815260200160002060008282546125e791906149ca565b92505081905550600a600089815260200190815260200160002060010160009054906101000a900473ffffffffffffffffffffffffffffffffffffffff1673ffffffffffffffffffffffffffffffffffffffff1663a9059cbb8b8b6040518363ffffffff1660e01b815260040161265f92919061458a565b602060405180830381600087803b15801561267957600080fd5b505af115801561268d573d6000803e3d6000fd5b505050506040513d601f19601f820116820180604052508101906126b19190613df6565b507f10d816247ce26817ec32a37ad18e09ddbe49fa88a1ed5c4fe05432123f55f112898b8a6040516126e5939291906148b5565b60405180910390a150505050505050505050565b600960009054906101000a900473ffffffffffffffffffffffffffffffffffffffff1673ffffffffffffffffffffffffffffffffffffffff163373ffffffffffffffffffffffffffffffffffffffff1614612789576040517f08c379a00000000000000000000000000000000000000000000000000000000081526004016127809061473a565b60405180910390fd5b60405180604001604052808381526020018273ffffffffffffffffffffffffffffffffffffffff16815250600a60008481526020019081526020016000206000820151816000015560208201518160010160006101000a81548173ffffffffffffffffffffffffffffffffffffffff021916908373ffffffffffffffffffffffffffffffffffffffff160217905550905050600c8290806001815401808255809150506001900390600052602060002001600090919091909150555050565b6017602052816000526040600020602052806000526040600020600091509150505481565b600060156000838152602001908152602001600020549050919050565b60606004805461289990614ea7565b80601f01602080910402602001604051908101604052809291908181526020018280546128c590614ea7565b80156129125780601f106128e757610100808354040283529160200191612912565b820191906000526020600020905b8154815290600101906020018083116128f557829003601f168201915b5050505050905090565b600d818154811061292c57600080fd5b906000526020600020016000915090505481565b6000806001600061294f61354f565b73ffffffffffffffffffffffffffffffffffffffff1673ffffffffffffffffffffffffffffffffffffffff16815260200190815260200160002060008573ffffffffffffffffffffffffffffffffffffffff1673ffffffffffffffffffffffffffffffffffffffff16815260200190815260200160002054905082811015612a0c576040517f08c379a0000000000000000000000000000000000000000000000000000000008152600401612a039061485a565b60405180910390fd5b612a20612a1761354f565b85858403613557565b600191505092915050565b6000612a3f612a3861354f565b8484613722565b6001905092915050565b600080600960009054906101000a900473ffffffffffffffffffffffffffffffffffffffff1673ffffffffffffffffffffffffffffffffffffffff163373ffffffffffffffffffffffffffffffffffffffff1614612adc576040517f08c379a0000000000000000000000000000000000000000000000000000000008152600401612ad39061473a565b60405180910390fd5b6000612ae887876120b9565b90506000612af686866119d0565b9050808293509350505094509492505050565b6000806000600660009054906101000a900473ffffffffffffffffffffffffffffffffffffffff1673ffffffffffffffffffffffffffffffffffffffff1663feaf968c6040518163ffffffff1660e01b815260040160a06040518083038186803b158015612b7657600080fd5b505afa158015612b8a573d6000803e3d6000fd5b505050506040513d601f19601f82011682018060405250810190612bae91906140da565b5050509150506000600660009054906101000a900473ffffffffffffffffffffffffffffffffffffffff1673ffffffffffffffffffffffffffffffffffffffff1663313ce5676040518163ffffffff1660e01b815260040160206040518083038186803b158015612c1e57600080fd5b505afa158015612c32573d6000803e3d6000fd5b505050506040513d601f19601f82011682018060405250810190612c569190614151565b905081818060ff1690509350935050509091565b600a6020528060005260406000206000915090508060000154908060010160009054906101000a900473ffffffffffffffffffffffffffffffffffffffff16905082565b6000806000600560009054906101000a900473ffffffffffffffffffffffffffffffffffffffff1673ffffffffffffffffffffffffffffffffffffffff1663feaf968c6040518163ffffffff1660e01b815260040160a06040518083038186803b158015612d1b57600080fd5b505afa158015612d2f573d6000803e3d6000fd5b505050506040513d601f19601f82011682018060405250810190612d5391906140da565b5050509150506000600560009054906101000a900473ffffffffffffffffffffffffffffffffffffffff1673ffffffffffffffffffffffffffffffffffffffff1663313ce5676040518163ffffffff1660e01b815260040160206040518083038186803b158015612dc357600080fd5b505afa158015612dd7573d6000803e3d6000fd5b505050506040513d601f19601f82011682018060405250810190612dfb9190614151565b90506000600660009054906101000a900473ffffffffffffffffffffffffffffffffffffffff1673ffffffffffffffffffffffffffffffffffffffff1663feaf968c6040518163ffffffff1660e01b815260040160a06040518083038186803b158015612e6757600080fd5b505afa158015612e7b573d6000803e3d6000fd5b505050506040513d601f19601f82011682018060405250810190612e9f91906140da565b5050509150506000836305f5e10083612eb89190614c2c565b612ec29190614a20565b905080838060ff16905095509550505050509091565b6000600160008473ffffffffffffffffffffffffffffffffffffffff1673ffffffffffffffffffffffffffffffffffffffff16815260200190815260200160002060008373ffffffffffffffffffffffffffffffffffffffff1673ffffffffffffffffffffffffffffffffffffffff16815260200190815260200160002054905092915050565b600960009054906101000a900473ffffffffffffffffffffffffffffffffffffffff1673ffffffffffffffffffffffffffffffffffffffff163373ffffffffffffffffffffffffffffffffffffffff1614612fef576040517f08c379a0000000000000000000000000000000000000000000000000000000008152600401612fe69061473a565b60405180910390fd5b60405180604001604052808381526020018273ffffffffffffffffffffffffffffffffffffffff16815250600b60008481526020019081526020016000206000820151816000015560208201518160010160006101000a81548173ffffffffffffffffffffffffffffffffffffffff021916908373ffffffffffffffffffffffffffffffffffffffff160217905550905050600d8290806001815401808255809150506001900390600052602060002001600090919091909150555050565b60008082600073ffffffffffffffffffffffffffffffffffffffff16600a600083815260200190815260200160002060010160009054906101000a900473ffffffffffffffffffffffffffffffffffffffff1673ffffffffffffffffffffffffffffffffffffffff161415613158576040517f08c379a000000000000000000000000000000000000000000000000000000000815260040161314f9061487a565b60405180910390fd5b60006013600086815260200190815260200160002054116131ae576040517f08c379a00000000000000000000000000000000000000000000000000000000081526004016131a59061477a565b60405180910390fd5b600060136000868152602001908152602001600020546014600087815260200190815260200160002054601660008973ffffffffffffffffffffffffffffffffffffffff1673ffffffffffffffffffffffffffffffffffffffff1681526020019081526020016000206000888152602001908152602001600020546132339190614d43565b61323d9190614a8a565b905060006013600087815260200190815260200160002054601254601660008a73ffffffffffffffffffffffffffffffffffffffff1673ffffffffffffffffffffffffffffffffffffffff1681526020019081526020016000206000898152602001908152602001600020546132b39190614d43565b6132bd9190614a8a565b90508181945094505050509250929050565b600c81815481106132df57600080fd5b906000526020600020016000915090505481565b600960009054906101000a900473ffffffffffffffffffffffffffffffffffffffff1681565b60606000600c8054905067ffffffffffffffff811115613362577f4e487b7100000000000000000000000000000000000000000000000000000000600052604160045260246000fd5b60405190808252806020026020018201604052801561339b57816020015b613388613b78565b8152602001906001900390816133805790505b50905060005b600c80549050811015613504576040518060400160405280600a6000600c85815481106133f7577f4e487b7100000000000000000000000000000000000000000000000000000000600052603260045260246000fd5b90600052602060002001548152602001908152602001600020600001548152602001600a6000600c8581548110613457577f4e487b7100000000000000000000000000000000000000000000000000000000600052603260045260246000fd5b9060005260206000200154815260200190815260200160002060010160009054906101000a900473ffffffffffffffffffffffffffffffffffffffff1673ffffffffffffffffffffffffffffffffffffffff168152508282815181106134e6577f4e487b7100000000000000000000000000000000000000000000000000000000600052603260045260246000fd5b602002602001018190525080806134fc90614ed9565b9150506133a1565b508091505090565b600860009054906101000a900473ffffffffffffffffffffffffffffffffffffffff1681565b600060146000838152602001908152602001600020549050919050565b600033905090565b600073ffffffffffffffffffffffffffffffffffffffff168373ffffffffffffffffffffffffffffffffffffffff1614156135c7576040517f08c379a00000000000000000000000000000000000000000000000000000000081526004016135be906147fa565b60405180910390fd5b600073ffffffffffffffffffffffffffffffffffffffff168273ffffffffffffffffffffffffffffffffffffffff161415613637576040517f08c379a000000000000000000000000000000000000000000000000000000000815260040161362e906146ba565b60405180910390fd5b80600160008573ffffffffffffffffffffffffffffffffffffffff1673ffffffffffffffffffffffffffffffffffffffff16815260200190815260200160002060008473ffffffffffffffffffffffffffffffffffffffff1673ffffffffffffffffffffffffffffffffffffffff168152602001908152602001600020819055508173ffffffffffffffffffffffffffffffffffffffff168373ffffffffffffffffffffffffffffffffffffffff167f8c5be1e5ebec7d5bd14f71427d1e84f3dd0314c0f7b2291e5b200ac8c7c3b92583604051613715919061489a565b60405180910390a3505050565b600073ffffffffffffffffffffffffffffffffffffffff168373ffffffffffffffffffffffffffffffffffffffff161415613792576040517f08c379a0000000000000000000000000000000000000000000000000000000008152600401613789906147da565b60405180910390fd5b600073ffffffffffffffffffffffffffffffffffffffff168273ffffffffffffffffffffffffffffffffffffffff161415613802576040517f08c379a00000000000000000000000000000000000000000000000000000000081526004016137f99061469a565b60405180910390fd5b61380d838383613b6e565b60008060008573ffffffffffffffffffffffffffffffffffffffff1673ffffffffffffffffffffffffffffffffffffffff16815260200190815260200160002054905081811015613893576040517f08c379a000000000000000000000000000000000000000000000000000000000815260040161388a9061471a565b60405180910390fd5b8181036000808673ffffffffffffffffffffffffffffffffffffffff1673ffffffffffffffffffffffffffffffffffffffff16815260200190815260200160002081905550816000808573ffffffffffffffffffffffffffffffffffffffff1673ffffffffffffffffffffffffffffffffffffffff168152602001908152602001600020600082825461392691906149ca565b925050819055508273ffffffffffffffffffffffffffffffffffffffff168473ffffffffffffffffffffffffffffffffffffffff167fddf252ad1be2c89b69c2b068fc378daa952ba7f163c4a11628f55a4df523b3ef8460405161398a919061489a565b60405180910390a361399d848484613b73565b50505050565b80600073ffffffffffffffffffffffffffffffffffffffff16600a600083815260200190815260200160002060010160009054906101000a900473ffffffffffffffffffffffffffffffffffffffff1673ffffffffffffffffffffffffffffffffffffffff161415613a4a576040517f08c379a0000000000000000000000000000000000000000000000000000000008152600401613a419061487a565b60405180910390fd5b600080613a5785856130ae565b80925081935050506000821015613aa3576040517f08c379a0000000000000000000000000000000000000000000000000000000008152600401613a9a906146da565b60405180910390fd5b600a600085815260200190815260200160002060010160009054906101000a900473ffffffffffffffffffffffffffffffffffffffff1673ffffffffffffffffffffffffffffffffffffffff1663a9059cbb86846040518363ffffffff1660e01b8152600401613b1492919061458a565b602060405180830381600087803b158015613b2e57600080fd5b505af1158015613b42573d6000803e3d6000fd5b505050506040513d601f19601f82011682018060405250810190613b669190613df6565b505050505050565b505050565b505050565b604051806040016040528060008019168152602001600073ffffffffffffffffffffffffffffffffffffffff1681525090565b600081359050613bba816153ff565b92915050565b600081519050613bcf81615416565b92915050565b600081359050613be48161542d565b92915050565b600081519050613bf981615444565b92915050565b600081359050613c0e8161545b565b92915050565b600081519050613c238161545b565b92915050565b600081519050613c3881615489565b92915050565b600081519050613c4d81615472565b92915050565b600060208284031215613c6557600080fd5b6000613c7384828501613bab565b91505092915050565b60008060408385031215613c8f57600080fd5b6000613c9d85828601613bab565b9250506020613cae85828601613bab565b9150509250929050565b600080600060608486031215613ccd57600080fd5b6000613cdb86828701613bab565b9350506020613cec86828701613bab565b9250506040613cfd86828701613bff565b9150509250925092565b60008060408385031215613d1a57600080fd5b6000613d2885828601613bab565b9250506020613d3985828601613bd5565b9150509250929050565b60008060408385031215613d5657600080fd5b6000613d6485828601613bab565b9250506020613d7585828601613bff565b9150509250929050565b600080600080600060a08688031215613d9757600080fd5b6000613da588828901613bab565b9550506020613db688828901613bff565b9450506040613dc788828901613bd5565b9350506060613dd888828901613bff565b9250506080613de988828901613bd5565b9150509295509295909350565b600060208284031215613e0857600080fd5b6000613e1684828501613bc0565b91505092915050565b600060208284031215613e3157600080fd5b6000613e3f84828501613bd5565b91505092915050565b60008060408385031215613e5b57600080fd5b6000613e6985828601613bd5565b9250506020613e7a85828601613bab565b9150509250929050565b60008060408385031215613e9757600080fd5b6000613ea585828601613bd5565b9250506020613eb685828601613bff565b9150509250929050565b600060208284031215613ed257600080fd5b6000613ee084828501613bff565b91505092915050565b600060208284031215613efb57600080fd5b6000613f0984828501613c14565b91505092915050565b60008060008060808587031215613f2857600080fd5b6000613f3687828801613bff565b9450506020613f4787828801613bab565b9350506040613f5887828801613bd5565b9250506060613f6987828801613bd5565b91505092959194509250565b600080600080600060a08688031215613f8d57600080fd5b6000613f9b88828901613bff565b9550506020613fac88828901613bab565b9450506040613fbd88828901613bd5565b9350506060613fce88828901613bd5565b9250506080613fdf88828901613bff565b9150509295509295909350565b60008060408385031215613fff57600080fd5b600061400d85828601613bff565b925050602061401e85828601613bd5565b9150509250929050565b6000806000806080858703121561403e57600080fd5b600061404c87828801613bff565b945050602061405d87828801613bd5565b935050604061406e87828801613bff565b925050606061407f87828801613bd5565b91505092959194509250565b6000806000606084860312156140a057600080fd5b60006140ae86828701613bff565b93505060206140bf86828701613bff565b92505060406140d086828701613bd5565b9150509250925092565b600080600080600060a086880312156140f257600080fd5b600061410088828901613c29565b955050602061411188828901613bea565b945050604061412288828901613c14565b935050606061413388828901613c14565b925050608061414488828901613c29565b9150509295509295909350565b60006020828403121561416357600080fd5b600061417184828501613c3e565b91505092915050565b600061418683836144c2565b60408301905092915050565b61419b81614dd1565b82525050565b6141aa81614dd1565b82525050565b60006141bb82614985565b6141c581856149a8565b93506141d083614975565b8060005b838110156142015781516141e8888261417a565b97506141f38361499b565b9250506001810190506141d4565b5085935050505092915050565b61421781614de3565b82525050565b61422681614def565b82525050565b61423581614def565b82525050565b61424481614e50565b82525050565b61425381614df9565b82525050565b600061426482614990565b61426e81856149b9565b935061427e818560208601614e74565b61428781614faf565b840191505092915050565b600061429f6023836149b9565b91506142aa82614fcd565b604082019050919050565b60006142c26022836149b9565b91506142cd8261501c565b604082019050919050565b60006142e56034836149b9565b91506142f08261506b565b604082019050919050565b60006143086017836149b9565b9150614313826150ba565b602082019050919050565b600061432b6026836149b9565b9150614336826150e3565b604082019050919050565b600061434e600a836149b9565b915061435982615132565b602082019050919050565b6000614371603b836149b9565b915061437c8261515b565b604082019050919050565b6000614394601a836149b9565b915061439f826151aa565b602082019050919050565b60006143b76027836149b9565b91506143c2826151d3565b604082019050919050565b60006143da6028836149b9565b91506143e582615222565b604082019050919050565b60006143fd6025836149b9565b915061440882615271565b604082019050919050565b60006144206024836149b9565b915061442b826152c0565b604082019050919050565b60006144436031836149b9565b915061444e8261530f565b604082019050919050565b60006144666014836149b9565b91506144718261535e565b602082019050919050565b60006144896025836149b9565b915061449482615387565b604082019050919050565b60006144ac6019836149b9565b91506144b7826153d6565b602082019050919050565b6040820160008201516144d8600085018261421d565b5060208201516144eb6020850182614192565b50505050565b6144fa81614e23565b82525050565b61450981614e2d565b82525050565b600060208201905061452460008301846141a1565b92915050565b600060408201905061453f60008301856141a1565b61454c60208301846141a1565b9392505050565b600060608201905061456860008301866141a1565b61457560208301856141a1565b61458260408301846144f1565b949350505050565b600060408201905061459f60008301856141a1565b6145ac60208301846144f1565b9392505050565b600060208201905081810360008301526145cd81846141b0565b905092915050565b60006020820190506145ea600083018461420e565b92915050565b6000602082019050614605600083018461422c565b92915050565b6000604082019050614620600083018561422c565b61462d60208301846141a1565b9392505050565b6000602082019050614649600083018461423b565b92915050565b6000604082019050614664600083018561424a565b61467160208301846144f1565b9392505050565b600060208201905081810360008301526146928184614259565b905092915050565b600060208201905081810360008301526146b381614292565b9050919050565b600060208201905081810360008301526146d3816142b5565b9050919050565b600060208201905081810360008301526146f3816142d8565b9050919050565b60006020820190508181036000830152614713816142fb565b9050919050565b600060208201905081810360008301526147338161431e565b9050919050565b6000602082019050818103600083015261475381614341565b9050919050565b6000602082019050818103600083015261477381614364565b9050919050565b6000602082019050818103600083015261479381614387565b9050919050565b600060208201905081810360008301526147b3816143aa565b9050919050565b600060208201905081810360008301526147d3816143cd565b9050919050565b600060208201905081810360008301526147f3816143f0565b9050919050565b6000602082019050818103600083015261481381614413565b9050919050565b6000602082019050818103600083015261483381614436565b9050919050565b6000602082019050818103600083015261485381614459565b9050919050565b600060208201905081810360008301526148738161447c565b9050919050565b600060208201905081810360008301526148938161449f565b9050919050565b60006020820190506148af60008301846144f1565b92915050565b60006060820190506148ca60008301866144f1565b6148d760208301856141a1565b6148e4604083018461422c565b949350505050565b600060808201905061490160008301876144f1565b61490e60208301866141a1565b61491b604083018561422c565b614928606083018461422c565b95945050505050565b600060408201905061494660008301856144f1565b61495360208301846144f1565b9392505050565b600060208201905061496f6000830184614500565b92915050565b6000819050602082019050919050565b600081519050919050565b600081519050919050565b6000602082019050919050565b600082825260208201905092915050565b600082825260208201905092915050565b60006149d582614e23565b91506149e083614e23565b9250827fffffffffffffffffffffffffffffffffffffffffffffffffffffffffffffffff03821115614a1557614a14614f22565b5b828201905092915050565b6000614a2b82614df9565b9150614a3683614df9565b925082614a4657614a45614f51565b5b600160000383147f800000000000000000000000000000000000000000000000000000000000000083141615614a7f57614a7e614f22565b5b828205905092915050565b6000614a9582614e23565b9150614aa083614e23565b925082614ab057614aaf614f51565b5b828204905092915050565b6000808291508390505b6001851115614b0557808604811115614ae157614ae0614f22565b5b6001851615614af05780820291505b8081029050614afe85614fc0565b9450614ac5565b94509492505050565b6000614b1982614e23565b9150614b2483614e23565b9250614b517fffffffffffffffffffffffffffffffffffffffffffffffffffffffffffffffff8484614b59565b905092915050565b600082614b695760019050614c25565b81614b775760009050614c25565b8160018114614b8d5760028114614b9757614bc6565b6001915050614c25565b60ff841115614ba957614ba8614f22565b5b8360020a915084821115614bc057614bbf614f22565b5b50614c25565b5060208310610133831016604e8410600b8410161715614bfb5782820a905083811115614bf657614bf5614f22565b5b614c25565b614c088484846001614abb565b92509050818404811115614c1f57614c1e614f22565b5b81810290505b9392505050565b6000614c3782614df9565b9150614c4283614df9565b9250827f7fffffffffffffffffffffffffffffffffffffffffffffffffffffffffffffff0482116000841360008413161615614c8157614c80614f22565b5b817f80000000000000000000000000000000000000000000000000000000000000000583126000841260008413161615614cbe57614cbd614f22565b5b827f80000000000000000000000000000000000000000000000000000000000000000582126000841360008412161615614cfb57614cfa614f22565b5b827f7fffffffffffffffffffffffffffffffffffffffffffffffffffffffffffffff0582126000841260008412161615614d3857614d37614f22565b5b828202905092915050565b6000614d4e82614e23565b9150614d5983614e23565b9250817fffffffffffffffffffffffffffffffffffffffffffffffffffffffffffffffff0483118215151615614d9257614d91614f22565b5b828202905092915050565b6000614da882614e23565b9150614db383614e23565b925082821015614dc657614dc5614f22565b5b828203905092915050565b6000614ddc82614e03565b9050919050565b60008115159050919050565b6000819050919050565b6000819050919050565b600073ffffffffffffffffffffffffffffffffffffffff82169050919050565b6000819050919050565b600060ff82169050919050565b600069ffffffffffffffffffff82169050919050565b6000614e5b82614e62565b9050919050565b6000614e6d82614e03565b9050919050565b60005b83811015614e92578082015181840152602081019050614e77565b83811115614ea1576000848401525b50505050565b60006002820490506001821680614ebf57607f821691505b60208210811415614ed357614ed2614f80565b5b50919050565b6000614ee482614e23565b91507fffffffffffffffffffffffffffffffffffffffffffffffffffffffffffffffff821415614f1757614f16614f22565b5b600182019050919050565b7f4e487b7100000000000000000000000000000000000000000000000000000000600052601160045260246000fd5b7f4e487b7100000000000000000000000000000000000000000000000000000000600052601260045260246000fd5b7f4e487b7100000000000000000000000000000000000000000000000000000000600052602260045260246000fd5b6000601f19601f8301169050919050565b60008160011c9050919050565b7f45524332303a207472616e7366657220746f20746865207a65726f206164647260008201527f6573730000000000000000000000000000000000000000000000000000000000602082015250565b7f45524332303a20617070726f766520746f20746865207a65726f20616464726560008201527f7373000000000000000000000000000000000000000000000000000000000000602082015250565b7f72657761726420616d6f756e7420697320746f6f206c6f7720746f207769746860008201527f647261772061742074686973206d6f6d656d6e74000000000000000000000000602082015250565b7f4c5020746f6b656e20646f6573206e6f74206578697374000000000000000000600082015250565b7f45524332303a207472616e7366657220616d6f756e742065786365656473206260008201527f616c616e63650000000000000000000000000000000000000000000000000000602082015250565b7f6f6e6c792061646d696e00000000000000000000000000000000000000000000600082015250565b7f5769746864726177616c20616d6f756e7420726571756573746564206973206d60008201527f6f7265207468616e20737570706c696564206c69717569646974790000000000602082015250565b7f737570706c696564206c6971756964697479206973207a65726f000000000000600082015250565b7f616d6f756e742069732067726561746572207468616e20616c6c6f77616e636560008201527f20616d6f756e7400000000000000000000000000000000000000000000000000602082015250565b7f45524332303a207472616e7366657220616d6f756e742065786365656473206160008201527f6c6c6f77616e6365000000000000000000000000000000000000000000000000602082015250565b7f45524332303a207472616e736665722066726f6d20746865207a65726f20616460008201527f6472657373000000000000000000000000000000000000000000000000000000602082015250565b7f45524332303a20617070726f76652066726f6d20746865207a65726f2061646460008201527f7265737300000000000000000000000000000000000000000000000000000000602082015250565b7f77697468647261776c20616d6f756e742069732067726561746572207468616e60008201527f20616c6c6f77616e636520616d6f756e74000000000000000000000000000000602082015250565b7f746f6b656e20646f6573206e6f74206578697374000000000000000000000000600082015250565b7f45524332303a2064656372656173656420616c6c6f77616e63652062656c6f7760008201527f207a65726f000000000000000000000000000000000000000000000000000000602082015250565b7f6669617420746f6b656e20646f6573206e6f7420657869737400000000000000600082015250565b61540881614dd1565b811461541357600080fd5b50565b61541f81614de3565b811461542a57600080fd5b50565b61543681614def565b811461544157600080fd5b50565b61544d81614df9565b811461545857600080fd5b50565b61546481614e23565b811461546f57600080fd5b50565b61547b81614e2d565b811461548657600080fd5b50565b61549281614e3a565b811461549d57600080fd5b5056fea26469706673582212200d8c15a7d822f515bcca67eaa40d92bf2fd0678a0e1ceab7371ebb1e22e888ea64736f6c63430008040033",
  "linkReferences": {},
  "deployedLinkReferences": {}
}