{
  "_format": "hh-sol-artifact-1",
  "contractName": "TokenisedFiat",
  "sourceName": "contracts/TokenisedFiat.sol",
  "abi": [
    {
      "inputs": [
        {
          "internalType": "string",
          "name": "name",
          "type": "string"
        },
        {
          "internalType": "string",
          "name": "symbol",
          "type": "string"
        },
        {
          "internalType": "uint256",
          "name": "adminSupply",
          "type": "uint256"
        }
      ],
      "stateMutability": "nonpayable",
      "type": "constructor"
    },
    {
      "anonymous": false,
      "inputs": [
        {
          "indexed": true,
          "internalType": "address",
          "name": "owner",
          "type": "address"
        },
        {
          "indexed": true,
          "internalType": "address",
          "name": "spender",
          "type": "address"
        },
        {
          "indexed": false,
          "internalType": "uint256",
          "name": "value",
          "type": "uint256"
        }
      ],
      "name": "Approval",
      "type": "event"
    },
    {
      "anonymous": false,
      "inputs": [
        {
          "indexed": true,
          "internalType": "address",
          "name": "from",
          "type": "address"
        },
        {
          "indexed": true,
          "internalType": "address",
          "name": "to",
          "type": "address"
        },
        {
          "indexed": false,
          "internalType": "uint256",
          "name": "value",
          "type": "uint256"
        }
      ],
      "name": "Transfer",
      "type": "event"
    },
    {
      "inputs": [
        {
          "internalType": "address",
          "name": "owner",
          "type": "address"
        },
        {
          "internalType": "address",
          "name": "spender",
          "type": "address"
        }
      ],
      "name": "allowance",
      "outputs": [
        {
          "internalType": "uint256",
          "name": "",
          "type": "uint256"
        }
      ],
      "stateMutability": "view",
      "type": "function"
    },
    {
      "inputs": [
        {
          "internalType": "address",
          "name": "spender",
          "type": "address"
        },
        {
          "internalType": "uint256",
          "name": "amount",
          "type": "uint256"
        }
      ],
      "name": "approve",
      "outputs": [
        {
          "internalType": "bool",
          "name": "",
          "type": "bool"
        }
      ],
      "stateMutability": "nonpayable",
      "type": "function"
    },
    {
      "inputs": [
        {
          "internalType": "address",
          "name": "account",
          "type": "address"
        }
      ],
      "name": "balanceOf",
      "outputs": [
        {
          "internalType": "uint256",
          "name": "",
          "type": "uint256"
        }
      ],
      "stateMutability": "view",
      "type": "function"
    },
    {
      "inputs": [],
      "name": "decimals",
      "outputs": [
        {
          "internalType": "uint8",
          "name": "",
          "type": "uint8"
        }
      ],
      "stateMutability": "view",
      "type": "function"
    },
    {
      "inputs": [
        {
          "internalType": "address",
          "name": "spender",
          "type": "address"
        },
        {
          "internalType": "uint256",
          "name": "subtractedValue",
          "type": "uint256"
        }
      ],
      "name": "decreaseAllowance",
      "outputs": [
        {
          "internalType": "bool",
          "name": "",
          "type": "bool"
        }
      ],
      "stateMutability": "nonpayable",
      "type": "function"
    },
    {
      "inputs": [
        {
          "internalType": "address",
          "name": "to",
          "type": "address"
        },
        {
          "internalType": "uint256",
          "name": "amount",
          "type": "uint256"
        }
      ],
      "name": "fBurn",
      "outputs": [],
      "stateMutability": "nonpayable",
      "type": "function"
    },
    {
      "inputs": [
        {
          "internalType": "address",
          "name": "to",
          "type": "address"
        },
        {
          "internalType": "uint256",
          "name": "amount",
          "type": "uint256"
        }
      ],
      "name": "fMint",
      "outputs": [],
      "stateMutability": "nonpayable",
      "type": "function"
    },
    {
      "inputs": [],
      "name": "faitTokenAdmin",
      "outputs": [
        {
          "internalType": "address",
          "name": "",
          "type": "address"
        }
      ],
      "stateMutability": "view",
      "type": "function"
    },
    {
      "inputs": [
        {
          "internalType": "address",
          "name": "spender",
          "type": "address"
        },
        {
          "internalType": "uint256",
          "name": "addedValue",
          "type": "uint256"
        }
      ],
      "name": "increaseAllowance",
      "outputs": [
        {
          "internalType": "bool",
          "name": "",
          "type": "bool"
        }
      ],
      "stateMutability": "nonpayable",
      "type": "function"
    },
    {
      "inputs": [],
      "name": "name",
      "outputs": [
        {
          "internalType": "string",
          "name": "",
          "type": "string"
        }
      ],
      "stateMutability": "view",
      "type": "function"
    },
    {
      "inputs": [],
      "name": "symbol",
      "outputs": [
        {
          "internalType": "string",
          "name": "",
          "type": "string"
        }
      ],
      "stateMutability": "view",
      "type": "function"
    },
    {
      "inputs": [],
      "name": "totalSupply",
      "outputs": [
        {
          "internalType": "uint256",
          "name": "",
          "type": "uint256"
        }
      ],
      "stateMutability": "view",
      "type": "function"
    },
    {
      "inputs": [
        {
          "internalType": "address",
          "name": "recipient",
          "type": "address"
        },
        {
          "internalType": "uint256",
          "name": "amount",
          "type": "uint256"
        }
      ],
      "name": "transfer",
      "outputs": [
        {
          "internalType": "bool",
          "name": "",
          "type": "bool"
        }
      ],
      "stateMutability": "nonpayable",
      "type": "function"
    },
    {
      "inputs": [
        {
          "internalType": "address",
          "name": "sender",
          "type": "address"
        },
        {
          "internalType": "address",
          "name": "recipient",
          "type": "address"
        },
        {
          "internalType": "uint256",
          "name": "amount",
          "type": "uint256"
        }
      ],
      "name": "transferFrom",
      "outputs": [
        {
          "internalType": "bool",
          "name": "",
          "type": "bool"
        }
      ],
      "stateMutability": "nonpayable",
      "type": "function"
    }
  ],
  "bytecode": "0x60806040523480156200001157600080fd5b506040516200217d3803806200217d833981810160405281019062000037919062000385565b82828160039080519060200190620000519291906200024c565b5080600490805190602001906200006a9291906200024c565b50505033600560006101000a81548173ffffffffffffffffffffffffffffffffffffffff021916908373ffffffffffffffffffffffffffffffffffffffff160217905550620000c03382620000c960201b60201c565b505050620006de565b600073ffffffffffffffffffffffffffffffffffffffff168273ffffffffffffffffffffffffffffffffffffffff1614156200013c576040517f08c379a0000000000000000000000000000000000000000000000000000000008152600401620001339062000445565b60405180910390fd5b62000150600083836200024260201b60201c565b8060026000828254620001649190620004f4565b92505081905550806000808473ffffffffffffffffffffffffffffffffffffffff1673ffffffffffffffffffffffffffffffffffffffff1681526020019081526020016000206000828254620001bb9190620004f4565b925050819055508173ffffffffffffffffffffffffffffffffffffffff16600073ffffffffffffffffffffffffffffffffffffffff167fddf252ad1be2c89b69c2b068fc378daa952ba7f163c4a11628f55a4df523b3ef8360405162000222919062000467565b60405180910390a36200023e600083836200024760201b60201c565b5050565b505050565b505050565b8280546200025a9062000591565b90600052602060002090601f0160209004810192826200027e5760008555620002ca565b82601f106200029957805160ff1916838001178555620002ca565b82800160010185558215620002ca579182015b82811115620002c9578251825591602001919060010190620002ac565b5b509050620002d99190620002dd565b5090565b5b80821115620002f8576000816000905550600101620002de565b5090565b6000620003136200030d84620004ad565b62000484565b9050828152602081018484840111156200032c57600080fd5b620003398482856200055b565b509392505050565b600082601f8301126200035357600080fd5b815162000365848260208601620002fc565b91505092915050565b6000815190506200037f81620006c4565b92915050565b6000806000606084860312156200039b57600080fd5b600084015167ffffffffffffffff811115620003b657600080fd5b620003c48682870162000341565b935050602084015167ffffffffffffffff811115620003e257600080fd5b620003f08682870162000341565b925050604062000403868287016200036e565b9150509250925092565b60006200041c601f83620004e3565b915062000429826200069b565b602082019050919050565b6200043f8162000551565b82525050565b6000602082019050818103600083015262000460816200040d565b9050919050565b60006020820190506200047e600083018462000434565b92915050565b600062000490620004a3565b90506200049e8282620005c7565b919050565b6000604051905090565b600067ffffffffffffffff821115620004cb57620004ca6200065b565b5b620004d6826200068a565b9050602081019050919050565b600082825260208201905092915050565b6000620005018262000551565b91506200050e8362000551565b9250827fffffffffffffffffffffffffffffffffffffffffffffffffffffffffffffffff03821115620005465762000545620005fd565b5b828201905092915050565b6000819050919050565b60005b838110156200057b5780820151818401526020810190506200055e565b838111156200058b576000848401525b50505050565b60006002820490506001821680620005aa57607f821691505b60208210811415620005c157620005c06200062c565b5b50919050565b620005d2826200068a565b810181811067ffffffffffffffff82111715620005f457620005f36200065b565b5b80604052505050565b7f4e487b7100000000000000000000000000000000000000000000000000000000600052601160045260246000fd5b7f4e487b7100000000000000000000000000000000000000000000000000000000600052602260045260246000fd5b7f4e487b7100000000000000000000000000000000000000000000000000000000600052604160045260246000fd5b6000601f19601f8301169050919050565b7f45524332303a206d696e7420746f20746865207a65726f206164647265737300600082015250565b620006cf8162000551565b8114620006db57600080fd5b50565b611a8f80620006ee6000396000f3fe608060405234801561001057600080fd5b50600436106100ea5760003560e01c806370a082311161008c578063a602382311610066578063a602382314610275578063a9059cbb14610291578063daeb7b81146102c1578063dd62ed3e146102dd576100ea565b806370a08231146101f757806395d89b4114610227578063a457c2d714610245576100ea565b806323b872dd116100c857806323b872dd1461015b578063313ce5671461018b57806339509351146101a95780634c4082a4146101d9576100ea565b806306fdde03146100ef578063095ea7b31461010d57806318160ddd1461013d575b600080fd5b6100f761030d565b604051610104919061138b565b60405180910390f35b61012760048036038101906101229190611123565b61039f565b6040516101349190611370565b60405180910390f35b6101456103bd565b604051610152919061150d565b60405180910390f35b610175600480360381019061017091906110d4565b6103c7565b6040516101829190611370565b60405180910390f35b6101936104bf565b6040516101a09190611528565b60405180910390f35b6101c360048036038101906101be9190611123565b6104c8565b6040516101d09190611370565b60405180910390f35b6101e1610574565b6040516101ee9190611355565b60405180910390f35b610211600480360381019061020c919061106f565b61059a565b60405161021e919061150d565b60405180910390f35b61022f6105e2565b60405161023c919061138b565b60405180910390f35b61025f600480360381019061025a9190611123565b610674565b60405161026c9190611370565b60405180910390f35b61028f600480360381019061028a9190611123565b61075f565b005b6102ab60048036038101906102a69190611123565b6107fd565b6040516102b89190611370565b60405180910390f35b6102db60048036038101906102d69190611123565b61081b565b005b6102f760048036038101906102f29190611098565b610829565b604051610304919061150d565b60405180910390f35b60606003805461031c90611671565b80601f016020809104026020016040519081016040528092919081815260200182805461034890611671565b80156103955780601f1061036a57610100808354040283529160200191610395565b820191906000526020600020905b81548152906001019060200180831161037857829003601f168201915b5050505050905090565b60006103b36103ac6108b0565b84846108b8565b6001905092915050565b6000600254905090565b60006103d4848484610a83565b6000600160008673ffffffffffffffffffffffffffffffffffffffff1673ffffffffffffffffffffffffffffffffffffffff168152602001908152602001600020600061041f6108b0565b73ffffffffffffffffffffffffffffffffffffffff1673ffffffffffffffffffffffffffffffffffffffff1681526020019081526020016000205490508281101561049f576040517f08c379a00000000000000000000000000000000000000000000000000000000081526004016104969061144d565b60405180910390fd5b6104b3856104ab6108b0565b8584036108b8565b60019150509392505050565b60006012905090565b600061056a6104d56108b0565b8484600160006104e36108b0565b73ffffffffffffffffffffffffffffffffffffffff1673ffffffffffffffffffffffffffffffffffffffff16815260200190815260200160002060008873ffffffffffffffffffffffffffffffffffffffff1673ffffffffffffffffffffffffffffffffffffffff16815260200190815260200160002054610565919061155f565b6108b8565b6001905092915050565b600560009054906101000a900473ffffffffffffffffffffffffffffffffffffffff1681565b60008060008373ffffffffffffffffffffffffffffffffffffffff1673ffffffffffffffffffffffffffffffffffffffff168152602001908152602001600020549050919050565b6060600480546105f190611671565b80601f016020809104026020016040519081016040528092919081815260200182805461061d90611671565b801561066a5780601f1061063f5761010080835404028352916020019161066a565b820191906000526020600020905b81548152906001019060200180831161064d57829003601f168201915b5050505050905090565b600080600160006106836108b0565b73ffffffffffffffffffffffffffffffffffffffff1673ffffffffffffffffffffffffffffffffffffffff16815260200190815260200160002060008573ffffffffffffffffffffffffffffffffffffffff1673ffffffffffffffffffffffffffffffffffffffff16815260200190815260200160002054905082811015610740576040517f08c379a0000000000000000000000000000000000000000000000000000000008152600401610737906114cd565b60405180910390fd5b61075461074b6108b0565b858584036108b8565b600191505092915050565b600560009054906101000a900473ffffffffffffffffffffffffffffffffffffffff1673ffffffffffffffffffffffffffffffffffffffff163373ffffffffffffffffffffffffffffffffffffffff16146107ef576040517f08c379a00000000000000000000000000000000000000000000000000000000081526004016107e69061142d565b60405180910390fd5b6107f98282610d04565b5050565b600061081161080a6108b0565b8484610a83565b6001905092915050565b6108258282610e64565b5050565b6000600160008473ffffffffffffffffffffffffffffffffffffffff1673ffffffffffffffffffffffffffffffffffffffff16815260200190815260200160002060008373ffffffffffffffffffffffffffffffffffffffff1673ffffffffffffffffffffffffffffffffffffffff16815260200190815260200160002054905092915050565b600033905090565b600073ffffffffffffffffffffffffffffffffffffffff168373ffffffffffffffffffffffffffffffffffffffff161415610928576040517f08c379a000000000000000000000000000000000000000000000000000000000815260040161091f906114ad565b60405180910390fd5b600073ffffffffffffffffffffffffffffffffffffffff168273ffffffffffffffffffffffffffffffffffffffff161415610998576040517f08c379a000000000000000000000000000000000000000000000000000000000815260040161098f906113ed565b60405180910390fd5b80600160008573ffffffffffffffffffffffffffffffffffffffff1673ffffffffffffffffffffffffffffffffffffffff16815260200190815260200160002060008473ffffffffffffffffffffffffffffffffffffffff1673ffffffffffffffffffffffffffffffffffffffff168152602001908152602001600020819055508173ffffffffffffffffffffffffffffffffffffffff168373ffffffffffffffffffffffffffffffffffffffff167f8c5be1e5ebec7d5bd14f71427d1e84f3dd0314c0f7b2291e5b200ac8c7c3b92583604051610a76919061150d565b60405180910390a3505050565b600073ffffffffffffffffffffffffffffffffffffffff168373ffffffffffffffffffffffffffffffffffffffff161415610af3576040517f08c379a0000000000000000000000000000000000000000000000000000000008152600401610aea9061148d565b60405180910390fd5b600073ffffffffffffffffffffffffffffffffffffffff168273ffffffffffffffffffffffffffffffffffffffff161415610b63576040517f08c379a0000000000000000000000000000000000000000000000000000000008152600401610b5a906113ad565b60405180910390fd5b610b6e83838361103b565b60008060008573ffffffffffffffffffffffffffffffffffffffff1673ffffffffffffffffffffffffffffffffffffffff16815260200190815260200160002054905081811015610bf4576040517f08c379a0000000000000000000000000000000000000000000000000000000008152600401610beb9061140d565b60405180910390fd5b8181036000808673ffffffffffffffffffffffffffffffffffffffff1673ffffffffffffffffffffffffffffffffffffffff16815260200190815260200160002081905550816000808573ffffffffffffffffffffffffffffffffffffffff1673ffffffffffffffffffffffffffffffffffffffff1681526020019081526020016000206000828254610c87919061155f565b925050819055508273ffffffffffffffffffffffffffffffffffffffff168473ffffffffffffffffffffffffffffffffffffffff167fddf252ad1be2c89b69c2b068fc378daa952ba7f163c4a11628f55a4df523b3ef84604051610ceb919061150d565b60405180910390a3610cfe848484611040565b50505050565b600073ffffffffffffffffffffffffffffffffffffffff168273ffffffffffffffffffffffffffffffffffffffff161415610d74576040517f08c379a0000000000000000000000000000000000000000000000000000000008152600401610d6b906114ed565b60405180910390fd5b610d806000838361103b565b8060026000828254610d92919061155f565b92505081905550806000808473ffffffffffffffffffffffffffffffffffffffff1673ffffffffffffffffffffffffffffffffffffffff1681526020019081526020016000206000828254610de7919061155f565b925050819055508173ffffffffffffffffffffffffffffffffffffffff16600073ffffffffffffffffffffffffffffffffffffffff167fddf252ad1be2c89b69c2b068fc378daa952ba7f163c4a11628f55a4df523b3ef83604051610e4c919061150d565b60405180910390a3610e6060008383611040565b5050565b600073ffffffffffffffffffffffffffffffffffffffff168273ffffffffffffffffffffffffffffffffffffffff161415610ed4576040517f08c379a0000000000000000000000000000000000000000000000000000000008152600401610ecb9061146d565b60405180910390fd5b610ee08260008361103b565b60008060008473ffffffffffffffffffffffffffffffffffffffff1673ffffffffffffffffffffffffffffffffffffffff16815260200190815260200160002054905081811015610f66576040517f08c379a0000000000000000000000000000000000000000000000000000000008152600401610f5d906113cd565b60405180910390fd5b8181036000808573ffffffffffffffffffffffffffffffffffffffff1673ffffffffffffffffffffffffffffffffffffffff168152602001908152602001600020819055508160026000828254610fbd91906115b5565b92505081905550600073ffffffffffffffffffffffffffffffffffffffff168373ffffffffffffffffffffffffffffffffffffffff167fddf252ad1be2c89b69c2b068fc378daa952ba7f163c4a11628f55a4df523b3ef84604051611022919061150d565b60405180910390a361103683600084611040565b505050565b505050565b505050565b60008135905061105481611a2b565b92915050565b60008135905061106981611a42565b92915050565b60006020828403121561108157600080fd5b600061108f84828501611045565b91505092915050565b600080604083850312156110ab57600080fd5b60006110b985828601611045565b92505060206110ca85828601611045565b9150509250929050565b6000806000606084860312156110e957600080fd5b60006110f786828701611045565b935050602061110886828701611045565b92505060406111198682870161105a565b9150509250925092565b6000806040838503121561113657600080fd5b600061114485828601611045565b92505060206111558582860161105a565b9150509250929050565b611168816115e9565b82525050565b611177816115fb565b82525050565b600061118882611543565b611192818561154e565b93506111a281856020860161163e565b6111ab81611701565b840191505092915050565b60006111c360238361154e565b91506111ce82611712565b604082019050919050565b60006111e660228361154e565b91506111f182611761565b604082019050919050565b600061120960228361154e565b9150611214826117b0565b604082019050919050565b600061122c60268361154e565b9150611237826117ff565b604082019050919050565b600061124f600a8361154e565b915061125a8261184e565b602082019050919050565b600061127260288361154e565b915061127d82611877565b604082019050919050565b600061129560218361154e565b91506112a0826118c6565b604082019050919050565b60006112b860258361154e565b91506112c382611915565b604082019050919050565b60006112db60248361154e565b91506112e682611964565b604082019050919050565b60006112fe60258361154e565b9150611309826119b3565b604082019050919050565b6000611321601f8361154e565b915061132c82611a02565b602082019050919050565b61134081611627565b82525050565b61134f81611631565b82525050565b600060208201905061136a600083018461115f565b92915050565b6000602082019050611385600083018461116e565b92915050565b600060208201905081810360008301526113a5818461117d565b905092915050565b600060208201905081810360008301526113c6816111b6565b9050919050565b600060208201905081810360008301526113e6816111d9565b9050919050565b60006020820190508181036000830152611406816111fc565b9050919050565b600060208201905081810360008301526114268161121f565b9050919050565b6000602082019050818103600083015261144681611242565b9050919050565b6000602082019050818103600083015261146681611265565b9050919050565b6000602082019050818103600083015261148681611288565b9050919050565b600060208201905081810360008301526114a6816112ab565b9050919050565b600060208201905081810360008301526114c6816112ce565b9050919050565b600060208201905081810360008301526114e6816112f1565b9050919050565b6000602082019050818103600083015261150681611314565b9050919050565b60006020820190506115226000830184611337565b92915050565b600060208201905061153d6000830184611346565b92915050565b600081519050919050565b600082825260208201905092915050565b600061156a82611627565b915061157583611627565b9250827fffffffffffffffffffffffffffffffffffffffffffffffffffffffffffffffff038211156115aa576115a96116a3565b5b828201905092915050565b60006115c082611627565b91506115cb83611627565b9250828210156115de576115dd6116a3565b5b828203905092915050565b60006115f482611607565b9050919050565b60008115159050919050565b600073ffffffffffffffffffffffffffffffffffffffff82169050919050565b6000819050919050565b600060ff82169050919050565b60005b8381101561165c578082015181840152602081019050611641565b8381111561166b576000848401525b50505050565b6000600282049050600182168061168957607f821691505b6020821081141561169d5761169c6116d2565b5b50919050565b7f4e487b7100000000000000000000000000000000000000000000000000000000600052601160045260246000fd5b7f4e487b7100000000000000000000000000000000000000000000000000000000600052602260045260246000fd5b6000601f19601f8301169050919050565b7f45524332303a207472616e7366657220746f20746865207a65726f206164647260008201527f6573730000000000000000000000000000000000000000000000000000000000602082015250565b7f45524332303a206275726e20616d6f756e7420657863656564732062616c616e60008201527f6365000000000000000000000000000000000000000000000000000000000000602082015250565b7f45524332303a20617070726f766520746f20746865207a65726f20616464726560008201527f7373000000000000000000000000000000000000000000000000000000000000602082015250565b7f45524332303a207472616e7366657220616d6f756e742065786365656473206260008201527f616c616e63650000000000000000000000000000000000000000000000000000602082015250565b7f6f6e6c792061646d696e00000000000000000000000000000000000000000000600082015250565b7f45524332303a207472616e7366657220616d6f756e742065786365656473206160008201527f6c6c6f77616e6365000000000000000000000000000000000000000000000000602082015250565b7f45524332303a206275726e2066726f6d20746865207a65726f2061646472657360008201527f7300000000000000000000000000000000000000000000000000000000000000602082015250565b7f45524332303a207472616e736665722066726f6d20746865207a65726f20616460008201527f6472657373000000000000000000000000000000000000000000000000000000602082015250565b7f45524332303a20617070726f76652066726f6d20746865207a65726f2061646460008201527f7265737300000000000000000000000000000000000000000000000000000000602082015250565b7f45524332303a2064656372656173656420616c6c6f77616e63652062656c6f7760008201527f207a65726f000000000000000000000000000000000000000000000000000000602082015250565b7f45524332303a206d696e7420746f20746865207a65726f206164647265737300600082015250565b611a34816115e9565b8114611a3f57600080fd5b50565b611a4b81611627565b8114611a5657600080fd5b5056fea2646970667358221220fac934c604c130624654564d0e82f9550fb2fdcc40ecc35248af4ca313da7edf64736f6c63430008040033",
  "linkReferences": {},
  "deployedLinkReferences": {}
}