{
  "_format": "hh-sol-artifact-1",
  "contractName": "RapidProtocol",
  "sourceName": "contracts/RapidProtocol.sol",
  "abi": [
    {
      "inputs": [
        {
          "internalType": "string",
          "name": "name",
          "type": "string"
        },
        {
          "internalType": "string",
          "name": "symbol",
          "type": "string"
        }
      ],
      "stateMutability": "nonpayable",
      "type": "constructor"
    },
    {
      "anonymous": false,
      "inputs": [
        {
          "indexed": false,
          "internalType": "uint256",
          "name": "amount",
          "type": "uint256"
        },
        {
          "indexed": false,
          "internalType": "address",
          "name": "to",
          "type": "address"
        },
        {
          "indexed": false,
          "internalType": "bytes32",
          "name": "fiatSymbol",
          "type": "bytes32"
        },
        {
          "indexed": false,
          "internalType": "bytes32",
          "name": "lpSymbol",
          "type": "bytes32"
        }
      ],
      "name": "AddLiquidity",
      "type": "event"
    },
    {
      "anonymous": false,
      "inputs": [
        {
          "indexed": true,
          "internalType": "address",
          "name": "owner",
          "type": "address"
        },
        {
          "indexed": true,
          "internalType": "address",
          "name": "spender",
          "type": "address"
        },
        {
          "indexed": false,
          "internalType": "uint256",
          "name": "value",
          "type": "uint256"
        }
      ],
      "name": "Approval",
      "type": "event"
    },
    {
      "anonymous": false,
      "inputs": [
        {
          "indexed": true,
          "internalType": "address",
          "name": "from",
          "type": "address"
        },
        {
          "indexed": true,
          "internalType": "address",
          "name": "to",
          "type": "address"
        },
        {
          "indexed": false,
          "internalType": "uint256",
          "name": "value",
          "type": "uint256"
        }
      ],
      "name": "Transfer",
      "type": "event"
    },
    {
      "anonymous": false,
      "inputs": [
        {
          "indexed": false,
          "internalType": "uint256",
          "name": "amount",
          "type": "uint256"
        },
        {
          "indexed": false,
          "internalType": "address",
          "name": "to",
          "type": "address"
        },
        {
          "indexed": false,
          "internalType": "bytes32",
          "name": "destinationFiatSymbol",
          "type": "bytes32"
        }
      ],
      "name": "TransferFiat",
      "type": "event"
    },
    {
      "anonymous": false,
      "inputs": [
        {
          "indexed": false,
          "internalType": "uint256",
          "name": "amount",
          "type": "uint256"
        },
        {
          "indexed": false,
          "internalType": "address",
          "name": "to",
          "type": "address"
        },
        {
          "indexed": false,
          "internalType": "bytes32",
          "name": "fiatSymbol",
          "type": "bytes32"
        }
      ],
      "name": "WithdrawLiquidity",
      "type": "event"
    },
    {
      "inputs": [
        {
          "internalType": "bytes32",
          "name": "symbol",
          "type": "bytes32"
        },
        {
          "internalType": "address",
          "name": "tokenAddress",
          "type": "address"
        }
      ],
      "name": "addFiatToken",
      "outputs": [],
      "stateMutability": "nonpayable",
      "type": "function"
    },
    {
      "inputs": [
        {
          "internalType": "bytes32",
          "name": "symbol",
          "type": "bytes32"
        },
        {
          "internalType": "address",
          "name": "tokenAddress",
          "type": "address"
        }
      ],
      "name": "addLPToken",
      "outputs": [],
      "stateMutability": "nonpayable",
      "type": "function"
    },
    {
      "inputs": [
        {
          "internalType": "uint256",
          "name": "amount",
          "type": "uint256"
        },
        {
          "internalType": "address",
          "name": "to",
          "type": "address"
        },
        {
          "internalType": "bytes32",
          "name": "fiatSymbol",
          "type": "bytes32"
        },
        {
          "internalType": "bytes32",
          "name": "lpSymbol",
          "type": "bytes32"
        },
        {
          "internalType": "uint256",
          "name": "ratio",
          "type": "uint256"
        }
      ],
      "name": "addLiquidity",
      "outputs": [],
      "stateMutability": "nonpayable",
      "type": "function"
    },
    {
      "inputs": [],
      "name": "admin",
      "outputs": [
        {
          "internalType": "address",
          "name": "",
          "type": "address"
        }
      ],
      "stateMutability": "view",
      "type": "function"
    },
    {
      "inputs": [
        {
          "internalType": "address",
          "name": "owner",
          "type": "address"
        },
        {
          "internalType": "address",
          "name": "spender",
          "type": "address"
        }
      ],
      "name": "allowance",
      "outputs": [
        {
          "internalType": "uint256",
          "name": "",
          "type": "uint256"
        }
      ],
      "stateMutability": "view",
      "type": "function"
    },
    {
      "inputs": [
        {
          "internalType": "address",
          "name": "spender",
          "type": "address"
        },
        {
          "internalType": "uint256",
          "name": "amount",
          "type": "uint256"
        }
      ],
      "name": "approve",
      "outputs": [
        {
          "internalType": "bool",
          "name": "",
          "type": "bool"
        }
      ],
      "stateMutability": "nonpayable",
      "type": "function"
    },
    {
      "inputs": [
        {
          "internalType": "address",
          "name": "account",
          "type": "address"
        }
      ],
      "name": "balanceOf",
      "outputs": [
        {
          "internalType": "uint256",
          "name": "",
          "type": "uint256"
        }
      ],
      "stateMutability": "view",
      "type": "function"
    },
    {
      "inputs": [
        {
          "internalType": "uint256",
          "name": "destinationAmount",
          "type": "uint256"
        },
        {
          "internalType": "bytes32",
          "name": "destinationSymbol",
          "type": "bytes32"
        }
      ],
      "name": "calculateFee",
      "outputs": [
        {
          "internalType": "uint256",
          "name": "totalFee",
          "type": "uint256"
        }
      ],
      "stateMutability": "view",
      "type": "function"
    },
    {
      "inputs": [
        {
          "internalType": "uint256",
          "name": "sourceAmount",
          "type": "uint256"
        },
        {
          "internalType": "uint256",
          "name": "destinationAmount",
          "type": "uint256"
        },
        {
          "internalType": "bytes32",
          "name": "destinationSymbol",
          "type": "bytes32"
        }
      ],
      "name": "calculateFeeInAmount",
      "outputs": [
        {
          "internalType": "uint256",
          "name": "totalFeeAmount",
          "type": "uint256"
        }
      ],
      "stateMutability": "view",
      "type": "function"
    },
    {
      "inputs": [],
      "name": "decimals",
      "outputs": [
        {
          "internalType": "uint8",
          "name": "",
          "type": "uint8"
        }
      ],
      "stateMutability": "view",
      "type": "function"
    },
    {
      "inputs": [
        {
          "internalType": "address",
          "name": "spender",
          "type": "address"
        },
        {
          "internalType": "uint256",
          "name": "subtractedValue",
          "type": "uint256"
        }
      ],
      "name": "decreaseAllowance",
      "outputs": [
        {
          "internalType": "bool",
          "name": "",
          "type": "bool"
        }
      ],
      "stateMutability": "nonpayable",
      "type": "function"
    },
    {
      "inputs": [],
      "name": "equilibriumFee",
      "outputs": [
        {
          "internalType": "uint256",
          "name": "",
          "type": "uint256"
        }
      ],
      "stateMutability": "view",
      "type": "function"
    },
    {
      "inputs": [
        {
          "internalType": "uint256",
          "name": "",
          "type": "uint256"
        }
      ],
      "name": "fiatTokenList",
      "outputs": [
        {
          "internalType": "bytes32",
          "name": "",
          "type": "bytes32"
        }
      ],
      "stateMutability": "view",
      "type": "function"
    },
    {
      "inputs": [
        {
          "internalType": "bytes32",
          "name": "",
          "type": "bytes32"
        }
      ],
      "name": "fiatTokens",
      "outputs": [
        {
          "internalType": "bytes32",
          "name": "symbol",
          "type": "bytes32"
        },
        {
          "internalType": "address",
          "name": "tokenAddress",
          "type": "address"
        }
      ],
      "stateMutability": "view",
      "type": "function"
    },
    {
      "inputs": [],
      "name": "getFiatTokens",
      "outputs": [
        {
          "components": [
            {
              "internalType": "bytes32",
              "name": "symbol",
              "type": "bytes32"
            },
            {
              "internalType": "address",
              "name": "tokenAddress",
              "type": "address"
            }
          ],
          "internalType": "struct RapidProtocol.Token[]",
          "name": "",
          "type": "tuple[]"
        }
      ],
      "stateMutability": "view",
      "type": "function"
    },
    {
      "inputs": [
        {
          "internalType": "bytes32",
          "name": "symbol",
          "type": "bytes32"
        }
      ],
      "name": "getIPFee",
      "outputs": [
        {
          "internalType": "uint256",
          "name": "val",
          "type": "uint256"
        }
      ],
      "stateMutability": "view",
      "type": "function"
    },
    {
      "inputs": [
        {
          "internalType": "bytes32",
          "name": "symbol",
          "type": "bytes32"
        }
      ],
      "name": "getLPFee",
      "outputs": [
        {
          "internalType": "uint256",
          "name": "val",
          "type": "uint256"
        }
      ],
      "stateMutability": "view",
      "type": "function"
    },
    {
      "inputs": [],
      "name": "getLPTokens",
      "outputs": [
        {
          "components": [
            {
              "internalType": "bytes32",
              "name": "symbol",
              "type": "bytes32"
            },
            {
              "internalType": "address",
              "name": "tokenAddress",
              "type": "address"
            }
          ],
          "internalType": "struct RapidProtocol.Token[]",
          "name": "",
          "type": "tuple[]"
        }
      ],
      "stateMutability": "view",
      "type": "function"
    },
    {
      "inputs": [
        {
          "internalType": "address",
          "name": "user",
          "type": "address"
        },
        {
          "internalType": "bytes32",
          "name": "symbol",
          "type": "bytes32"
        }
      ],
      "name": "getLiquidity",
      "outputs": [
        {
          "internalType": "uint256",
          "name": "count",
          "type": "uint256"
        }
      ],
      "stateMutability": "view",
      "type": "function"
    },
    {
      "inputs": [
        {
          "internalType": "address",
          "name": "to",
          "type": "address"
        },
        {
          "internalType": "bytes32",
          "name": "fiatSymbol",
          "type": "bytes32"
        }
      ],
      "name": "getLiquidityFeeAccruced",
      "outputs": [
        {
          "internalType": "uint256",
          "name": "share",
          "type": "uint256"
        }
      ],
      "stateMutability": "view",
      "type": "function"
    },
    {
      "inputs": [
        {
          "internalType": "bytes32",
          "name": "toSymbol",
          "type": "bytes32"
        }
      ],
      "name": "getSuppliedLiquidity",
      "outputs": [
        {
          "internalType": "uint256",
          "name": "count",
          "type": "uint256"
        }
      ],
      "stateMutability": "view",
      "type": "function"
    },
    {
      "inputs": [
        {
          "internalType": "address",
          "name": "spender",
          "type": "address"
        },
        {
          "internalType": "uint256",
          "name": "addedValue",
          "type": "uint256"
        }
      ],
      "name": "increaseAllowance",
      "outputs": [
        {
          "internalType": "bool",
          "name": "",
          "type": "bool"
        }
      ],
      "stateMutability": "nonpayable",
      "type": "function"
    },
    {
      "inputs": [
        {
          "internalType": "bytes32",
          "name": "",
          "type": "bytes32"
        }
      ],
      "name": "ipFeePool",
      "outputs": [
        {
          "internalType": "uint256",
          "name": "",
          "type": "uint256"
        }
      ],
      "stateMutability": "view",
      "type": "function"
    },
    {
      "inputs": [],
      "name": "liquidityFactor",
      "outputs": [
        {
          "internalType": "uint256",
          "name": "",
          "type": "uint256"
        }
      ],
      "stateMutability": "view",
      "type": "function"
    },
    {
      "inputs": [
        {
          "internalType": "address",
          "name": "",
          "type": "address"
        },
        {
          "internalType": "bytes32",
          "name": "",
          "type": "bytes32"
        }
      ],
      "name": "liquidityProvider",
      "outputs": [
        {
          "internalType": "uint256",
          "name": "",
          "type": "uint256"
        }
      ],
      "stateMutability": "view",
      "type": "function"
    },
    {
      "inputs": [
        {
          "internalType": "address",
          "name": "",
          "type": "address"
        },
        {
          "internalType": "bytes32",
          "name": "",
          "type": "bytes32"
        }
      ],
      "name": "lpFee2Withdraw",
      "outputs": [
        {
          "internalType": "uint256",
          "name": "",
          "type": "uint256"
        }
      ],
      "stateMutability": "view",
      "type": "function"
    },
    {
      "inputs": [
        {
          "internalType": "bytes32",
          "name": "",
          "type": "bytes32"
        }
      ],
      "name": "lpFeePool",
      "outputs": [
        {
          "internalType": "uint256",
          "name": "",
          "type": "uint256"
        }
      ],
      "stateMutability": "view",
      "type": "function"
    },
    {
      "inputs": [
        {
          "internalType": "uint256",
          "name": "",
          "type": "uint256"
        }
      ],
      "name": "lpTokenList",
      "outputs": [
        {
          "internalType": "bytes32",
          "name": "",
          "type": "bytes32"
        }
      ],
      "stateMutability": "view",
      "type": "function"
    },
    {
      "inputs": [
        {
          "internalType": "bytes32",
          "name": "",
          "type": "bytes32"
        }
      ],
      "name": "lpTokens",
      "outputs": [
        {
          "internalType": "bytes32",
          "name": "symbol",
          "type": "bytes32"
        },
        {
          "internalType": "address",
          "name": "tokenAddress",
          "type": "address"
        }
      ],
      "stateMutability": "view",
      "type": "function"
    },
    {
      "inputs": [],
      "name": "name",
      "outputs": [
        {
          "internalType": "string",
          "name": "",
          "type": "string"
        }
      ],
      "stateMutability": "view",
      "type": "function"
    },
    {
      "inputs": [
        {
          "internalType": "uint256",
          "name": "bd",
          "type": "uint256"
        }
      ],
      "name": "setBaseDivisor",
      "outputs": [],
      "stateMutability": "nonpayable",
      "type": "function"
    },
    {
      "inputs": [
        {
          "internalType": "uint256",
          "name": "fee",
          "type": "uint256"
        }
      ],
      "name": "setEquilibriumFee",
      "outputs": [],
      "stateMutability": "nonpayable",
      "type": "function"
    },
    {
      "inputs": [
        {
          "internalType": "uint256",
          "name": "lf",
          "type": "uint256"
        }
      ],
      "name": "setLiquidityFactor",
      "outputs": [],
      "stateMutability": "nonpayable",
      "type": "function"
    },
    {
      "inputs": [
        {
          "internalType": "bytes32",
          "name": "",
          "type": "bytes32"
        }
      ],
      "name": "suppliedLiquidity",
      "outputs": [
        {
          "internalType": "uint256",
          "name": "",
          "type": "uint256"
        }
      ],
      "stateMutability": "view",
      "type": "function"
    },
    {
      "inputs": [],
      "name": "symbol",
      "outputs": [
        {
          "internalType": "string",
          "name": "",
          "type": "string"
        }
      ],
      "stateMutability": "view",
      "type": "function"
    },
    {
      "inputs": [],
      "name": "token",
      "outputs": [
        {
          "internalType": "contract ERC20",
          "name": "",
          "type": "address"
        }
      ],
      "stateMutability": "view",
      "type": "function"
    },
    {
      "inputs": [],
      "name": "totalIPfee",
      "outputs": [
        {
          "internalType": "uint256",
          "name": "",
          "type": "uint256"
        }
      ],
      "stateMutability": "view",
      "type": "function"
    },
    {
      "inputs": [],
      "name": "totalLPfee",
      "outputs": [
        {
          "internalType": "uint256",
          "name": "",
          "type": "uint256"
        }
      ],
      "stateMutability": "view",
      "type": "function"
    },
    {
      "inputs": [],
      "name": "totalSupply",
      "outputs": [
        {
          "internalType": "uint256",
          "name": "",
          "type": "uint256"
        }
      ],
      "stateMutability": "view",
      "type": "function"
    },
    {
      "inputs": [
        {
          "internalType": "address",
          "name": "recipient",
          "type": "address"
        },
        {
          "internalType": "uint256",
          "name": "amount",
          "type": "uint256"
        }
      ],
      "name": "transfer",
      "outputs": [
        {
          "internalType": "bool",
          "name": "",
          "type": "bool"
        }
      ],
      "stateMutability": "nonpayable",
      "type": "function"
    },
    {
      "inputs": [
        {
          "internalType": "uint256",
          "name": "amount",
          "type": "uint256"
        },
        {
          "internalType": "address",
          "name": "to",
          "type": "address"
        },
        {
          "internalType": "bytes32",
          "name": "destinationFiatSymbol",
          "type": "bytes32"
        }
      ],
      "name": "transferFiat",
      "outputs": [],
      "stateMutability": "nonpayable",
      "type": "function"
    },
    {
      "inputs": [
        {
          "internalType": "address",
          "name": "sender",
          "type": "address"
        },
        {
          "internalType": "address",
          "name": "recipient",
          "type": "address"
        },
        {
          "internalType": "uint256",
          "name": "amount",
          "type": "uint256"
        }
      ],
      "name": "transferFrom",
      "outputs": [
        {
          "internalType": "bool",
          "name": "",
          "type": "bool"
        }
      ],
      "stateMutability": "nonpayable",
      "type": "function"
    },
    {
      "inputs": [
        {
          "internalType": "uint256",
          "name": "amount",
          "type": "uint256"
        },
        {
          "internalType": "address",
          "name": "to",
          "type": "address"
        },
        {
          "internalType": "bytes32",
          "name": "fiatSymbol",
          "type": "bytes32"
        }
      ],
      "name": "withdrawLiquidity",
      "outputs": [],
      "stateMutability": "nonpayable",
      "type": "function"
    },
    {
      "inputs": [
        {
          "internalType": "uint256",
          "name": "amount",
          "type": "uint256"
        },
        {
          "internalType": "address",
          "name": "to",
          "type": "address"
        },
        {
          "internalType": "bytes32",
          "name": "toSymbol",
          "type": "bytes32"
        }
      ],
      "name": "withdrawRequest",
      "outputs": [],
      "stateMutability": "nonpayable",
      "type": "function"
    },
    {
      "inputs": [
        {
          "internalType": "uint256",
          "name": "",
          "type": "uint256"
        }
      ],
      "name": "withdrawRequests",
      "outputs": [
        {
          "internalType": "uint256",
          "name": "amount",
          "type": "uint256"
        },
        {
          "internalType": "address",
          "name": "to",
          "type": "address"
        },
        {
          "internalType": "bytes32",
          "name": "tokenSymbol",
          "type": "bytes32"
        },
        {
          "internalType": "uint256",
          "name": "timestamp",
          "type": "uint256"
        }
      ],
      "stateMutability": "view",
      "type": "function"
    }
  ],
  "bytecode": "0x60806040526014600d556002600e55620f4240600f556127106010553480156200002857600080fd5b50604051620047683803806200476883398181016040528101906200004e9190620001ef565b8181816003908051906020019062000068929190620000cd565b50806004908051906020019062000081929190620000cd565b50505033600860006101000a81548173ffffffffffffffffffffffffffffffffffffffff021916908373ffffffffffffffffffffffffffffffffffffffff1602179055505050620003d2565b828054620000db90620002f7565b90600052602060002090601f016020900481019282620000ff57600085556200014b565b82601f106200011a57805160ff19168380011785556200014b565b828001600101855582156200014b579182015b828111156200014a5782518255916020019190600101906200012d565b5b5090506200015a91906200015e565b5090565b5b80821115620001795760008160009055506001016200015f565b5090565b6000620001946200018e846200028b565b62000262565b905082815260208101848484011115620001ad57600080fd5b620001ba848285620002c1565b509392505050565b600082601f830112620001d457600080fd5b8151620001e68482602086016200017d565b91505092915050565b600080604083850312156200020357600080fd5b600083015167ffffffffffffffff8111156200021e57600080fd5b6200022c85828601620001c2565b925050602083015167ffffffffffffffff8111156200024a57600080fd5b6200025885828601620001c2565b9150509250929050565b60006200026e62000281565b90506200027c82826200032d565b919050565b6000604051905090565b600067ffffffffffffffff821115620002a957620002a862000392565b5b620002b482620003c1565b9050602081019050919050565b60005b83811015620002e1578082015181840152602081019050620002c4565b83811115620002f1576000848401525b50505050565b600060028204905060018216806200031057607f821691505b6020821081141562000327576200032662000363565b5b50919050565b6200033882620003c1565b810181811067ffffffffffffffff821117156200035a576200035962000392565b5b80604052505050565b7f4e487b7100000000000000000000000000000000000000000000000000000000600052602260045260246000fd5b7f4e487b7100000000000000000000000000000000000000000000000000000000600052604160045260246000fd5b6000601f19601f8301169050919050565b61438680620003e26000396000f3fe608060405234801561001057600080fd5b506004361061027f5760003560e01c806377dcf5cc1161015c578063c95504c8116100ce578063f339c92011610087578063f339c92014610895578063f851a440146108c5578063fb479686146108e3578063fc0c546a14610901578063fddd01751461091f578063fee30ffa1461093d5761027f565b8063c95504c8146107ae578063cab93c7d146107cc578063cf605fcd146107e8578063dd62ed3e14610819578063e2802b8814610849578063eca3b530146108655761027f565b806392d356ce1161012057806392d356ce1461069d57806395d89b41146106cd578063979c4631146106eb578063992a7dfb1461071b578063a457c2d71461074e578063a9059cbb1461077e5761027f565b806377dcf5cc146105d5578063798446ec146106055780637dd5f6fd1461063557806389027737146106515780638d8daae8146106815761027f565b8063313ce567116101f5578063430dca50116101b9578063430dca50146104dc57806347d24da51461050d5780635030506c146105295780635a71ad4c14610559578063706bc02d1461057557806370a08231146105a55761027f565b8063313ce56714610410578063395093511461042e5780633a1894831461045e5780633a652b901461047c578063402d037e146104ac5761027f565b8063142b8b8e11610247578063142b8b8e14610350578063177c54571461036c57806318160ddd146103885780631a339bed146103a657806323b872dd146103c457806330ba5004146103f45761027f565b80630459e5aa1461028457806306fdde03146102b457806307ac6473146102d2578063095ea7b3146103025780631224abfb14610332575b600080fd5b61029e600480360381019061029991906133cd565b61096d565b6040516102ab91906139db565b60405180910390f35b6102bc610a3d565b6040516102c99190613819565b60405180910390f35b6102ec60048036038101906102e79190613214565b610acf565b6040516102f991906139db565b60405180910390f35b61031c600480360381019061031791906131af565b610ae7565b604051610329919061379f565b60405180910390f35b61033a610b05565b604051610347919061377d565b60405180910390f35b61036a6004803603810190610365919061331a565b610cf8565b005b61038660048036038101906103819190613279565b61107c565b005b610390611116565b60405161039d91906139db565b60405180910390f35b6103ae611120565b6040516103bb91906139db565b60405180910390f35b6103de60048036038101906103d99190613124565b611126565b6040516103eb919061379f565b60405180910390f35b61040e60048036038101906104099190613279565b61121e565b005b6104186112b8565b6040516104259190613ab7565b60405180910390f35b610448600480360381019061044391906131af565b6112c1565b604051610455919061379f565b60405180910390f35b61046661136d565b60405161047391906139db565b60405180910390f35b61049660048036038101906104919190613391565b611373565b6040516104a391906139db565b60405180910390f35b6104c660048036038101906104c19190613214565b611657565b6040516104d391906139db565b60405180910390f35b6104f660048036038101906104f19190613214565b61166f565b6040516105049291906137d5565b60405180910390f35b61052760048036038101906105229190613279565b6116b3565b005b610543600480360381019061053e9190613173565b61174d565b60405161055091906139db565b60405180910390f35b610573600480360381019061056e91906132cb565b611772565b005b61058f600480360381019061058a9190613173565b611975565b60405161059c91906139db565b60405180910390f35b6105bf60048036038101906105ba91906130bf565b6119d0565b6040516105cc91906139db565b60405180910390f35b6105ef60048036038101906105ea9190613214565b611a18565b6040516105fc91906139db565b60405180910390f35b61061f600480360381019061061a9190613214565b611a35565b60405161062c91906139db565b60405180910390f35b61064f600480360381019061064a919061323d565b611a4d565b005b61066b60048036038101906106669190613173565b611b9c565b60405161067891906139db565b60405180910390f35b61069b600480360381019061069691906132cb565b611bc1565b005b6106b760048036038101906106b29190613214565b611e9b565b6040516106c491906139db565b60405180910390f35b6106d5611eb8565b6040516106e29190613819565b60405180910390f35b61070560048036038101906107009190613279565b611f4a565b60405161071291906137ba565b60405180910390f35b61073560048036038101906107309190613279565b611f6e565b6040516107459493929190613a72565b60405180910390f35b610768600480360381019061076391906131af565b611fbe565b604051610775919061379f565b60405180910390f35b610798600480360381019061079391906131af565b6120a9565b6040516107a5919061379f565b60405180910390f35b6107b66120c7565b6040516107c391906139db565b60405180910390f35b6107e660048036038101906107e191906132cb565b6120cd565b005b61080260048036038101906107fd9190613214565b612415565b6040516108109291906137d5565b60405180910390f35b610833600480360381019061082e91906130e8565b612459565b60405161084091906139db565b60405180910390f35b610863600480360381019061085e919061323d565b6124e0565b005b61087f600480360381019061087a9190613173565b61262f565b60405161088c91906139db565b60405180910390f35b6108af60048036038101906108aa9190613279565b612763565b6040516108bc91906137ba565b60405180910390f35b6108cd612787565b6040516108da9190613739565b60405180910390f35b6108eb6127ad565b6040516108f8919061377d565b60405180910390f35b6109096129a0565b60405161091691906137fe565b60405180910390f35b6109276129c6565b60405161093491906139db565b60405180910390f35b61095760048036038101906109529190613214565b6129cc565b60405161096491906139db565b60405180910390f35b6000600860009054906101000a900473ffffffffffffffffffffffffffffffffffffffff1673ffffffffffffffffffffffffffffffffffffffff163373ffffffffffffffffffffffffffffffffffffffff16146109ff576040517f08c379a00000000000000000000000000000000000000000000000000000000081526004016109f6906138db565b60405180910390fd5b6000610a0b8484611373565b90506127108582612710610a1f9190613b27565b610a299190613d1f565b610a339190613b7d565b9150509392505050565b606060038054610a4c90613e63565b80601f0160208091040260200160405190810160405280929190818152602001828054610a7890613e63565b8015610ac55780601f10610a9a57610100808354040283529160200191610ac5565b820191906000526020600020905b815481529060010190602001808311610aa857829003601f168201915b5050505050905090565b60126020528060005260406000206000915090505481565b6000610afb610af46129e9565b84846129f1565b6001905092915050565b60606000600c8054905067ffffffffffffffff811115610b4e577f4e487b7100000000000000000000000000000000000000000000000000000000600052604160045260246000fd5b604051908082528060200260200182016040528015610b8757816020015b610b74613023565b815260200190600190039081610b6c5790505b50905060005b600b80549050811015610cf0576040518060400160405280600a6000600c8581548110610be3577f4e487b7100000000000000000000000000000000000000000000000000000000600052603260045260246000fd5b90600052602060002001548152602001908152602001600020600001548152602001600a6000600c8581548110610c43577f4e487b7100000000000000000000000000000000000000000000000000000000600052603260045260246000fd5b9060005260206000200154815260200190815260200160002060010160009054906101000a900473ffffffffffffffffffffffffffffffffffffffff1673ffffffffffffffffffffffffffffffffffffffff16815250828281518110610cd2577f4e487b7100000000000000000000000000000000000000000000000000000000600052603260045260246000fd5b60200260200101819052508080610ce890613e95565b915050610b8d565b508091505090565b82600073ffffffffffffffffffffffffffffffffffffffff166009600083815260200190815260200160002060010160009054906101000a900473ffffffffffffffffffffffffffffffffffffffff1673ffffffffffffffffffffffffffffffffffffffff161415610d9f576040517f08c379a0000000000000000000000000000000000000000000000000000000008152600401610d96906139bb565b60405180910390fd5b82600073ffffffffffffffffffffffffffffffffffffffff16600a600083815260200190815260200160002060010160009054906101000a900473ffffffffffffffffffffffffffffffffffffffff1673ffffffffffffffffffffffffffffffffffffffff161415610e46576040517f08c379a0000000000000000000000000000000000000000000000000000000008152600401610e3d9061389b565b60405180910390fd5b600860009054906101000a900473ffffffffffffffffffffffffffffffffffffffff1673ffffffffffffffffffffffffffffffffffffffff163373ffffffffffffffffffffffffffffffffffffffff1614610ed6576040517f08c379a0000000000000000000000000000000000000000000000000000000008152600401610ecd906138db565b60405180910390fd5b600a600085815260200190815260200160002060010160009054906101000a900473ffffffffffffffffffffffffffffffffffffffff1673ffffffffffffffffffffffffffffffffffffffff1663a9059cbb87858a610f359190613d1f565b6040518363ffffffff1660e01b8152600401610f52929190613754565b602060405180830381600087803b158015610f6c57600080fd5b505af1158015610f80573d6000803e3d6000fd5b505050506040513d601f19601f82011682018060405250810190610fa491906131eb565b5086601160008781526020019081526020016000206000828254610fc89190613b27565b9250508190555086601660008873ffffffffffffffffffffffffffffffffffffffff1673ffffffffffffffffffffffffffffffffffffffff1681526020019081526020016000206000878152602001908152602001600020600082825461102f9190613b27565b925050819055507f7057e4110944b1fc1e9acefd0b0abea5a15e4a8795fb9663e8bfce5e304b32818787878760405161106b9493929190613a2d565b60405180910390a150505050505050565b600860009054906101000a900473ffffffffffffffffffffffffffffffffffffffff1673ffffffffffffffffffffffffffffffffffffffff163373ffffffffffffffffffffffffffffffffffffffff161461110c576040517f08c379a0000000000000000000000000000000000000000000000000000000008152600401611103906138db565b60405180910390fd5b80600d8190555050565b6000600254905090565b60145481565b6000611133848484612bbc565b6000600160008673ffffffffffffffffffffffffffffffffffffffff1673ffffffffffffffffffffffffffffffffffffffff168152602001908152602001600020600061117e6129e9565b73ffffffffffffffffffffffffffffffffffffffff1673ffffffffffffffffffffffffffffffffffffffff168152602001908152602001600020549050828110156111fe576040517f08c379a00000000000000000000000000000000000000000000000000000000081526004016111f59061393b565b60405180910390fd5b6112128561120a6129e9565b8584036129f1565b60019150509392505050565b600860009054906101000a900473ffffffffffffffffffffffffffffffffffffffff1673ffffffffffffffffffffffffffffffffffffffff163373ffffffffffffffffffffffffffffffffffffffff16146112ae576040517f08c379a00000000000000000000000000000000000000000000000000000000081526004016112a5906138db565b60405180910390fd5b80600f8190555050565b60006012905090565b60006113636112ce6129e9565b8484600160006112dc6129e9565b73ffffffffffffffffffffffffffffffffffffffff1673ffffffffffffffffffffffffffffffffffffffff16815260200190815260200160002060008873ffffffffffffffffffffffffffffffffffffffff1673ffffffffffffffffffffffffffffffffffffffff1681526020019081526020016000205461135e9190613b27565b6129f1565b6001905092915050565b600d5481565b6000600860009054906101000a900473ffffffffffffffffffffffffffffffffffffffff1673ffffffffffffffffffffffffffffffffffffffff163373ffffffffffffffffffffffffffffffffffffffff1614611405576040517f08c379a00000000000000000000000000000000000000000000000000000000081526004016113fc906138db565b60405180910390fd5b60008073ffffffffffffffffffffffffffffffffffffffff166009600085815260200190815260200160002060010160009054906101000a900473ffffffffffffffffffffffffffffffffffffffff1673ffffffffffffffffffffffffffffffffffffffff161461154157836009600085815260200190815260200160002060010160009054906101000a900473ffffffffffffffffffffffffffffffffffffffff1673ffffffffffffffffffffffffffffffffffffffff166370a08231306040518263ffffffff1660e01b81526004016114e09190613739565b60206040518083038186803b1580156114f857600080fd5b505afa15801561150c573d6000803e3d6000fd5b505050506040513d601f19601f8201168201806040525081019061153091906132a2565b61153a9190613d79565b9050611585565b60008111611584576040517f08c379a000000000000000000000000000000000000000000000000000000000815260040161157b9061391b565b60405180910390fd5b5b601160008481526020019081526020016000205481106115aa57600d54915050611651565b60006011600085815260200190815260200160002054600f548360116000888152602001908152602001600020546115e29190613d79565b6115ec9190613d1f565b6115f69190613b7d565b90506000600f546002600f546103e8856116109190613d1f565b61161a9190613b7d565b6103e86116279190613b27565b6116319190613c01565b600d5461163e9190613d1f565b6116489190613b7d565b90508093505050505b92915050565b60116020528060005260406000206000915090505481565b600a6020528060005260406000206000915090508060000154908060010160009054906101000a900473ffffffffffffffffffffffffffffffffffffffff16905082565b600860009054906101000a900473ffffffffffffffffffffffffffffffffffffffff1673ffffffffffffffffffffffffffffffffffffffff163373ffffffffffffffffffffffffffffffffffffffff1614611743576040517f08c379a000000000000000000000000000000000000000000000000000000000815260040161173a906138db565b60405180910390fd5b80600e8190555050565b6016602052816000526040600020602052806000526040600020600091509150505481565b80600073ffffffffffffffffffffffffffffffffffffffff16600a600083815260200190815260200160002060010160009054906101000a900473ffffffffffffffffffffffffffffffffffffffff1673ffffffffffffffffffffffffffffffffffffffff161415611819576040517f08c379a00000000000000000000000000000000000000000000000000000000081526004016118109061389b565b60405180910390fd5b600860009054906101000a900473ffffffffffffffffffffffffffffffffffffffff1673ffffffffffffffffffffffffffffffffffffffff163373ffffffffffffffffffffffffffffffffffffffff16146118a9576040517f08c379a00000000000000000000000000000000000000000000000000000000081526004016118a0906138db565b60405180910390fd5b600660008154809291906118bc90613e95565b9190505550426005600060065481526020019081526020016000206003018190555083600560006006548152602001908152602001600020600001819055508260056000600654815260200190815260200160002060010160006101000a81548173ffffffffffffffffffffffffffffffffffffffff021916908373ffffffffffffffffffffffffffffffffffffffff160217905550816005600060065481526020019081526020016000206002018190555050505050565b6000601660008473ffffffffffffffffffffffffffffffffffffffff1673ffffffffffffffffffffffffffffffffffffffff168152602001908152602001600020600083815260200190815260200160002054905092915050565b60008060008373ffffffffffffffffffffffffffffffffffffffff1673ffffffffffffffffffffffffffffffffffffffff168152602001908152602001600020549050919050565b600060116000838152602001908152602001600020549050919050565b60136020528060005260406000206000915090505481565b600860009054906101000a900473ffffffffffffffffffffffffffffffffffffffff1673ffffffffffffffffffffffffffffffffffffffff163373ffffffffffffffffffffffffffffffffffffffff1614611add576040517f08c379a0000000000000000000000000000000000000000000000000000000008152600401611ad4906138db565b60405180910390fd5b60405180604001604052808381526020018273ffffffffffffffffffffffffffffffffffffffff16815250600960008481526020019081526020016000206000820151816000015560208201518160010160006101000a81548173ffffffffffffffffffffffffffffffffffffffff021916908373ffffffffffffffffffffffffffffffffffffffff160217905550905050600b8290806001815401808255809150506001900390600052602060002001600090919091909150555050565b6017602052816000526040600020602052806000526040600020600091509150505481565b80600073ffffffffffffffffffffffffffffffffffffffff166009600083815260200190815260200160002060010160009054906101000a900473ffffffffffffffffffffffffffffffffffffffff1673ffffffffffffffffffffffffffffffffffffffff161415611c68576040517f08c379a0000000000000000000000000000000000000000000000000000000008152600401611c5f906139bb565b60405180910390fd5b83601660008573ffffffffffffffffffffffffffffffffffffffff1673ffffffffffffffffffffffffffffffffffffffff1681526020019081526020016000206000848152602001908152602001600020541015611cfb576040517f08c379a0000000000000000000000000000000000000000000000000000000008152600401611cf2906138fb565b60405180910390fd5b6009600083815260200190815260200160002060010160009054906101000a900473ffffffffffffffffffffffffffffffffffffffff1673ffffffffffffffffffffffffffffffffffffffff1663a9059cbb84866040518363ffffffff1660e01b8152600401611d6c929190613754565b602060405180830381600087803b158015611d8657600080fd5b505af1158015611d9a573d6000803e3d6000fd5b505050506040513d601f19601f82011682018060405250810190611dbe91906131eb565b50611dc98383612e3d565b83601160008481526020019081526020016000206000828254611dec9190613d79565b9250508190555083601660008573ffffffffffffffffffffffffffffffffffffffff1673ffffffffffffffffffffffffffffffffffffffff16815260200190815260200160002060008481526020019081526020016000206000828254611e539190613d79565b925050819055507f246236c6eaed201562b17153fd5d070b8b6fc49ccd3459a6c7282146317fb952848484604051611e8d939291906139f6565b60405180910390a150505050565b600060136000838152602001908152602001600020549050919050565b606060048054611ec790613e63565b80601f0160208091040260200160405190810160405280929190818152602001828054611ef390613e63565b8015611f405780601f10611f1557610100808354040283529160200191611f40565b820191906000526020600020905b815481529060010190602001808311611f2357829003601f168201915b5050505050905090565b600c8181548110611f5a57600080fd5b906000526020600020016000915090505481565b60056020528060005260406000206000915090508060000154908060010160009054906101000a900473ffffffffffffffffffffffffffffffffffffffff16908060020154908060030154905084565b60008060016000611fcd6129e9565b73ffffffffffffffffffffffffffffffffffffffff1673ffffffffffffffffffffffffffffffffffffffff16815260200190815260200160002060008573ffffffffffffffffffffffffffffffffffffffff1673ffffffffffffffffffffffffffffffffffffffff1681526020019081526020016000205490508281101561208a576040517f08c379a00000000000000000000000000000000000000000000000000000000081526004016120819061399b565b60405180910390fd5b61209e6120956129e9565b858584036129f1565b600191505092915050565b60006120bd6120b66129e9565b8484612bbc565b6001905092915050565b600e5481565b80600073ffffffffffffffffffffffffffffffffffffffff166009600083815260200190815260200160002060010160009054906101000a900473ffffffffffffffffffffffffffffffffffffffff1673ffffffffffffffffffffffffffffffffffffffff161415612174576040517f08c379a000000000000000000000000000000000000000000000000000000000815260040161216b906139bb565b60405180910390fd5b600860009054906101000a900473ffffffffffffffffffffffffffffffffffffffff1673ffffffffffffffffffffffffffffffffffffffff163373ffffffffffffffffffffffffffffffffffffffff1614612204576040517f08c379a00000000000000000000000000000000000000000000000000000000081526004016121fb906138db565b60405180910390fd5b60006122108584611373565b90506000600d54826122229190613d79565b905061271086600d546122359190613d1f565b61223f9190613b7d565b6012600086815260200190815260200160002060008282546122619190613b27565b9250508190555061271086600d546122799190613d1f565b6122839190613b7d565b601460008282546122949190613b27565b9250508190555061271086826122aa9190613d1f565b6122b49190613b7d565b6013600086815260200190815260200160002060008282546122d69190613b27565b9250508190555061271086826122ec9190613d1f565b6122f69190613b7d565b601560008282546123079190613b27565b925050819055506009600085815260200190815260200160002060010160009054906101000a900473ffffffffffffffffffffffffffffffffffffffff1673ffffffffffffffffffffffffffffffffffffffff1663a9059cbb86886040518363ffffffff1660e01b815260040161237f929190613754565b602060405180830381600087803b15801561239957600080fd5b505af11580156123ad573d6000803e3d6000fd5b505050506040513d601f19601f820116820180604052508101906123d191906131eb565b507f10d816247ce26817ec32a37ad18e09ddbe49fa88a1ed5c4fe05432123f55f112868686604051612405939291906139f6565b60405180910390a1505050505050565b60096020528060005260406000206000915090508060000154908060010160009054906101000a900473ffffffffffffffffffffffffffffffffffffffff16905082565b6000600160008473ffffffffffffffffffffffffffffffffffffffff1673ffffffffffffffffffffffffffffffffffffffff16815260200190815260200160002060008373ffffffffffffffffffffffffffffffffffffffff1673ffffffffffffffffffffffffffffffffffffffff16815260200190815260200160002054905092915050565b600860009054906101000a900473ffffffffffffffffffffffffffffffffffffffff1673ffffffffffffffffffffffffffffffffffffffff163373ffffffffffffffffffffffffffffffffffffffff1614612570576040517f08c379a0000000000000000000000000000000000000000000000000000000008152600401612567906138db565b60405180910390fd5b60405180604001604052808381526020018273ffffffffffffffffffffffffffffffffffffffff16815250600a60008481526020019081526020016000206000820151816000015560208201518160010160006101000a81548173ffffffffffffffffffffffffffffffffffffffff021916908373ffffffffffffffffffffffffffffffffffffffff160217905550905050600c8290806001815401808255809150506001900390600052602060002001600090919091909150555050565b600081600073ffffffffffffffffffffffffffffffffffffffff166009600083815260200190815260200160002060010160009054906101000a900473ffffffffffffffffffffffffffffffffffffffff1673ffffffffffffffffffffffffffffffffffffffff1614156126d8576040517f08c379a00000000000000000000000000000000000000000000000000000000081526004016126cf906139bb565b60405180910390fd5b60006011600085815260200190815260200160002054601454601660008873ffffffffffffffffffffffffffffffffffffffff1673ffffffffffffffffffffffffffffffffffffffff16815260200190815260200160002060008781526020019081526020016000205461274c9190613d1f565b6127569190613b7d565b9050809250505092915050565b600b818154811061277357600080fd5b906000526020600020016000915090505481565b600860009054906101000a900473ffffffffffffffffffffffffffffffffffffffff1681565b60606000600b8054905067ffffffffffffffff8111156127f6577f4e487b7100000000000000000000000000000000000000000000000000000000600052604160045260246000fd5b60405190808252806020026020018201604052801561282f57816020015b61281c613023565b8152602001906001900390816128145790505b50905060005b600b8054905081101561299857604051806040016040528060096000600b858154811061288b577f4e487b7100000000000000000000000000000000000000000000000000000000600052603260045260246000fd5b9060005260206000200154815260200190815260200160002060000154815260200160096000600b85815481106128eb577f4e487b7100000000000000000000000000000000000000000000000000000000600052603260045260246000fd5b9060005260206000200154815260200190815260200160002060010160009054906101000a900473ffffffffffffffffffffffffffffffffffffffff1673ffffffffffffffffffffffffffffffffffffffff1681525082828151811061297a577f4e487b7100000000000000000000000000000000000000000000000000000000600052603260045260246000fd5b6020026020010181905250808061299090613e95565b915050612835565b508091505090565b600760009054906101000a900473ffffffffffffffffffffffffffffffffffffffff1681565b60155481565b600060126000838152602001908152602001600020549050919050565b600033905090565b600073ffffffffffffffffffffffffffffffffffffffff168373ffffffffffffffffffffffffffffffffffffffff161415612a61576040517f08c379a0000000000000000000000000000000000000000000000000000000008152600401612a589061397b565b60405180910390fd5b600073ffffffffffffffffffffffffffffffffffffffff168273ffffffffffffffffffffffffffffffffffffffff161415612ad1576040517f08c379a0000000000000000000000000000000000000000000000000000000008152600401612ac89061385b565b60405180910390fd5b80600160008573ffffffffffffffffffffffffffffffffffffffff1673ffffffffffffffffffffffffffffffffffffffff16815260200190815260200160002060008473ffffffffffffffffffffffffffffffffffffffff1673ffffffffffffffffffffffffffffffffffffffff168152602001908152602001600020819055508173ffffffffffffffffffffffffffffffffffffffff168373ffffffffffffffffffffffffffffffffffffffff167f8c5be1e5ebec7d5bd14f71427d1e84f3dd0314c0f7b2291e5b200ac8c7c3b92583604051612baf91906139db565b60405180910390a3505050565b600073ffffffffffffffffffffffffffffffffffffffff168373ffffffffffffffffffffffffffffffffffffffff161415612c2c576040517f08c379a0000000000000000000000000000000000000000000000000000000008152600401612c239061395b565b60405180910390fd5b600073ffffffffffffffffffffffffffffffffffffffff168273ffffffffffffffffffffffffffffffffffffffff161415612c9c576040517f08c379a0000000000000000000000000000000000000000000000000000000008152600401612c939061383b565b60405180910390fd5b612ca7838383613019565b60008060008573ffffffffffffffffffffffffffffffffffffffff1673ffffffffffffffffffffffffffffffffffffffff16815260200190815260200160002054905081811015612d2d576040517f08c379a0000000000000000000000000000000000000000000000000000000008152600401612d24906138bb565b60405180910390fd5b8181036000808673ffffffffffffffffffffffffffffffffffffffff1673ffffffffffffffffffffffffffffffffffffffff16815260200190815260200160002081905550816000808573ffffffffffffffffffffffffffffffffffffffff1673ffffffffffffffffffffffffffffffffffffffff1681526020019081526020016000206000828254612dc09190613b27565b925050819055508273ffffffffffffffffffffffffffffffffffffffff168473ffffffffffffffffffffffffffffffffffffffff167fddf252ad1be2c89b69c2b068fc378daa952ba7f163c4a11628f55a4df523b3ef84604051612e2491906139db565b60405180910390a3612e3784848461301e565b50505050565b80600073ffffffffffffffffffffffffffffffffffffffff166009600083815260200190815260200160002060010160009054906101000a900473ffffffffffffffffffffffffffffffffffffffff1673ffffffffffffffffffffffffffffffffffffffff161415612ee4576040517f08c379a0000000000000000000000000000000000000000000000000000000008152600401612edb906139bb565b60405180910390fd5b6000612ef0848461262f565b90506000811015612f36576040517f08c379a0000000000000000000000000000000000000000000000000000000008152600401612f2d9061387b565b60405180910390fd5b6009600084815260200190815260200160002060010160009054906101000a900473ffffffffffffffffffffffffffffffffffffffff1673ffffffffffffffffffffffffffffffffffffffff1663a9059cbb85836040518363ffffffff1660e01b8152600401612fa7929190613754565b602060405180830381600087803b158015612fc157600080fd5b505af1158015612fd5573d6000803e3d6000fd5b505050506040513d601f19601f82011682018060405250810190612ff991906131eb565b50806014600082825461300c9190613d79565b9250508190555050505050565b505050565b505050565b604051806040016040528060008019168152602001600073ffffffffffffffffffffffffffffffffffffffff1681525090565b600081359050613065816142f4565b92915050565b60008151905061307a8161430b565b92915050565b60008135905061308f81614322565b92915050565b6000813590506130a481614339565b92915050565b6000815190506130b981614339565b92915050565b6000602082840312156130d157600080fd5b60006130df84828501613056565b91505092915050565b600080604083850312156130fb57600080fd5b600061310985828601613056565b925050602061311a85828601613056565b9150509250929050565b60008060006060848603121561313957600080fd5b600061314786828701613056565b935050602061315886828701613056565b925050604061316986828701613095565b9150509250925092565b6000806040838503121561318657600080fd5b600061319485828601613056565b92505060206131a585828601613080565b9150509250929050565b600080604083850312156131c257600080fd5b60006131d085828601613056565b92505060206131e185828601613095565b9150509250929050565b6000602082840312156131fd57600080fd5b600061320b8482850161306b565b91505092915050565b60006020828403121561322657600080fd5b600061323484828501613080565b91505092915050565b6000806040838503121561325057600080fd5b600061325e85828601613080565b925050602061326f85828601613056565b9150509250929050565b60006020828403121561328b57600080fd5b600061329984828501613095565b91505092915050565b6000602082840312156132b457600080fd5b60006132c2848285016130aa565b91505092915050565b6000806000606084860312156132e057600080fd5b60006132ee86828701613095565b93505060206132ff86828701613056565b925050604061331086828701613080565b9150509250925092565b600080600080600060a0868803121561333257600080fd5b600061334088828901613095565b955050602061335188828901613056565b945050604061336288828901613080565b935050606061337388828901613080565b925050608061338488828901613095565b9150509295509295909350565b600080604083850312156133a457600080fd5b60006133b285828601613095565b92505060206133c385828601613080565b9150509250929050565b6000806000606084860312156133e257600080fd5b60006133f086828701613095565b935050602061340186828701613095565b925050604061341286828701613080565b9150509250925092565b600061342883836136ec565b60408301905092915050565b61343d81613dad565b82525050565b61344c81613dad565b82525050565b600061345d82613ae2565b6134678185613b05565b935061347283613ad2565b8060005b838110156134a357815161348a888261341c565b975061349583613af8565b925050600181019050613476565b5085935050505092915050565b6134b981613dbf565b82525050565b6134c881613dcb565b82525050565b6134d781613dcb565b82525050565b6134e681613e0c565b82525050565b60006134f782613aed565b6135018185613b16565b9350613511818560208601613e30565b61351a81613f6b565b840191505092915050565b6000613532602383613b16565b915061353d82613f89565b604082019050919050565b6000613555602283613b16565b915061356082613fd8565b604082019050919050565b6000613578603483613b16565b915061358382614027565b604082019050919050565b600061359b601783613b16565b91506135a682614076565b602082019050919050565b60006135be602683613b16565b91506135c98261409f565b604082019050919050565b60006135e1600a83613b16565b91506135ec826140ee565b602082019050919050565b6000613604603b83613b16565b915061360f82614117565b604082019050919050565b6000613627601b83613b16565b915061363282614166565b602082019050919050565b600061364a602883613b16565b91506136558261418f565b604082019050919050565b600061366d602583613b16565b9150613678826141de565b604082019050919050565b6000613690602483613b16565b915061369b8261422d565b604082019050919050565b60006136b3602583613b16565b91506136be8261427c565b604082019050919050565b60006136d6601983613b16565b91506136e1826142cb565b602082019050919050565b60408201600082015161370260008501826134bf565b5060208201516137156020850182613434565b50505050565b61372481613df5565b82525050565b61373381613dff565b82525050565b600060208201905061374e6000830184613443565b92915050565b60006040820190506137696000830185613443565b613776602083018461371b565b9392505050565b600060208201905081810360008301526137978184613452565b905092915050565b60006020820190506137b460008301846134b0565b92915050565b60006020820190506137cf60008301846134ce565b92915050565b60006040820190506137ea60008301856134ce565b6137f76020830184613443565b9392505050565b600060208201905061381360008301846134dd565b92915050565b6000602082019050818103600083015261383381846134ec565b905092915050565b6000602082019050818103600083015261385481613525565b9050919050565b6000602082019050818103600083015261387481613548565b9050919050565b600060208201905081810360008301526138948161356b565b9050919050565b600060208201905081810360008301526138b48161358e565b9050919050565b600060208201905081810360008301526138d4816135b1565b9050919050565b600060208201905081810360008301526138f4816135d4565b9050919050565b60006020820190508181036000830152613914816135f7565b9050919050565b600060208201905081810360008301526139348161361a565b9050919050565b600060208201905081810360008301526139548161363d565b9050919050565b6000602082019050818103600083015261397481613660565b9050919050565b6000602082019050818103600083015261399481613683565b9050919050565b600060208201905081810360008301526139b4816136a6565b9050919050565b600060208201905081810360008301526139d4816136c9565b9050919050565b60006020820190506139f0600083018461371b565b92915050565b6000606082019050613a0b600083018661371b565b613a186020830185613443565b613a2560408301846134ce565b949350505050565b6000608082019050613a42600083018761371b565b613a4f6020830186613443565b613a5c60408301856134ce565b613a6960608301846134ce565b95945050505050565b6000608082019050613a87600083018761371b565b613a946020830186613443565b613aa160408301856134ce565b613aae606083018461371b565b95945050505050565b6000602082019050613acc600083018461372a565b92915050565b6000819050602082019050919050565b600081519050919050565b600081519050919050565b6000602082019050919050565b600082825260208201905092915050565b600082825260208201905092915050565b6000613b3282613df5565b9150613b3d83613df5565b9250827fffffffffffffffffffffffffffffffffffffffffffffffffffffffffffffffff03821115613b7257613b71613ede565b5b828201905092915050565b6000613b8882613df5565b9150613b9383613df5565b925082613ba357613ba2613f0d565b5b828204905092915050565b6000808291508390505b6001851115613bf857808604811115613bd457613bd3613ede565b5b6001851615613be35780820291505b8081029050613bf185613f7c565b9450613bb8565b94509492505050565b6000613c0c82613df5565b9150613c1783613dff565b9250613c447fffffffffffffffffffffffffffffffffffffffffffffffffffffffffffffffff8484613c4c565b905092915050565b600082613c5c5760019050613d18565b81613c6a5760009050613d18565b8160018114613c805760028114613c8a57613cb9565b6001915050613d18565b60ff841115613c9c57613c9b613ede565b5b8360020a915084821115613cb357613cb2613ede565b5b50613d18565b5060208310610133831016604e8410600b8410161715613cee5782820a905083811115613ce957613ce8613ede565b5b613d18565b613cfb8484846001613bae565b92509050818404811115613d1257613d11613ede565b5b81810290505b9392505050565b6000613d2a82613df5565b9150613d3583613df5565b9250817fffffffffffffffffffffffffffffffffffffffffffffffffffffffffffffffff0483118215151615613d6e57613d6d613ede565b5b828202905092915050565b6000613d8482613df5565b9150613d8f83613df5565b925082821015613da257613da1613ede565b5b828203905092915050565b6000613db882613dd5565b9050919050565b60008115159050919050565b6000819050919050565b600073ffffffffffffffffffffffffffffffffffffffff82169050919050565b6000819050919050565b600060ff82169050919050565b6000613e1782613e1e565b9050919050565b6000613e2982613dd5565b9050919050565b60005b83811015613e4e578082015181840152602081019050613e33565b83811115613e5d576000848401525b50505050565b60006002820490506001821680613e7b57607f821691505b60208210811415613e8f57613e8e613f3c565b5b50919050565b6000613ea082613df5565b91507fffffffffffffffffffffffffffffffffffffffffffffffffffffffffffffffff821415613ed357613ed2613ede565b5b600182019050919050565b7f4e487b7100000000000000000000000000000000000000000000000000000000600052601160045260246000fd5b7f4e487b7100000000000000000000000000000000000000000000000000000000600052601260045260246000fd5b7f4e487b7100000000000000000000000000000000000000000000000000000000600052602260045260246000fd5b6000601f19601f8301169050919050565b60008160011c9050919050565b7f45524332303a207472616e7366657220746f20746865207a65726f206164647260008201527f6573730000000000000000000000000000000000000000000000000000000000602082015250565b7f45524332303a20617070726f766520746f20746865207a65726f20616464726560008201527f7373000000000000000000000000000000000000000000000000000000000000602082015250565b7f72657761726420616d6f756e7420697320746f6f206c6f7720746f207769746860008201527f647261772061742074686973206d6f6d656d6e74000000000000000000000000602082015250565b7f4c5020746f6b656e20646f6573206e6f74206578697374000000000000000000600082015250565b7f45524332303a207472616e7366657220616d6f756e742065786365656473206260008201527f616c616e63650000000000000000000000000000000000000000000000000000602082015250565b7f6f6e6c792061646d696e00000000000000000000000000000000000000000000600082015250565b7f5769746864726177616c20616d6f756e7420726571756573746564206973206d60008201527f6f7265207468616e20737570706c696564206c69717569646974790000000000602082015250565b7f746f6b656e2073796d626f6c20646f6573206e6f742065786973740000000000600082015250565b7f45524332303a207472616e7366657220616d6f756e742065786365656473206160008201527f6c6c6f77616e6365000000000000000000000000000000000000000000000000602082015250565b7f45524332303a207472616e736665722066726f6d20746865207a65726f20616460008201527f6472657373000000000000000000000000000000000000000000000000000000602082015250565b7f45524332303a20617070726f76652066726f6d20746865207a65726f2061646460008201527f7265737300000000000000000000000000000000000000000000000000000000602082015250565b7f45524332303a2064656372656173656420616c6c6f77616e63652062656c6f7760008201527f207a65726f000000000000000000000000000000000000000000000000000000602082015250565b7f6669617420746f6b656e20646f6573206e6f7420657869737400000000000000600082015250565b6142fd81613dad565b811461430857600080fd5b50565b61431481613dbf565b811461431f57600080fd5b50565b61432b81613dcb565b811461433657600080fd5b50565b61434281613df5565b811461434d57600080fd5b5056fea264697066735822122071e35631df688efc8a780bf838b2911a6069d119aabbc5926cff4c75fb1a655964736f6c63430008040033",
  "linkReferences": {},
  "deployedLinkReferences": {}
}