{
  "_format": "hh-sol-artifact-1",
  "contractName": "LPTokens",
  "sourceName": "contracts/LPTokens.sol",
  "abi": [
    {
      "inputs": [
        {
          "internalType": "string",
          "name": "name",
          "type": "string"
        },
        {
          "internalType": "string",
          "name": "symbol",
          "type": "string"
        },
        {
          "internalType": "uint256",
          "name": "adminSupply",
          "type": "uint256"
        }
      ],
      "stateMutability": "nonpayable",
      "type": "constructor"
    },
    {
      "anonymous": false,
      "inputs": [
        {
          "indexed": true,
          "internalType": "address",
          "name": "owner",
          "type": "address"
        },
        {
          "indexed": true,
          "internalType": "address",
          "name": "spender",
          "type": "address"
        },
        {
          "indexed": false,
          "internalType": "uint256",
          "name": "value",
          "type": "uint256"
        }
      ],
      "name": "Approval",
      "type": "event"
    },
    {
      "anonymous": false,
      "inputs": [
        {
          "indexed": true,
          "internalType": "address",
          "name": "from",
          "type": "address"
        },
        {
          "indexed": true,
          "internalType": "address",
          "name": "to",
          "type": "address"
        },
        {
          "indexed": false,
          "internalType": "uint256",
          "name": "value",
          "type": "uint256"
        }
      ],
      "name": "Transfer",
      "type": "event"
    },
    {
      "inputs": [
        {
          "internalType": "address",
          "name": "owner",
          "type": "address"
        },
        {
          "internalType": "address",
          "name": "spender",
          "type": "address"
        }
      ],
      "name": "allowance",
      "outputs": [
        {
          "internalType": "uint256",
          "name": "",
          "type": "uint256"
        }
      ],
      "stateMutability": "view",
      "type": "function"
    },
    {
      "inputs": [
        {
          "internalType": "address",
          "name": "spender",
          "type": "address"
        },
        {
          "internalType": "uint256",
          "name": "amount",
          "type": "uint256"
        }
      ],
      "name": "approve",
      "outputs": [
        {
          "internalType": "bool",
          "name": "",
          "type": "bool"
        }
      ],
      "stateMutability": "nonpayable",
      "type": "function"
    },
    {
      "inputs": [
        {
          "internalType": "address",
          "name": "account",
          "type": "address"
        }
      ],
      "name": "balanceOf",
      "outputs": [
        {
          "internalType": "uint256",
          "name": "",
          "type": "uint256"
        }
      ],
      "stateMutability": "view",
      "type": "function"
    },
    {
      "inputs": [],
      "name": "decimals",
      "outputs": [
        {
          "internalType": "uint8",
          "name": "",
          "type": "uint8"
        }
      ],
      "stateMutability": "view",
      "type": "function"
    },
    {
      "inputs": [
        {
          "internalType": "address",
          "name": "spender",
          "type": "address"
        },
        {
          "internalType": "uint256",
          "name": "subtractedValue",
          "type": "uint256"
        }
      ],
      "name": "decreaseAllowance",
      "outputs": [
        {
          "internalType": "bool",
          "name": "",
          "type": "bool"
        }
      ],
      "stateMutability": "nonpayable",
      "type": "function"
    },
    {
      "inputs": [
        {
          "internalType": "address",
          "name": "spender",
          "type": "address"
        },
        {
          "internalType": "uint256",
          "name": "addedValue",
          "type": "uint256"
        }
      ],
      "name": "increaseAllowance",
      "outputs": [
        {
          "internalType": "bool",
          "name": "",
          "type": "bool"
        }
      ],
      "stateMutability": "nonpayable",
      "type": "function"
    },
    {
      "inputs": [
        {
          "internalType": "address",
          "name": "to",
          "type": "address"
        },
        {
          "internalType": "uint256",
          "name": "amount",
          "type": "uint256"
        }
      ],
      "name": "lpBurn",
      "outputs": [],
      "stateMutability": "nonpayable",
      "type": "function"
    },
    {
      "inputs": [
        {
          "internalType": "address",
          "name": "to",
          "type": "address"
        },
        {
          "internalType": "uint256",
          "name": "amount",
          "type": "uint256"
        }
      ],
      "name": "lpMint",
      "outputs": [],
      "stateMutability": "nonpayable",
      "type": "function"
    },
    {
      "inputs": [],
      "name": "lpTokenAdmin",
      "outputs": [
        {
          "internalType": "address",
          "name": "",
          "type": "address"
        }
      ],
      "stateMutability": "view",
      "type": "function"
    },
    {
      "inputs": [],
      "name": "name",
      "outputs": [
        {
          "internalType": "string",
          "name": "",
          "type": "string"
        }
      ],
      "stateMutability": "view",
      "type": "function"
    },
    {
      "inputs": [],
      "name": "symbol",
      "outputs": [
        {
          "internalType": "string",
          "name": "",
          "type": "string"
        }
      ],
      "stateMutability": "view",
      "type": "function"
    },
    {
      "inputs": [],
      "name": "totalSupply",
      "outputs": [
        {
          "internalType": "uint256",
          "name": "",
          "type": "uint256"
        }
      ],
      "stateMutability": "view",
      "type": "function"
    },
    {
      "inputs": [
        {
          "internalType": "address",
          "name": "recipient",
          "type": "address"
        },
        {
          "internalType": "uint256",
          "name": "amount",
          "type": "uint256"
        }
      ],
      "name": "transfer",
      "outputs": [
        {
          "internalType": "bool",
          "name": "",
          "type": "bool"
        }
      ],
      "stateMutability": "nonpayable",
      "type": "function"
    },
    {
      "inputs": [
        {
          "internalType": "address",
          "name": "sender",
          "type": "address"
        },
        {
          "internalType": "address",
          "name": "recipient",
          "type": "address"
        },
        {
          "internalType": "uint256",
          "name": "amount",
          "type": "uint256"
        }
      ],
      "name": "transferFrom",
      "outputs": [
        {
          "internalType": "bool",
          "name": "",
          "type": "bool"
        }
      ],
      "stateMutability": "nonpayable",
      "type": "function"
    }
  ],
  "bytecode": "0x60806040523480156200001157600080fd5b506040516200220d3803806200220d833981810160405281019062000037919062000385565b82828160039080519060200190620000519291906200024c565b5080600490805190602001906200006a9291906200024c565b50505033600560006101000a81548173ffffffffffffffffffffffffffffffffffffffff021916908373ffffffffffffffffffffffffffffffffffffffff160217905550620000c03382620000c960201b60201c565b505050620006de565b600073ffffffffffffffffffffffffffffffffffffffff168273ffffffffffffffffffffffffffffffffffffffff1614156200013c576040517f08c379a0000000000000000000000000000000000000000000000000000000008152600401620001339062000445565b60405180910390fd5b62000150600083836200024260201b60201c565b8060026000828254620001649190620004f4565b92505081905550806000808473ffffffffffffffffffffffffffffffffffffffff1673ffffffffffffffffffffffffffffffffffffffff1681526020019081526020016000206000828254620001bb9190620004f4565b925050819055508173ffffffffffffffffffffffffffffffffffffffff16600073ffffffffffffffffffffffffffffffffffffffff167fddf252ad1be2c89b69c2b068fc378daa952ba7f163c4a11628f55a4df523b3ef8360405162000222919062000467565b60405180910390a36200023e600083836200024760201b60201c565b5050565b505050565b505050565b8280546200025a9062000591565b90600052602060002090601f0160209004810192826200027e5760008555620002ca565b82601f106200029957805160ff1916838001178555620002ca565b82800160010185558215620002ca579182015b82811115620002c9578251825591602001919060010190620002ac565b5b509050620002d99190620002dd565b5090565b5b80821115620002f8576000816000905550600101620002de565b5090565b6000620003136200030d84620004ad565b62000484565b9050828152602081018484840111156200032c57600080fd5b620003398482856200055b565b509392505050565b600082601f8301126200035357600080fd5b815162000365848260208601620002fc565b91505092915050565b6000815190506200037f81620006c4565b92915050565b6000806000606084860312156200039b57600080fd5b600084015167ffffffffffffffff811115620003b657600080fd5b620003c48682870162000341565b935050602084015167ffffffffffffffff811115620003e257600080fd5b620003f08682870162000341565b925050604062000403868287016200036e565b9150509250925092565b60006200041c601f83620004e3565b915062000429826200069b565b602082019050919050565b6200043f8162000551565b82525050565b6000602082019050818103600083015262000460816200040d565b9050919050565b60006020820190506200047e600083018462000434565b92915050565b600062000490620004a3565b90506200049e8282620005c7565b919050565b6000604051905090565b600067ffffffffffffffff821115620004cb57620004ca6200065b565b5b620004d6826200068a565b9050602081019050919050565b600082825260208201905092915050565b6000620005018262000551565b91506200050e8362000551565b9250827fffffffffffffffffffffffffffffffffffffffffffffffffffffffffffffffff03821115620005465762000545620005fd565b5b828201905092915050565b6000819050919050565b60005b838110156200057b5780820151818401526020810190506200055e565b838111156200058b576000848401525b50505050565b60006002820490506001821680620005aa57607f821691505b60208210811415620005c157620005c06200062c565b5b50919050565b620005d2826200068a565b810181811067ffffffffffffffff82111715620005f457620005f36200065b565b5b80604052505050565b7f4e487b7100000000000000000000000000000000000000000000000000000000600052601160045260246000fd5b7f4e487b7100000000000000000000000000000000000000000000000000000000600052602260045260246000fd5b7f4e487b7100000000000000000000000000000000000000000000000000000000600052604160045260246000fd5b6000601f19601f8301169050919050565b7f45524332303a206d696e7420746f20746865207a65726f206164647265737300600082015250565b620006cf8162000551565b8114620006db57600080fd5b50565b611b1f80620006ee6000396000f3fe608060405234801561001057600080fd5b50600436106100ea5760003560e01c806370a082311161008c578063a7ca0f8311610066578063a7ca0f8314610273578063a9059cbb1461028f578063b3afa207146102bf578063dd62ed3e146102dd576100ea565b806370a08231146101f557806395d89b4114610225578063a457c2d714610243576100ea565b80631e4d77f2116100c85780631e4d77f21461015b57806323b872dd14610177578063313ce567146101a757806339509351146101c5576100ea565b806306fdde03146100ef578063095ea7b31461010d57806318160ddd1461013d575b600080fd5b6100f761030d565b604051610104919061141b565b60405180910390f35b610127600480360381019061012291906111b3565b61039f565b6040516101349190611400565b60405180910390f35b6101456103bd565b604051610152919061159d565b60405180910390f35b610175600480360381019061017091906111b3565b6103c7565b005b610191600480360381019061018c9190611164565b610465565b60405161019e9190611400565b60405180910390f35b6101af61055d565b6040516101bc91906115b8565b60405180910390f35b6101df60048036038101906101da91906111b3565b610566565b6040516101ec9190611400565b60405180910390f35b61020f600480360381019061020a91906110ff565b610612565b60405161021c919061159d565b60405180910390f35b61022d61065a565b60405161023a919061141b565b60405180910390f35b61025d600480360381019061025891906111b3565b6106ec565b60405161026a9190611400565b60405180910390f35b61028d600480360381019061028891906111b3565b6107d7565b005b6102a960048036038101906102a491906111b3565b610875565b6040516102b69190611400565b60405180910390f35b6102c7610893565b6040516102d491906113e5565b60405180910390f35b6102f760048036038101906102f29190611128565b6108b9565b604051610304919061159d565b60405180910390f35b60606003805461031c90611701565b80601f016020809104026020016040519081016040528092919081815260200182805461034890611701565b80156103955780601f1061036a57610100808354040283529160200191610395565b820191906000526020600020905b81548152906001019060200180831161037857829003601f168201915b5050505050905090565b60006103b36103ac610940565b8484610948565b6001905092915050565b6000600254905090565b600560009054906101000a900473ffffffffffffffffffffffffffffffffffffffff1673ffffffffffffffffffffffffffffffffffffffff163373ffffffffffffffffffffffffffffffffffffffff1614610457576040517f08c379a000000000000000000000000000000000000000000000000000000000815260040161044e906114bd565b60405180910390fd5b6104618282610b13565b5050565b6000610472848484610c73565b6000600160008673ffffffffffffffffffffffffffffffffffffffff1673ffffffffffffffffffffffffffffffffffffffff16815260200190815260200160002060006104bd610940565b73ffffffffffffffffffffffffffffffffffffffff1673ffffffffffffffffffffffffffffffffffffffff1681526020019081526020016000205490508281101561053d576040517f08c379a0000000000000000000000000000000000000000000000000000000008152600401610534906114dd565b60405180910390fd5b61055185610549610940565b858403610948565b60019150509392505050565b60006012905090565b6000610608610573610940565b848460016000610581610940565b73ffffffffffffffffffffffffffffffffffffffff1673ffffffffffffffffffffffffffffffffffffffff16815260200190815260200160002060008873ffffffffffffffffffffffffffffffffffffffff1673ffffffffffffffffffffffffffffffffffffffff1681526020019081526020016000205461060391906115ef565b610948565b6001905092915050565b60008060008373ffffffffffffffffffffffffffffffffffffffff1673ffffffffffffffffffffffffffffffffffffffff168152602001908152602001600020549050919050565b60606004805461066990611701565b80601f016020809104026020016040519081016040528092919081815260200182805461069590611701565b80156106e25780601f106106b7576101008083540402835291602001916106e2565b820191906000526020600020905b8154815290600101906020018083116106c557829003601f168201915b5050505050905090565b600080600160006106fb610940565b73ffffffffffffffffffffffffffffffffffffffff1673ffffffffffffffffffffffffffffffffffffffff16815260200190815260200160002060008573ffffffffffffffffffffffffffffffffffffffff1673ffffffffffffffffffffffffffffffffffffffff168152602001908152602001600020549050828110156107b8576040517f08c379a00000000000000000000000000000000000000000000000000000000081526004016107af9061155d565b60405180910390fd5b6107cc6107c3610940565b85858403610948565b600191505092915050565b600560009054906101000a900473ffffffffffffffffffffffffffffffffffffffff1673ffffffffffffffffffffffffffffffffffffffff163373ffffffffffffffffffffffffffffffffffffffff1614610867576040517f08c379a000000000000000000000000000000000000000000000000000000000815260040161085e906114bd565b60405180910390fd5b6108718282610ef4565b5050565b6000610889610882610940565b8484610c73565b6001905092915050565b600560009054906101000a900473ffffffffffffffffffffffffffffffffffffffff1681565b6000600160008473ffffffffffffffffffffffffffffffffffffffff1673ffffffffffffffffffffffffffffffffffffffff16815260200190815260200160002060008373ffffffffffffffffffffffffffffffffffffffff1673ffffffffffffffffffffffffffffffffffffffff16815260200190815260200160002054905092915050565b600033905090565b600073ffffffffffffffffffffffffffffffffffffffff168373ffffffffffffffffffffffffffffffffffffffff1614156109b8576040517f08c379a00000000000000000000000000000000000000000000000000000000081526004016109af9061153d565b60405180910390fd5b600073ffffffffffffffffffffffffffffffffffffffff168273ffffffffffffffffffffffffffffffffffffffff161415610a28576040517f08c379a0000000000000000000000000000000000000000000000000000000008152600401610a1f9061147d565b60405180910390fd5b80600160008573ffffffffffffffffffffffffffffffffffffffff1673ffffffffffffffffffffffffffffffffffffffff16815260200190815260200160002060008473ffffffffffffffffffffffffffffffffffffffff1673ffffffffffffffffffffffffffffffffffffffff168152602001908152602001600020819055508173ffffffffffffffffffffffffffffffffffffffff168373ffffffffffffffffffffffffffffffffffffffff167f8c5be1e5ebec7d5bd14f71427d1e84f3dd0314c0f7b2291e5b200ac8c7c3b92583604051610b06919061159d565b60405180910390a3505050565b600073ffffffffffffffffffffffffffffffffffffffff168273ffffffffffffffffffffffffffffffffffffffff161415610b83576040517f08c379a0000000000000000000000000000000000000000000000000000000008152600401610b7a9061157d565b60405180910390fd5b610b8f600083836110cb565b8060026000828254610ba191906115ef565b92505081905550806000808473ffffffffffffffffffffffffffffffffffffffff1673ffffffffffffffffffffffffffffffffffffffff1681526020019081526020016000206000828254610bf691906115ef565b925050819055508173ffffffffffffffffffffffffffffffffffffffff16600073ffffffffffffffffffffffffffffffffffffffff167fddf252ad1be2c89b69c2b068fc378daa952ba7f163c4a11628f55a4df523b3ef83604051610c5b919061159d565b60405180910390a3610c6f600083836110d0565b5050565b600073ffffffffffffffffffffffffffffffffffffffff168373ffffffffffffffffffffffffffffffffffffffff161415610ce3576040517f08c379a0000000000000000000000000000000000000000000000000000000008152600401610cda9061151d565b60405180910390fd5b600073ffffffffffffffffffffffffffffffffffffffff168273ffffffffffffffffffffffffffffffffffffffff161415610d53576040517f08c379a0000000000000000000000000000000000000000000000000000000008152600401610d4a9061143d565b60405180910390fd5b610d5e8383836110cb565b60008060008573ffffffffffffffffffffffffffffffffffffffff1673ffffffffffffffffffffffffffffffffffffffff16815260200190815260200160002054905081811015610de4576040517f08c379a0000000000000000000000000000000000000000000000000000000008152600401610ddb9061149d565b60405180910390fd5b8181036000808673ffffffffffffffffffffffffffffffffffffffff1673ffffffffffffffffffffffffffffffffffffffff16815260200190815260200160002081905550816000808573ffffffffffffffffffffffffffffffffffffffff1673ffffffffffffffffffffffffffffffffffffffff1681526020019081526020016000206000828254610e7791906115ef565b925050819055508273ffffffffffffffffffffffffffffffffffffffff168473ffffffffffffffffffffffffffffffffffffffff167fddf252ad1be2c89b69c2b068fc378daa952ba7f163c4a11628f55a4df523b3ef84604051610edb919061159d565b60405180910390a3610eee8484846110d0565b50505050565b600073ffffffffffffffffffffffffffffffffffffffff168273ffffffffffffffffffffffffffffffffffffffff161415610f64576040517f08c379a0000000000000000000000000000000000000000000000000000000008152600401610f5b906114fd565b60405180910390fd5b610f70826000836110cb565b60008060008473ffffffffffffffffffffffffffffffffffffffff1673ffffffffffffffffffffffffffffffffffffffff16815260200190815260200160002054905081811015610ff6576040517f08c379a0000000000000000000000000000000000000000000000000000000008152600401610fed9061145d565b60405180910390fd5b8181036000808573ffffffffffffffffffffffffffffffffffffffff1673ffffffffffffffffffffffffffffffffffffffff16815260200190815260200160002081905550816002600082825461104d9190611645565b92505081905550600073ffffffffffffffffffffffffffffffffffffffff168373ffffffffffffffffffffffffffffffffffffffff167fddf252ad1be2c89b69c2b068fc378daa952ba7f163c4a11628f55a4df523b3ef846040516110b2919061159d565b60405180910390a36110c6836000846110d0565b505050565b505050565b505050565b6000813590506110e481611abb565b92915050565b6000813590506110f981611ad2565b92915050565b60006020828403121561111157600080fd5b600061111f848285016110d5565b91505092915050565b6000806040838503121561113b57600080fd5b6000611149858286016110d5565b925050602061115a858286016110d5565b9150509250929050565b60008060006060848603121561117957600080fd5b6000611187868287016110d5565b9350506020611198868287016110d5565b92505060406111a9868287016110ea565b9150509250925092565b600080604083850312156111c657600080fd5b60006111d4858286016110d5565b92505060206111e5858286016110ea565b9150509250929050565b6111f881611679565b82525050565b6112078161168b565b82525050565b6000611218826115d3565b61122281856115de565b93506112328185602086016116ce565b61123b81611791565b840191505092915050565b60006112536023836115de565b915061125e826117a2565b604082019050919050565b60006112766022836115de565b9150611281826117f1565b604082019050919050565b60006112996022836115de565b91506112a482611840565b604082019050919050565b60006112bc6026836115de565b91506112c78261188f565b604082019050919050565b60006112df600a836115de565b91506112ea826118de565b602082019050919050565b60006113026028836115de565b915061130d82611907565b604082019050919050565b60006113256021836115de565b915061133082611956565b604082019050919050565b60006113486025836115de565b9150611353826119a5565b604082019050919050565b600061136b6024836115de565b9150611376826119f4565b604082019050919050565b600061138e6025836115de565b915061139982611a43565b604082019050919050565b60006113b1601f836115de565b91506113bc82611a92565b602082019050919050565b6113d0816116b7565b82525050565b6113df816116c1565b82525050565b60006020820190506113fa60008301846111ef565b92915050565b600060208201905061141560008301846111fe565b92915050565b60006020820190508181036000830152611435818461120d565b905092915050565b6000602082019050818103600083015261145681611246565b9050919050565b6000602082019050818103600083015261147681611269565b9050919050565b600060208201905081810360008301526114968161128c565b9050919050565b600060208201905081810360008301526114b6816112af565b9050919050565b600060208201905081810360008301526114d6816112d2565b9050919050565b600060208201905081810360008301526114f6816112f5565b9050919050565b6000602082019050818103600083015261151681611318565b9050919050565b600060208201905081810360008301526115368161133b565b9050919050565b600060208201905081810360008301526115568161135e565b9050919050565b6000602082019050818103600083015261157681611381565b9050919050565b60006020820190508181036000830152611596816113a4565b9050919050565b60006020820190506115b260008301846113c7565b92915050565b60006020820190506115cd60008301846113d6565b92915050565b600081519050919050565b600082825260208201905092915050565b60006115fa826116b7565b9150611605836116b7565b9250827fffffffffffffffffffffffffffffffffffffffffffffffffffffffffffffffff0382111561163a57611639611733565b5b828201905092915050565b6000611650826116b7565b915061165b836116b7565b92508282101561166e5761166d611733565b5b828203905092915050565b600061168482611697565b9050919050565b60008115159050919050565b600073ffffffffffffffffffffffffffffffffffffffff82169050919050565b6000819050919050565b600060ff82169050919050565b60005b838110156116ec5780820151818401526020810190506116d1565b838111156116fb576000848401525b50505050565b6000600282049050600182168061171957607f821691505b6020821081141561172d5761172c611762565b5b50919050565b7f4e487b7100000000000000000000000000000000000000000000000000000000600052601160045260246000fd5b7f4e487b7100000000000000000000000000000000000000000000000000000000600052602260045260246000fd5b6000601f19601f8301169050919050565b7f45524332303a207472616e7366657220746f20746865207a65726f206164647260008201527f6573730000000000000000000000000000000000000000000000000000000000602082015250565b7f45524332303a206275726e20616d6f756e7420657863656564732062616c616e60008201527f6365000000000000000000000000000000000000000000000000000000000000602082015250565b7f45524332303a20617070726f766520746f20746865207a65726f20616464726560008201527f7373000000000000000000000000000000000000000000000000000000000000602082015250565b7f45524332303a207472616e7366657220616d6f756e742065786365656473206260008201527f616c616e63650000000000000000000000000000000000000000000000000000602082015250565b7f6f6e6c792061646d696e00000000000000000000000000000000000000000000600082015250565b7f45524332303a207472616e7366657220616d6f756e742065786365656473206160008201527f6c6c6f77616e6365000000000000000000000000000000000000000000000000602082015250565b7f45524332303a206275726e2066726f6d20746865207a65726f2061646472657360008201527f7300000000000000000000000000000000000000000000000000000000000000602082015250565b7f45524332303a207472616e736665722066726f6d20746865207a65726f20616460008201527f6472657373000000000000000000000000000000000000000000000000000000602082015250565b7f45524332303a20617070726f76652066726f6d20746865207a65726f2061646460008201527f7265737300000000000000000000000000000000000000000000000000000000602082015250565b7f45524332303a2064656372656173656420616c6c6f77616e63652062656c6f7760008201527f207a65726f000000000000000000000000000000000000000000000000000000602082015250565b7f45524332303a206d696e7420746f20746865207a65726f206164647265737300600082015250565b611ac481611679565b8114611acf57600080fd5b50565b611adb816116b7565b8114611ae657600080fd5b5056fea264697066735822122041a9f6a7a0ba53d912208bbfb5b82c3461cb7cd877611e4440f29900f2c2b2e064736f6c63430008040033",
  "linkReferences": {},
  "deployedLinkReferences": {}
}